{
  "contractName": "AccessControl",
  "abi": [
    {
      "anonymous": false,
      "inputs": [
        {
          "indexed": true,
          "internalType": "uint256",
          "name": "requestId",
          "type": "uint256"
        },
        {
          "indexed": true,
          "internalType": "address",
          "name": "doctor",
          "type": "address"
        },
        {
          "indexed": true,
          "internalType": "address",
          "name": "patient",
          "type": "address"
        }
      ],
      "name": "AccessDenied",
      "type": "event"
    },
    {
      "anonymous": false,
      "inputs": [
        {
          "indexed": true,
          "internalType": "address",
          "name": "doctor",
          "type": "address"
        },
        {
          "indexed": true,
          "internalType": "address",
          "name": "patient",
          "type": "address"
        }
      ],
      "name": "AccessExpired",
      "type": "event"
    },
    {
      "anonymous": false,
      "inputs": [
        {
          "indexed": true,
          "internalType": "uint256",
          "name": "requestId",
          "type": "uint256"
        },
        {
          "indexed": true,
          "internalType": "address",
          "name": "doctor",
          "type": "address"
        },
        {
          "indexed": true,
          "internalType": "address",
          "name": "patient",
          "type": "address"
        }
      ],
      "name": "AccessGranted",
      "type": "event"
    },
    {
      "anonymous": false,
      "inputs": [
        {
          "indexed": true,
          "internalType": "uint256",
          "name": "requestId",
          "type": "uint256"
        },
        {
          "indexed": true,
          "internalType": "address",
          "name": "doctor",
          "type": "address"
        },
        {
          "indexed": true,
          "internalType": "address",
          "name": "patient",
          "type": "address"
        }
      ],
      "name": "AccessRequested",
      "type": "event"
    },
    {
      "inputs": [
        {
          "internalType": "address",
          "name": "",
          "type": "address"
        }
      ],
      "name": "accessExpiration",
      "outputs": [
        {
          "internalType": "uint256",
          "name": "",
          "type": "uint256"
        }
      ],
      "stateMutability": "view",
      "type": "function"
    },
    {
      "inputs": [
        {
          "internalType": "address",
          "name": "",
          "type": "address"
        },
        {
          "internalType": "address",
          "name": "",
          "type": "address"
        }
      ],
      "name": "activeAccess",
      "outputs": [
        {
          "internalType": "bool",
          "name": "",
          "type": "bool"
        }
      ],
      "stateMutability": "view",
      "type": "function"
    },
    {
      "inputs": [
        {
          "internalType": "address",
          "name": "",
          "type": "address"
        },
        {
          "internalType": "uint256",
          "name": "",
          "type": "uint256"
        }
      ],
      "name": "patientRequests",
      "outputs": [
        {
          "internalType": "uint256",
          "name": "",
          "type": "uint256"
        }
      ],
      "stateMutability": "view",
      "type": "function"
    },
    {
      "inputs": [
        {
          "internalType": "uint256",
          "name": "",
          "type": "uint256"
        }
      ],
      "name": "requests",
      "outputs": [
        {
          "internalType": "uint256",
          "name": "id",
          "type": "uint256"
        },
        {
          "internalType": "address",
          "name": "doctor",
          "type": "address"
        },
        {
          "internalType": "address",
          "name": "patient",
          "type": "address"
        },
        {
          "internalType": "string",
          "name": "reason",
          "type": "string"
        },
        {
          "internalType": "uint256",
          "name": "requestDate",
          "type": "uint256"
        },
        {
          "internalType": "uint256",
          "name": "duration",
          "type": "uint256"
        },
        {
          "internalType": "string",
          "name": "status",
          "type": "string"
        },
        {
          "internalType": "uint256",
          "name": "approvalDate",
          "type": "uint256"
        }
      ],
      "stateMutability": "view",
      "type": "function"
    },
    {
      "inputs": [
        {
          "internalType": "address",
          "name": "patient",
          "type": "address"
        },
        {
          "internalType": "string",
          "name": "reason",
          "type": "string"
        },
        {
          "internalType": "uint256",
          "name": "duration",
          "type": "uint256"
        }
      ],
      "name": "createAccessRequest",
      "outputs": [
        {
          "internalType": "uint256",
          "name": "",
          "type": "uint256"
        }
      ],
      "stateMutability": "nonpayable",
      "type": "function"
    },
    {
      "inputs": [
        {
          "internalType": "uint256",
          "name": "requestId",
          "type": "uint256"
        },
        {
          "internalType": "bool",
          "name": "approved",
          "type": "bool"
        }
      ],
      "name": "respondToAccessRequest",
      "outputs": [],
      "stateMutability": "nonpayable",
      "type": "function"
    },
    {
      "inputs": [
        {
          "internalType": "address",
          "name": "doctor",
          "type": "address"
        },
        {
          "internalType": "address",
          "name": "patient",
          "type": "address"
        }
      ],
      "name": "checkAccess",
      "outputs": [
        {
          "internalType": "bool",
          "name": "",
          "type": "bool"
        }
      ],
      "stateMutability": "view",
      "type": "function"
    },
    {
      "inputs": [
        {
          "internalType": "address",
          "name": "patient",
          "type": "address"
        }
      ],
      "name": "getAccessRequests",
      "outputs": [
        {
          "components": [
            {
              "internalType": "uint256",
              "name": "id",
              "type": "uint256"
            },
            {
              "internalType": "address",
              "name": "doctor",
              "type": "address"
            },
            {
              "internalType": "address",
              "name": "patient",
              "type": "address"
            },
            {
              "internalType": "string",
              "name": "reason",
              "type": "string"
            },
            {
              "internalType": "uint256",
              "name": "requestDate",
              "type": "uint256"
            },
            {
              "internalType": "uint256",
              "name": "duration",
              "type": "uint256"
            },
            {
              "internalType": "string",
              "name": "status",
              "type": "string"
            },
            {
              "internalType": "uint256",
              "name": "approvalDate",
              "type": "uint256"
            }
          ],
          "internalType": "struct AccessControl.AccessRequest[]",
          "name": "",
          "type": "tuple[]"
        }
      ],
      "stateMutability": "view",
      "type": "function"
    },
    {
      "inputs": [
        {
          "internalType": "address",
          "name": "doctor",
          "type": "address"
        }
      ],
      "name": "revokeAccess",
      "outputs": [],
      "stateMutability": "nonpayable",
      "type": "function"
    }
  ],
  "bytecode": "0x60806040526000805534801561001457600080fd5b50611f11806100246000396000f3fe608060405234801561001057600080fd5b50600436106100935760003560e01c806381581c601161006657806381581c601461015857806381d12c581461017457806385e68531146101ab578063b741d60b146101c7578063cf374334146101f757610093565b80630d203f1f146100985780633217bc72146100c85780633d7991cb146100f857806362e1f74514610128575b600080fd5b6100b260048036038101906100ad9190611498565b610227565b6040516100bf9190611ab5565b60405180910390f35b6100e260048036038101906100dd9190611564565b61023f565b6040516100ef9190611ab5565b60405180910390f35b610112600480360381019061010d91906114c1565b610270565b60405161011f91906119fa565b60405180910390f35b610142600480360381019061013d91906114c1565b61029f565b60405161014f91906119fa565b60405180910390f35b610172600480360381019061016d91906115c9565b610393565b005b61018e600480360381019061018991906115a0565b610896565b6040516101a2989796959493929190611ad0565b60405180910390f35b6101c560048036038101906101c09190611498565b610a2e565b005b6101e160048036038101906101dc91906114fd565b610c2e565b6040516101ee9190611ab5565b60405180910390f35b610211600480360381019061020c9190611498565b610f05565b60405161021e91906119d8565b60405180910390f35b60046020528060005260406000206000915090505481565b6002602052816000526040600020818154811061025b57600080fd5b90600052602060002001600091509150505481565b60036020528160005260406000206020528060005260406000206000915091509054906101000a900460ff1681565b6000600360008473ffffffffffffffffffffffffffffffffffffffff1673ffffffffffffffffffffffffffffffffffffffff16815260200190815260200160002060008373ffffffffffffffffffffffffffffffffffffffff1673ffffffffffffffffffffffffffffffffffffffff16815260200190815260200160002060009054906101000a900460ff16610338576000905061038d565b600460008473ffffffffffffffffffffffffffffffffffffffff1673ffffffffffffffffffffffffffffffffffffffff16815260200190815260200160002054421115610388576000905061038d565b600190505b92915050565b813373ffffffffffffffffffffffffffffffffffffffff166001600083815260200190815260200160002060020160009054906101000a900473ffffffffffffffffffffffffffffffffffffffff1673ffffffffffffffffffffffffffffffffffffffff1614610438576040517f08c379a000000000000000000000000000000000000000000000000000000000815260040161042f90611a35565b60405180910390fd5b6000600160008581526020019081526020016000209050600081600601805461046090611d7d565b9050116104a2576040517f08c379a000000000000000000000000000000000000000000000000000000000815260040161049990611a55565b60405180910390fd5b6040518060400160405280600781526020017f70656e64696e670000000000000000000000000000000000000000000000000081525080519060200120816006016040516104f091906119c1565b604051809103902014610538576040517f08c379a000000000000000000000000000000000000000000000000000000000815260040161052f90611a15565b60405180910390fd5b821561079e576040518060400160405280600881526020017f617070726f76656400000000000000000000000000000000000000000000000081525081600601908051906020019061058b9291906112dd565b504281600701819055506001600360008360010160009054906101000a900473ffffffffffffffffffffffffffffffffffffffff1673ffffffffffffffffffffffffffffffffffffffff1673ffffffffffffffffffffffffffffffffffffffff16815260200190815260200160002060008360020160009054906101000a900473ffffffffffffffffffffffffffffffffffffffff1673ffffffffffffffffffffffffffffffffffffffff1673ffffffffffffffffffffffffffffffffffffffff16815260200190815260200160002060006101000a81548160ff021916908315150217905550610e1081600501546106849190611c99565b4261068f9190611c43565b600460008360010160009054906101000a900473ffffffffffffffffffffffffffffffffffffffff1673ffffffffffffffffffffffffffffffffffffffff1673ffffffffffffffffffffffffffffffffffffffff168152602001908152602001600020819055508060020160009054906101000a900473ffffffffffffffffffffffffffffffffffffffff1673ffffffffffffffffffffffffffffffffffffffff168160010160009054906101000a900473ffffffffffffffffffffffffffffffffffffffff1673ffffffffffffffffffffffffffffffffffffffff16857f97a8264d9d0b9e21370349f9b49be012a5d1e27829879df8ba166dba48f898c660405160405180910390a4610890565b6040518060400160405280600881526020017f72656a65637465640000000000000000000000000000000000000000000000008152508160060190805190602001906107eb9291906112dd565b508060020160009054906101000a900473ffffffffffffffffffffffffffffffffffffffff1673ffffffffffffffffffffffffffffffffffffffff168160010160009054906101000a900473ffffffffffffffffffffffffffffffffffffffff1673ffffffffffffffffffffffffffffffffffffffff16857f675d0665e47d3038926572cb9031824da646e111df2a3092b2db3e46834fe30060405160405180910390a45b50505050565b60016020528060005260406000206000915090508060000154908060010160009054906101000a900473ffffffffffffffffffffffffffffffffffffffff16908060020160009054906101000a900473ffffffffffffffffffffffffffffffffffffffff169080600301805461090b90611d7d565b80601f016020809104026020016040519081016040528092919081815260200182805461093790611d7d565b80156109845780601f1061095957610100808354040283529160200191610984565b820191906000526020600020905b81548152906001019060200180831161096757829003601f168201915b5050505050908060040154908060050154908060060180546109a590611d7d565b80601f01602080910402602001604051908101604052809291908181526020018280546109d190611d7d565b8015610a1e5780601f106109f357610100808354040283529160200191610a1e565b820191906000526020600020905b815481529060010190602001808311610a0157829003601f168201915b5050505050908060070154905088565b600360008273ffffffffffffffffffffffffffffffffffffffff1673ffffffffffffffffffffffffffffffffffffffff16815260200190815260200160002060003373ffffffffffffffffffffffffffffffffffffffff1673ffffffffffffffffffffffffffffffffffffffff16815260200190815260200160002060009054906101000a900460ff16610af7576040517f08c379a0000000000000000000000000000000000000000000000000000000008152600401610aee90611a95565b60405180910390fd5b6000600360008373ffffffffffffffffffffffffffffffffffffffff1673ffffffffffffffffffffffffffffffffffffffff16815260200190815260200160002060003373ffffffffffffffffffffffffffffffffffffffff1673ffffffffffffffffffffffffffffffffffffffff16815260200190815260200160002060006101000a81548160ff0219169083151502179055506000600460008373ffffffffffffffffffffffffffffffffffffffff1673ffffffffffffffffffffffffffffffffffffffff168152602001908152602001600020819055503373ffffffffffffffffffffffffffffffffffffffff168173ffffffffffffffffffffffffffffffffffffffff167ff530cd931a5da630062430efba68949b7952f227e74638b206470b1e9a71bf0060405160405180910390a350565b6000808211610c72576040517f08c379a0000000000000000000000000000000000000000000000000000000008152600401610c6990611a75565b60405180910390fd5b600080815480929190610c8490611daf565b9190505550600060405180610100016040528060005481526020013373ffffffffffffffffffffffffffffffffffffffff1681526020018673ffffffffffffffffffffffffffffffffffffffff1681526020018581526020014281526020018481526020016040518060400160405280600781526020017f70656e64696e67000000000000000000000000000000000000000000000000008152508152602001600081525090508060016000805481526020019081526020016000206000820151816000015560208201518160010160006101000a81548173ffffffffffffffffffffffffffffffffffffffff021916908373ffffffffffffffffffffffffffffffffffffffff16021790555060408201518160020160006101000a81548173ffffffffffffffffffffffffffffffffffffffff021916908373ffffffffffffffffffffffffffffffffffffffff1602179055506060820151816003019080519060200190610df49291906112dd565b506080820151816004015560a0820151816005015560c0820151816006019080519060200190610e259291906112dd565b5060e08201518160070155905050600260008673ffffffffffffffffffffffffffffffffffffffff1673ffffffffffffffffffffffffffffffffffffffff16815260200190815260200160002060005490806001815401808255809150506001900390600052602060002001600090919091909150558473ffffffffffffffffffffffffffffffffffffffff163373ffffffffffffffffffffffffffffffffffffffff166000547fc0d9df9d6d8acee28356fcc24c0de4597104943515c4c0b12fb3d6b1ca74b0ee60405160405180910390a46000549150509392505050565b60606000600260008473ffffffffffffffffffffffffffffffffffffffff1673ffffffffffffffffffffffffffffffffffffffff168152602001908152602001600020805480602002602001604051908101604052809291908181526020018280548015610f9257602002820191906000526020600020905b815481526020019060010190808311610f7e575b505050505090506000815167ffffffffffffffff811115610fdc577f4e487b7100000000000000000000000000000000000000000000000000000000600052604160045260246000fd5b60405190808252806020026020018201604052801561101557816020015b611002611363565b815260200190600190039081610ffa5790505b50905060005b82518110156112d25760016000848381518110611061577f4e487b7100000000000000000000000000000000000000000000000000000000600052603260045260246000fd5b6020026020010151815260200190815260200160002060405180610100016040529081600082015481526020016001820160009054906101000a900473ffffffffffffffffffffffffffffffffffffffff1673ffffffffffffffffffffffffffffffffffffffff1673ffffffffffffffffffffffffffffffffffffffff1681526020016002820160009054906101000a900473ffffffffffffffffffffffffffffffffffffffff1673ffffffffffffffffffffffffffffffffffffffff1673ffffffffffffffffffffffffffffffffffffffff16815260200160038201805461114990611d7d565b80601f016020809104026020016040519081016040528092919081815260200182805461117590611d7d565b80156111c25780601f10611197576101008083540402835291602001916111c2565b820191906000526020600020905b8154815290600101906020018083116111a557829003601f168201915b5050505050815260200160048201548152602001600582015481526020016006820180546111ef90611d7d565b80601f016020809104026020016040519081016040528092919081815260200182805461121b90611d7d565b80156112685780601f1061123d57610100808354040283529160200191611268565b820191906000526020600020905b81548152906001019060200180831161124b57829003601f168201915b505050505081526020016007820154815250508282815181106112b4577f4e487b7100000000000000000000000000000000000000000000000000000000600052603260045260246000fd5b602002602001018190525080806112ca90611daf565b91505061101b565b508092505050919050565b8280546112e990611d7d565b90600052602060002090601f01602090048101928261130b5760008555611352565b82601f1061132457805160ff1916838001178555611352565b82800160010185558215611352579182015b82811115611351578251825591602001919060010190611336565b5b50905061135f91906113d4565b5090565b60405180610100016040528060008152602001600073ffffffffffffffffffffffffffffffffffffffff168152602001600073ffffffffffffffffffffffffffffffffffffffff16815260200160608152602001600081526020016000815260200160608152602001600081525090565b5b808211156113ed5760008160009055506001016113d5565b5090565b60006114046113ff84611b8d565b611b5c565b90508281526020810184848401111561141c57600080fd5b611427848285611d3b565b509392505050565b60008135905061143e81611e96565b92915050565b60008135905061145381611ead565b92915050565b600082601f83011261146a57600080fd5b813561147a8482602086016113f1565b91505092915050565b60008135905061149281611ec4565b92915050565b6000602082840312156114aa57600080fd5b60006114b88482850161142f565b91505092915050565b600080604083850312156114d457600080fd5b60006114e28582860161142f565b92505060206114f38582860161142f565b9150509250929050565b60008060006060848603121561151257600080fd5b60006115208682870161142f565b935050602084013567ffffffffffffffff81111561153d57600080fd5b61154986828701611459565b925050604061155a86828701611483565b9150509250925092565b6000806040838503121561157757600080fd5b60006115858582860161142f565b925050602061159685828601611483565b9150509250929050565b6000602082840312156115b257600080fd5b60006115c084828501611483565b91505092915050565b600080604083850312156115dc57600080fd5b60006115ea85828601611483565b92505060206115fb85828601611444565b9150509250929050565b600061161183836118ec565b905092915050565b61162281611cf3565b82525050565b61163181611cf3565b82525050565b600061164282611be2565b61164c8185611c05565b93508360208202850161165e85611bbd565b8060005b8581101561169a578484038952815161167b8582611605565b945061168683611bf8565b925060208a01995050600181019050611662565b50829750879550505050505092915050565b6116b581611d05565b82525050565b600081546116c881611d7d565b6116d28186611c16565b945060018216600081146116ed57600181146116fe57611731565b60ff19831686528186019350611731565b61170785611bcd565b60005b838110156117295781548189015260018201915060208101905061170a565b838801955050505b50505092915050565b600061174582611bed565b61174f8185611c21565b935061175f818560208601611d4a565b61176881611e85565b840191505092915050565b600061177e82611bed565b6117888185611c32565b9350611798818560208601611d4a565b6117a181611e85565b840191505092915050565b60006117b9601983611c32565b91507f5265717565737420616c72656164792070726f636573736564000000000000006000830152602082019050919050565b60006117f9601883611c32565b91507f4f6e6c792070617469656e742063616e20726573706f6e6400000000000000006000830152602082019050919050565b6000611839601683611c32565b91507f5265717565737420646f6573206e6f74206578697374000000000000000000006000830152602082019050919050565b6000611879601983611c32565b91507f4475726174696f6e206d75737420626520706f736974697665000000000000006000830152602082019050919050565b60006118b9601a83611c32565b91507f4e6f206163746976652061636365737320746f207265766f6b650000000000006000830152602082019050919050565b60006101008301600083015161190560008601826119a3565b5060208301516119186020860182611619565b50604083015161192b6040860182611619565b5060608301518482036060860152611943828261173a565b915050608083015161195860808601826119a3565b5060a083015161196b60a08601826119a3565b5060c083015184820360c0860152611983828261173a565b91505060e083015161199860e08601826119a3565b508091505092915050565b6119ac81611d31565b82525050565b6119bb81611d31565b82525050565b60006119cd82846116bb565b915081905092915050565b600060208201905081810360008301526119f28184611637565b905092915050565b6000602082019050611a0f60008301846116ac565b92915050565b60006020820190508181036000830152611a2e816117ac565b9050919050565b60006020820190508181036000830152611a4e816117ec565b9050919050565b60006020820190508181036000830152611a6e8161182c565b9050919050565b60006020820190508181036000830152611a8e8161186c565b9050919050565b60006020820190508181036000830152611aae816118ac565b9050919050565b6000602082019050611aca60008301846119b2565b92915050565b600061010082019050611ae6600083018b6119b2565b611af3602083018a611628565b611b006040830189611628565b8181036060830152611b128188611773565b9050611b2160808301876119b2565b611b2e60a08301866119b2565b81810360c0830152611b408185611773565b9050611b4f60e08301846119b2565b9998505050505050505050565b6000604051905081810181811067ffffffffffffffff82111715611b8357611b82611e56565b5b8060405250919050565b600067ffffffffffffffff821115611ba857611ba7611e56565b5b601f19601f8301169050602081019050919050565b6000819050602082019050919050565b60008190508160005260206000209050919050565b600081519050919050565b600081519050919050565b6000602082019050919050565b600082825260208201905092915050565b600081905092915050565b600082825260208201905092915050565b600082825260208201905092915050565b6000611c4e82611d31565b9150611c5983611d31565b9250827fffffffffffffffffffffffffffffffffffffffffffffffffffffffffffffffff03821115611c8e57611c8d611df8565b5b828201905092915050565b6000611ca482611d31565b9150611caf83611d31565b9250817fffffffffffffffffffffffffffffffffffffffffffffffffffffffffffffffff0483118215151615611ce857611ce7611df8565b5b828202905092915050565b6000611cfe82611d11565b9050919050565b60008115159050919050565b600073ffffffffffffffffffffffffffffffffffffffff82169050919050565b6000819050919050565b82818337600083830152505050565b60005b83811015611d68578082015181840152602081019050611d4d565b83811115611d77576000848401525b50505050565b60006002820490506001821680611d9557607f821691505b60208210811415611da957611da8611e27565b5b50919050565b6000611dba82611d31565b91507fffffffffffffffffffffffffffffffffffffffffffffffffffffffffffffffff821415611ded57611dec611df8565b5b600182019050919050565b7f4e487b7100000000000000000000000000000000000000000000000000000000600052601160045260246000fd5b7f4e487b7100000000000000000000000000000000000000000000000000000000600052602260045260246000fd5b7f4e487b7100000000000000000000000000000000000000000000000000000000600052604160045260246000fd5b6000601f19601f8301169050919050565b611e9f81611cf3565b8114611eaa57600080fd5b50565b611eb681611d05565b8114611ec157600080fd5b50565b611ecd81611d31565b8114611ed857600080fd5b5056fea26469706673582212207e812bc33edbdd741420644aeafed78def26388ddb069e62c2149020ea7ccc7664736f6c63430008000033",
  "immutableReferences": {},
  "source": "// SPDX-License-Identifier: MIT\npragma solidity ^0.8.0;\n\ncontract AccessControl {\n    struct AccessRequest {\n        uint256 id;\n        address doctor;\n        address patient;\n        string reason;\n        uint256 requestDate;\n        uint256 duration; // in hours\n        string status; // pending, approved, rejected, expired\n        uint256 approvalDate;\n    }\n\n    uint256 private requestCounter = 0;\n    mapping(uint256 => AccessRequest) public requests;\n    mapping(address => uint256[]) public patientRequests;\n    mapping(address => mapping(address => bool)) public activeAccess;\n    mapping(address => uint256) public accessExpiration;\n\n    event AccessRequested(uint256 indexed requestId, address indexed doctor, address indexed patient);\n    event AccessGranted(uint256 indexed requestId, address indexed doctor, address indexed patient);\n    event AccessDenied(uint256 indexed requestId, address indexed doctor, address indexed patient);\n    event AccessExpired(address indexed doctor, address indexed patient);\n\n    modifier onlyPatient(uint256 requestId) {\n        require(requests[requestId].patient == msg.sender, \"Only patient can respond\");\n        _;\n    }\n\n    function createAccessRequest(\n        address patient,\n        string memory reason,\n        uint256 duration\n    ) external returns (uint256) {\n        require(duration > 0, \"Duration must be positive\");\n        \n        requestCounter++;\n        \n        AccessRequest memory newRequest = AccessRequest({\n            id: requestCounter,\n            doctor: msg.sender,\n            patient: patient,\n            reason: reason,\n            requestDate: block.timestamp,\n            duration: duration,\n            status: \"pending\",\n            approvalDate: 0\n        });\n        \n        requests[requestCounter] = newRequest;\n        patientRequests[patient].push(requestCounter);\n        \n        emit AccessRequested(requestCounter, msg.sender, patient);\n        \n        return requestCounter;\n    }\n\n    function respondToAccessRequest(uint256 requestId, bool approved) \n        external \n        onlyPatient(requestId) \n    {\n        AccessRequest storage request = requests[requestId];\n        require(bytes(request.status).length > 0, \"Request does not exist\");\n        require(keccak256(bytes(request.status)) == keccak256(bytes(\"pending\")), \"Request already processed\");\n\n        if (approved) {\n            request.status = \"approved\";\n            request.approvalDate = block.timestamp;\n            activeAccess[request.doctor][request.patient] = true;\n            accessExpiration[request.doctor] = block.timestamp + (request.duration * 1 hours);\n            emit AccessGranted(requestId, request.doctor, request.patient);\n        } else {\n            request.status = \"rejected\";\n            emit AccessDenied(requestId, request.doctor, request.patient);\n        }\n    }\n\n    function checkAccess(address doctor, address patient) external view returns (bool) {\n        if (!activeAccess[doctor][patient]) {\n            return false;\n        }\n        \n        if (block.timestamp > accessExpiration[doctor]) {\n            return false;\n        }\n        \n        return true;\n    }\n\n    function getAccessRequests(address patient) external view returns (AccessRequest[] memory) {\n        uint256[] memory requestIds = patientRequests[patient];\n        AccessRequest[] memory result = new AccessRequest[](requestIds.length);\n        \n        for (uint256 i = 0; i < requestIds.length; i++) {\n            result[i] = requests[requestIds[i]];\n        }\n        \n        return result;\n    }\n\n    function revokeAccess(address doctor) external {\n        require(activeAccess[doctor][msg.sender], \"No active access to revoke\");\n        activeAccess[doctor][msg.sender] = false;\n        accessExpiration[doctor] = 0;\n        emit AccessExpired(doctor, msg.sender);\n    }\n}\n",
  "sourcePath": "c:\\Users\\antho\\CascadeProjects\\windsurf-project\\contracts\\AccessControl.sol",
  "compiler": {
    "name": "solc",
    "version": "0.8.0+commit.c7dfd78e.Emscripten.clang"
  },
  "schemaVersion": "3.4.16",
  "updatedAt": "2024-12-01T04:32:53.762Z",
  "devdoc": {
    "kind": "dev",
    "methods": {},
    "version": 1
  },
  "userdoc": {
    "kind": "user",
    "methods": {},
    "version": 1
  }
}