{
  "contractName": "HealthRecord",
  "abi": [
    {
      "inputs": [],
      "stateMutability": "nonpayable",
      "type": "constructor"
    },
    {
      "anonymous": false,
      "inputs": [
        {
          "indexed": true,
          "internalType": "address",
          "name": "patient",
          "type": "address"
        },
        {
          "indexed": true,
          "internalType": "address",
          "name": "doctor",
          "type": "address"
        }
      ],
      "name": "AccessGranted",
      "type": "event"
    },
    {
      "anonymous": false,
      "inputs": [
        {
          "indexed": true,
          "internalType": "address",
          "name": "patient",
          "type": "address"
        },
        {
          "indexed": true,
          "internalType": "address",
          "name": "doctor",
          "type": "address"
        }
      ],
      "name": "AccessRevoked",
      "type": "event"
    },
    {
      "anonymous": false,
      "inputs": [
        {
          "indexed": true,
          "internalType": "address",
          "name": "userAddress",
          "type": "address"
        },
        {
          "indexed": false,
          "internalType": "string",
          "name": "name",
          "type": "string"
        },
        {
          "indexed": false,
          "internalType": "enum HealthRecord.Role",
          "name": "role",
          "type": "uint8"
        }
      ],
      "name": "UserAdded",
      "type": "event"
    },
    {
      "anonymous": false,
      "inputs": [
        {
          "indexed": true,
          "internalType": "address",
          "name": "userAddress",
          "type": "address"
        }
      ],
      "name": "UserDeleted",
      "type": "event"
    },
    {
      "anonymous": false,
      "inputs": [
        {
          "indexed": true,
          "internalType": "address",
          "name": "userAddress",
          "type": "address"
        },
        {
          "indexed": false,
          "internalType": "string",
          "name": "name",
          "type": "string"
        },
        {
          "indexed": false,
          "internalType": "enum HealthRecord.Role",
          "name": "role",
          "type": "uint8"
        }
      ],
      "name": "UserUpdated",
      "type": "event"
    },
    {
      "inputs": [],
      "name": "DEFAULT_ADMIN",
      "outputs": [
        {
          "internalType": "address",
          "name": "",
          "type": "address"
        }
      ],
      "stateMutability": "view",
      "type": "function",
      "constant": true
    },
    {
      "inputs": [
        {
          "internalType": "address",
          "name": "",
          "type": "address"
        },
        {
          "internalType": "address",
          "name": "",
          "type": "address"
        }
      ],
      "name": "doctorAccess",
      "outputs": [
        {
          "internalType": "bool",
          "name": "",
          "type": "bool"
        }
      ],
      "stateMutability": "view",
      "type": "function",
      "constant": true
    },
    {
      "inputs": [],
      "name": "owner",
      "outputs": [
        {
          "internalType": "address",
          "name": "",
          "type": "address"
        }
      ],
      "stateMutability": "view",
      "type": "function",
      "constant": true
    },
    {
      "inputs": [
        {
          "internalType": "address",
          "name": "",
          "type": "address"
        }
      ],
      "name": "users",
      "outputs": [
        {
          "internalType": "string",
          "name": "name",
          "type": "string"
        },
        {
          "internalType": "address",
          "name": "userAddress",
          "type": "address"
        },
        {
          "internalType": "enum HealthRecord.Role",
          "name": "role",
          "type": "uint8"
        },
        {
          "internalType": "bool",
          "name": "isActive",
          "type": "bool"
        },
        {
          "internalType": "string",
          "name": "ipfsHash",
          "type": "string"
        }
      ],
      "stateMutability": "view",
      "type": "function",
      "constant": true
    },
    {
      "inputs": [
        {
          "internalType": "address",
          "name": "_userAddress",
          "type": "address"
        },
        {
          "internalType": "string",
          "name": "_name",
          "type": "string"
        },
        {
          "internalType": "enum HealthRecord.Role",
          "name": "_role",
          "type": "uint8"
        },
        {
          "internalType": "string",
          "name": "_ipfsHash",
          "type": "string"
        }
      ],
      "name": "addUser",
      "outputs": [],
      "stateMutability": "nonpayable",
      "type": "function"
    },
    {
      "inputs": [
        {
          "internalType": "address",
          "name": "_userAddress",
          "type": "address"
        },
        {
          "internalType": "string",
          "name": "_name",
          "type": "string"
        },
        {
          "internalType": "string",
          "name": "_ipfsHash",
          "type": "string"
        }
      ],
      "name": "updateUser",
      "outputs": [],
      "stateMutability": "nonpayable",
      "type": "function"
    },
    {
      "inputs": [
        {
          "internalType": "address",
          "name": "_userAddress",
          "type": "address"
        }
      ],
      "name": "deleteUser",
      "outputs": [],
      "stateMutability": "nonpayable",
      "type": "function"
    },
    {
      "inputs": [
        {
          "internalType": "address",
          "name": "_doctorAddress",
          "type": "address"
        }
      ],
      "name": "grantAccessToDoctor",
      "outputs": [],
      "stateMutability": "nonpayable",
      "type": "function"
    },
    {
      "inputs": [
        {
          "internalType": "address",
          "name": "_doctorAddress",
          "type": "address"
        }
      ],
      "name": "revokeAccessFromDoctor",
      "outputs": [],
      "stateMutability": "nonpayable",
      "type": "function"
    },
    {
      "inputs": [
        {
          "internalType": "address",
          "name": "_userAddress",
          "type": "address"
        }
      ],
      "name": "getUserRole",
      "outputs": [
        {
          "internalType": "enum HealthRecord.Role",
          "name": "",
          "type": "uint8"
        }
      ],
      "stateMutability": "view",
      "type": "function",
      "constant": true
    },
    {
      "inputs": [
        {
          "internalType": "address",
          "name": "_patientAddress",
          "type": "address"
        },
        {
          "internalType": "address",
          "name": "_doctorAddress",
          "type": "address"
        }
      ],
      "name": "checkDoctorAccess",
      "outputs": [
        {
          "internalType": "bool",
          "name": "",
          "type": "bool"
        }
      ],
      "stateMutability": "view",
      "type": "function",
      "constant": true
    },
    {
      "inputs": [],
      "name": "addDefaultAdmin",
      "outputs": [],
      "stateMutability": "nonpayable",
      "type": "function"
    }
  ],
  "bytecode": "0x60806040523480156200001157600080fd5b50336000806101000a81548173ffffffffffffffffffffffffffffffffffffffff021916908373ffffffffffffffffffffffffffffffffffffffff16021790555073d9073e73717fca172f29b55a0368ae41de35d23773ffffffffffffffffffffffffffffffffffffffff163373ffffffffffffffffffffffffffffffffffffffff161415620002e8576040518060a001604052806040518060400160405280600d81526020017f44656661756c742041646d696e0000000000000000000000000000000000000081525081526020013373ffffffffffffffffffffffffffffffffffffffff16815260200160028081111562000137577f4e487b7100000000000000000000000000000000000000000000000000000000600052602160045260246000fd5b815260200160011515815260200160405180602001604052806000815250815250600160003373ffffffffffffffffffffffffffffffffffffffff1673ffffffffffffffffffffffffffffffffffffffff1681526020019081526020016000206000820151816000019080519060200190620001b5929190620002ee565b5060208201518160010160006101000a81548173ffffffffffffffffffffffffffffffffffffffff021916908373ffffffffffffffffffffffffffffffffffffffff16021790555060408201518160010160146101000a81548160ff021916908360028111156200024f577f4e487b7100000000000000000000000000000000000000000000000000000000600052602160045260246000fd5b021790555060608201518160010160156101000a81548160ff021916908315150217905550608082015181600201908051906020019062000292929190620002ee565b509050503373ffffffffffffffffffffffffffffffffffffffff167f8897d4c16f6b907647cc92f3b2f80418ac81581b8e74f9dda595d3910b44c8626002604051620002df9190620003f1565b60405180910390a25b62000508565b828054620002fc906200045d565b90600052602060002090601f0160209004810192826200032057600085556200036c565b82601f106200033b57805160ff19168380011785556200036c565b828001600101855582156200036c579182015b828111156200036b5782518255916020019190600101906200034e565b5b5090506200037b91906200037f565b5090565b5b808211156200039a57600081600090555060010162000380565b5090565b620003a98162000449565b82525050565b6000620003be600d8362000423565b91507f44656661756c742041646d696e000000000000000000000000000000000000006000830152602082019050919050565b600060408201905081810360008301526200040c81620003af565b90506200041d60208301846200039e565b92915050565b600082825260208201905092915050565b60008190506200044482620004f1565b919050565b6000620004568262000434565b9050919050565b600060028204905060018216806200047657607f821691505b602082108114156200048d576200048c620004c2565b5b50919050565b7f4e487b7100000000000000000000000000000000000000000000000000000000600052602160045260246000fd5b7f4e487b7100000000000000000000000000000000000000000000000000000000600052602260045260246000fd5b6003811062000505576200050462000493565b5b50565b61264280620005186000396000f3fe608060405234801561001057600080fd5b50600436106100b45760003560e01c80638da5cb5b116100715780638da5cb5b146101755780639cdeba9514610193578063a87430ba146101b1578063b2d566c1146101e5578063e68ddac814610215578063fe127fcb1461021f576100b4565b806310e8b22d146100b95780631c8e251c146100d557806327820851146100f15780635c60f22614610121578063629e559d1461013d57806365a410a314610159575b600080fd5b6100d360048036038101906100ce9190611cde565b61024f565b005b6100ef60048036038101906100ea9190611be6565b6105c0565b005b61010b60048036038101906101069190611be6565b6109d4565b6040516101189190612185565b60405180910390f35b61013b60048036038101906101369190611be6565b610a2d565b005b61015760048036038101906101529190611be6565b610d70565b005b610173600480360381019061016e9190611c4b565b610ff3565b005b61017d61148a565b60405161018a919061214f565b60405180910390f35b61019b6114ae565b6040516101a8919061214f565b60405180910390f35b6101cb60048036038101906101c69190611be6565b6114c6565b6040516101dc9594939291906121a0565b60405180910390f35b6101ff60048036038101906101fa9190611c0f565b611646565b60405161020c919061216a565b60405180910390f35b61021d6116da565b005b61023960048036038101906102349190611c0f565b611a82565b604051610246919061216a565b60405180910390f35b600280811115610288577f4e487b7100000000000000000000000000000000000000000000000000000000600052602160045260246000fd5b600160003373ffffffffffffffffffffffffffffffffffffffff1673ffffffffffffffffffffffffffffffffffffffff16815260200190815260200160002060010160149054906101000a900460ff166002811115610310577f4e487b7100000000000000000000000000000000000000000000000000000000600052602160045260246000fd5b14610350576040517f08c379a00000000000000000000000000000000000000000000000000000000081526004016103479061235f565b60405180910390fd5b600160003373ffffffffffffffffffffffffffffffffffffffff1673ffffffffffffffffffffffffffffffffffffffff16815260200190815260200160002060010160159054906101000a900460ff166103df576040517f08c379a00000000000000000000000000000000000000000000000000000000081526004016103d69061233f565b60405180910390fd5b600160008473ffffffffffffffffffffffffffffffffffffffff1673ffffffffffffffffffffffffffffffffffffffff16815260200190815260200160002060010160159054906101000a900460ff1661046e576040517f08c379a00000000000000000000000000000000000000000000000000000000081526004016104659061237f565b60405180910390fd5b81600160008573ffffffffffffffffffffffffffffffffffffffff1673ffffffffffffffffffffffffffffffffffffffff16815260200190815260200160002060000190805190602001906104c4929190611ab1565b5080600160008573ffffffffffffffffffffffffffffffffffffffff1673ffffffffffffffffffffffffffffffffffffffff168152602001908152602001600020600201908051906020019061051b929190611ab1565b508273ffffffffffffffffffffffffffffffffffffffff167fefdadc7a28168743850ed04edc06f2f26eca08d86d4e5877b355f1eecb3d2bca83600160008773ffffffffffffffffffffffffffffffffffffffff1673ffffffffffffffffffffffffffffffffffffffff16815260200190815260200160002060010160149054906101000a900460ff166040516105b3929190612201565b60405180910390a2505050565b600060028111156105fa577f4e487b7100000000000000000000000000000000000000000000000000000000600052602160045260246000fd5b600160003373ffffffffffffffffffffffffffffffffffffffff1673ffffffffffffffffffffffffffffffffffffffff16815260200190815260200160002060010160149054906101000a900460ff166002811115610682577f4e487b7100000000000000000000000000000000000000000000000000000000600052602160045260246000fd5b146106c2576040517f08c379a00000000000000000000000000000000000000000000000000000000081526004016106b9906122ff565b60405180910390fd5b600160003373ffffffffffffffffffffffffffffffffffffffff1673ffffffffffffffffffffffffffffffffffffffff16815260200190815260200160002060010160159054906101000a900460ff16610751576040517f08c379a0000000000000000000000000000000000000000000000000000000008152600401610748906122b1565b60405180910390fd5b6001600281111561078b577f4e487b7100000000000000000000000000000000000000000000000000000000600052602160045260246000fd5b600160008373ffffffffffffffffffffffffffffffffffffffff1673ffffffffffffffffffffffffffffffffffffffff16815260200190815260200160002060010160149054906101000a900460ff166002811115610813577f4e487b7100000000000000000000000000000000000000000000000000000000600052602160045260246000fd5b14610853576040517f08c379a000000000000000000000000000000000000000000000000000000000815260040161084a90612251565b60405180910390fd5b600160008273ffffffffffffffffffffffffffffffffffffffff1673ffffffffffffffffffffffffffffffffffffffff16815260200190815260200160002060010160159054906101000a900460ff166108e2576040517f08c379a00000000000000000000000000000000000000000000000000000000081526004016108d9906123bf565b60405180910390fd5b6001600260003373ffffffffffffffffffffffffffffffffffffffff1673ffffffffffffffffffffffffffffffffffffffff16815260200190815260200160002060008373ffffffffffffffffffffffffffffffffffffffff1673ffffffffffffffffffffffffffffffffffffffff16815260200190815260200160002060006101000a81548160ff0219169083151502179055508073ffffffffffffffffffffffffffffffffffffffff163373ffffffffffffffffffffffffffffffffffffffff167f9f520b3bfc56d06f7065d10b4683b3f57ac8895d5026cd176dee95ce1454cb8d60405160405180910390a350565b6000600160008373ffffffffffffffffffffffffffffffffffffffff1673ffffffffffffffffffffffffffffffffffffffff16815260200190815260200160002060010160149054906101000a900460ff169050919050565b600280811115610a66577f4e487b7100000000000000000000000000000000000000000000000000000000600052602160045260246000fd5b600160003373ffffffffffffffffffffffffffffffffffffffff1673ffffffffffffffffffffffffffffffffffffffff16815260200190815260200160002060010160149054906101000a900460ff166002811115610aee577f4e487b7100000000000000000000000000000000000000000000000000000000600052602160045260246000fd5b14610b2e576040517f08c379a0000000000000000000000000000000000000000000000000000000008152600401610b259061235f565b60405180910390fd5b600160003373ffffffffffffffffffffffffffffffffffffffff1673ffffffffffffffffffffffffffffffffffffffff16815260200190815260200160002060010160159054906101000a900460ff16610bbd576040517f08c379a0000000000000000000000000000000000000000000000000000000008152600401610bb49061233f565b60405180910390fd5b600160008273ffffffffffffffffffffffffffffffffffffffff1673ffffffffffffffffffffffffffffffffffffffff16815260200190815260200160002060010160159054906101000a900460ff16610c4c576040517f08c379a0000000000000000000000000000000000000000000000000000000008152600401610c439061237f565b60405180910390fd5b73d9073e73717fca172f29b55a0368ae41de35d23773ffffffffffffffffffffffffffffffffffffffff168173ffffffffffffffffffffffffffffffffffffffff161415610ccf576040517f08c379a0000000000000000000000000000000000000000000000000000000008152600401610cc69061231f565b60405180910390fd5b6000600160008373ffffffffffffffffffffffffffffffffffffffff1673ffffffffffffffffffffffffffffffffffffffff16815260200190815260200160002060010160156101000a81548160ff0219169083151502179055508073ffffffffffffffffffffffffffffffffffffffff167f4bc56f1321288dfb5b416cb3a7fd188723979f9e866c91d88eccf7fca039d03960405160405180910390a250565b60006002811115610daa577f4e487b7100000000000000000000000000000000000000000000000000000000600052602160045260246000fd5b600160003373ffffffffffffffffffffffffffffffffffffffff1673ffffffffffffffffffffffffffffffffffffffff16815260200190815260200160002060010160149054906101000a900460ff166002811115610e32577f4e487b7100000000000000000000000000000000000000000000000000000000600052602160045260246000fd5b14610e72576040517f08c379a0000000000000000000000000000000000000000000000000000000008152600401610e69906122ff565b60405180910390fd5b600160003373ffffffffffffffffffffffffffffffffffffffff1673ffffffffffffffffffffffffffffffffffffffff16815260200190815260200160002060010160159054906101000a900460ff16610f01576040517f08c379a0000000000000000000000000000000000000000000000000000000008152600401610ef8906122b1565b60405180910390fd5b6000600260003373ffffffffffffffffffffffffffffffffffffffff1673ffffffffffffffffffffffffffffffffffffffff16815260200190815260200160002060008373ffffffffffffffffffffffffffffffffffffffff1673ffffffffffffffffffffffffffffffffffffffff16815260200190815260200160002060006101000a81548160ff0219169083151502179055508073ffffffffffffffffffffffffffffffffffffffff163373ffffffffffffffffffffffffffffffffffffffff167f825c8be24eb0df19500f63e86c29e7d0d951e73056b889b891d85e40938d9b6e60405160405180910390a350565b60028081111561102c577f4e487b7100000000000000000000000000000000000000000000000000000000600052602160045260246000fd5b600160003373ffffffffffffffffffffffffffffffffffffffff1673ffffffffffffffffffffffffffffffffffffffff16815260200190815260200160002060010160149054906101000a900460ff1660028111156110b4577f4e487b7100000000000000000000000000000000000000000000000000000000600052602160045260246000fd5b146110f4576040517f08c379a00000000000000000000000000000000000000000000000000000000081526004016110eb9061235f565b60405180910390fd5b600160003373ffffffffffffffffffffffffffffffffffffffff1673ffffffffffffffffffffffffffffffffffffffff16815260200190815260200160002060010160159054906101000a900460ff16611183576040517f08c379a000000000000000000000000000000000000000000000000000000000815260040161117a9061233f565b60405180910390fd5b600073ffffffffffffffffffffffffffffffffffffffff168473ffffffffffffffffffffffffffffffffffffffff1614156111f3576040517f08c379a00000000000000000000000000000000000000000000000000000000081526004016111ea90612231565b60405180910390fd5b600160008573ffffffffffffffffffffffffffffffffffffffff1673ffffffffffffffffffffffffffffffffffffffff16815260200190815260200160002060010160159054906101000a900460ff1615611283576040517f08c379a000000000000000000000000000000000000000000000000000000000815260040161127a90612291565b60405180910390fd5b6040518060a001604052808481526020018573ffffffffffffffffffffffffffffffffffffffff1681526020018360028111156112e9577f4e487b7100000000000000000000000000000000000000000000000000000000600052602160045260246000fd5b815260200160011515815260200182815250600160008673ffffffffffffffffffffffffffffffffffffffff1673ffffffffffffffffffffffffffffffffffffffff1681526020019081526020016000206000820151816000019080519060200190611356929190611ab1565b5060208201518160010160006101000a81548173ffffffffffffffffffffffffffffffffffffffff021916908373ffffffffffffffffffffffffffffffffffffffff16021790555060408201518160010160146101000a81548160ff021916908360028111156113ef577f4e487b7100000000000000000000000000000000000000000000000000000000600052602160045260246000fd5b021790555060608201518160010160156101000a81548160ff0219169083151502179055506080820151816002019080519060200190611430929190611ab1565b509050508373ffffffffffffffffffffffffffffffffffffffff167f8897d4c16f6b907647cc92f3b2f80418ac81581b8e74f9dda595d3910b44c862848460405161147c929190612201565b60405180910390a250505050565b60008054906101000a900473ffffffffffffffffffffffffffffffffffffffff1681565b73d9073e73717fca172f29b55a0368ae41de35d23781565b60016020528060005260406000206000915090508060000180546114e990612501565b80601f016020809104026020016040519081016040528092919081815260200182805461151590612501565b80156115625780601f1061153757610100808354040283529160200191611562565b820191906000526020600020905b81548152906001019060200180831161154557829003601f168201915b5050505050908060010160009054906101000a900473ffffffffffffffffffffffffffffffffffffffff16908060010160149054906101000a900460ff16908060010160159054906101000a900460ff16908060020180546115c390612501565b80601f01602080910402602001604051908101604052809291908181526020018280546115ef90612501565b801561163c5780601f106116115761010080835404028352916020019161163c565b820191906000526020600020905b81548152906001019060200180831161161f57829003601f168201915b5050505050905085565b6000600260008473ffffffffffffffffffffffffffffffffffffffff1673ffffffffffffffffffffffffffffffffffffffff16815260200190815260200160002060008373ffffffffffffffffffffffffffffffffffffffff1673ffffffffffffffffffffffffffffffffffffffff16815260200190815260200160002060009054906101000a900460ff16905092915050565b73d9073e73717fca172f29b55a0368ae41de35d23773ffffffffffffffffffffffffffffffffffffffff163373ffffffffffffffffffffffffffffffffffffffff161461175c576040517f08c379a00000000000000000000000000000000000000000000000000000000081526004016117539061239f565b60405180910390fd5b6001600073d9073e73717fca172f29b55a0368ae41de35d23773ffffffffffffffffffffffffffffffffffffffff1673ffffffffffffffffffffffffffffffffffffffff16815260200190815260200160002060010160159054906101000a900460ff1615611800576040517f08c379a00000000000000000000000000000000000000000000000000000000081526004016117f790612271565b60405180910390fd5b6040518060a001604052806040518060400160405280600d81526020017f44656661756c742041646d696e00000000000000000000000000000000000000815250815260200173d9073e73717fca172f29b55a0368ae41de35d23773ffffffffffffffffffffffffffffffffffffffff1681526020016002808111156118af577f4e487b7100000000000000000000000000000000000000000000000000000000600052602160045260246000fd5b8152602001600115158152602001604051806020016040528060008152508152506001600073d9073e73717fca172f29b55a0368ae41de35d23773ffffffffffffffffffffffffffffffffffffffff1673ffffffffffffffffffffffffffffffffffffffff168152602001908152602001600020600082015181600001908051906020019061193f929190611ab1565b5060208201518160010160006101000a81548173ffffffffffffffffffffffffffffffffffffffff021916908373ffffffffffffffffffffffffffffffffffffffff16021790555060408201518160010160146101000a81548160ff021916908360028111156119d8577f4e487b7100000000000000000000000000000000000000000000000000000000600052602160045260246000fd5b021790555060608201518160010160156101000a81548160ff0219169083151502179055506080820151816002019080519060200190611a19929190611ab1565b5090505073d9073e73717fca172f29b55a0368ae41de35d23773ffffffffffffffffffffffffffffffffffffffff167f8897d4c16f6b907647cc92f3b2f80418ac81581b8e74f9dda595d3910b44c8626002604051611a7891906122d1565b60405180910390a2565b60026020528160005260406000206020528060005260406000206000915091509054906101000a900460ff1681565b828054611abd90612501565b90600052602060002090601f016020900481019282611adf5760008555611b26565b82601f10611af857805160ff1916838001178555611b26565b82800160010185558215611b26579182015b82811115611b25578251825591602001919060010190611b0a565b5b509050611b339190611b37565b5090565b5b80821115611b50576000816000905550600101611b38565b5090565b6000611b67611b6284612410565b6123df565b905082815260208101848484011115611b7f57600080fd5b611b8a8482856124bf565b509392505050565b600081359050611ba1816125e5565b92915050565b600081359050611bb6816125fc565b92915050565b600082601f830112611bcd57600080fd5b8135611bdd848260208601611b54565b91505092915050565b600060208284031215611bf857600080fd5b6000611c0684828501611b92565b91505092915050565b60008060408385031215611c2257600080fd5b6000611c3085828601611b92565b9250506020611c4185828601611b92565b9150509250929050565b60008060008060808587031215611c6157600080fd5b6000611c6f87828801611b92565b945050602085013567ffffffffffffffff811115611c8c57600080fd5b611c9887828801611bbc565b9350506040611ca987828801611ba7565b925050606085013567ffffffffffffffff811115611cc657600080fd5b611cd287828801611bbc565b91505092959194509250565b600080600060608486031215611cf357600080fd5b6000611d0186828701611b92565b935050602084013567ffffffffffffffff811115611d1e57600080fd5b611d2a86828701611bbc565b925050604084013567ffffffffffffffff811115611d4757600080fd5b611d5386828701611bbc565b9150509250925092565b611d668161245c565b82525050565b611d758161246e565b82525050565b611d84816124ad565b82525050565b6000611d9582612440565b611d9f818561244b565b9350611daf8185602086016124ce565b611db8816125c0565b840191505092915050565b6000611dd0600f8361244b565b91507f496e76616c6964206164647265737300000000000000000000000000000000006000830152602082019050919050565b6000611e1060168361244b565b91507f496e76616c696420646f63746f722061646472657373000000000000000000006000830152602082019050919050565b6000611e50601c8361244b565b91507f44656661756c742061646d696e20616c726561647920657869737473000000006000830152602082019050919050565b6000611e9060138361244b565b91507f5573657220616c726561647920657869737473000000000000000000000000006000830152602082019050919050565b6000611ed0601d8361244b565b91507f50617469656e74206163636f756e74206973206e6f74206163746976650000006000830152602082019050919050565b6000611f10600d8361244b565b91507f44656661756c742041646d696e000000000000000000000000000000000000006000830152602082019050919050565b6000611f5060248361244b565b91507f4f6e6c792070617469656e742063616e20706572666f726d207468697320616360008301527f74696f6e000000000000000000000000000000000000000000000000000000006020830152604082019050919050565b6000611fb6601b8361244b565b91507f43616e6e6f742064656c6574652064656661756c742061646d696e00000000006000830152602082019050919050565b6000611ff6601b8361244b565b91507f41646d696e206163636f756e74206973206e6f742061637469766500000000006000830152602082019050919050565b600061203660228361244b565b91507f4f6e6c792061646d696e2063616e20706572666f726d2074686973206163746960008301527f6f6e0000000000000000000000000000000000000000000000000000000000006020830152604082019050919050565b600061209c60138361244b565b91507f5573657220646f6573206e6f74206578697374000000000000000000000000006000830152602082019050919050565b60006120dc60208361244b565b91507f4f6e6c792064656661756c742061646d696e2063616e2063616c6c20746869736000830152602082019050919050565b600061211c60148361244b565b91507f446f63746f72206973206e6f74206163746976650000000000000000000000006000830152602082019050919050565b60006020820190506121646000830184611d5d565b92915050565b600060208201905061217f6000830184611d6c565b92915050565b600060208201905061219a6000830184611d7b565b92915050565b600060a08201905081810360008301526121ba8188611d8a565b90506121c96020830187611d5d565b6121d66040830186611d7b565b6121e36060830185611d6c565b81810360808301526121f58184611d8a565b90509695505050505050565b6000604082019050818103600083015261221b8185611d8a565b905061222a6020830184611d7b565b9392505050565b6000602082019050818103600083015261224a81611dc3565b9050919050565b6000602082019050818103600083015261226a81611e03565b9050919050565b6000602082019050818103600083015261228a81611e43565b9050919050565b600060208201905081810360008301526122aa81611e83565b9050919050565b600060208201905081810360008301526122ca81611ec3565b9050919050565b600060408201905081810360008301526122ea81611f03565b90506122f96020830184611d7b565b92915050565b6000602082019050818103600083015261231881611f43565b9050919050565b6000602082019050818103600083015261233881611fa9565b9050919050565b6000602082019050818103600083015261235881611fe9565b9050919050565b6000602082019050818103600083015261237881612029565b9050919050565b600060208201905081810360008301526123988161208f565b9050919050565b600060208201905081810360008301526123b8816120cf565b9050919050565b600060208201905081810360008301526123d88161210f565b9050919050565b6000604051905081810181811067ffffffffffffffff8211171561240657612405612591565b5b8060405250919050565b600067ffffffffffffffff82111561242b5761242a612591565b5b601f19601f8301169050602081019050919050565b600081519050919050565b600082825260208201905092915050565b60006124678261248d565b9050919050565b60008115159050919050565b6000819050612488826125d1565b919050565b600073ffffffffffffffffffffffffffffffffffffffff82169050919050565b60006124b88261247a565b9050919050565b82818337600083830152505050565b60005b838110156124ec5780820151818401526020810190506124d1565b838111156124fb576000848401525b50505050565b6000600282049050600182168061251957607f821691505b6020821081141561252d5761252c612562565b5b50919050565b7f4e487b7100000000000000000000000000000000000000000000000000000000600052602160045260246000fd5b7f4e487b7100000000000000000000000000000000000000000000000000000000600052602260045260246000fd5b7f4e487b7100000000000000000000000000000000000000000000000000000000600052604160045260246000fd5b6000601f19601f8301169050919050565b600381106125e2576125e1612533565b5b50565b6125ee8161245c565b81146125f957600080fd5b50565b6003811061260957600080fd5b5056fea264697066735822122036640241f59fc840df1053093af51f484ef4a0f219ee7b8dcf3bc7b74b15eb7e64736f6c63430008000033",
  "immutableReferences": {},
  "source": "// SPDX-License-Identifier: MIT\npragma solidity ^0.8.0;\n\ncontract HealthRecord {\n    // Enum for user roles\n    enum Role { Patient, Doctor, Admin }\n    \n    // Struct for user details\n    struct User {\n        string name;\n        address userAddress;\n        Role role;\n        bool isActive;\n        string ipfsHash;\n    }\n    \n    // State variables\n    address public owner;\n    address public constant DEFAULT_ADMIN = 0xD9073E73717FCA172f29B55A0368ae41De35D237;\n    mapping(address => User) public users;\n    mapping(address => mapping(address => bool)) public doctorAccess;\n    \n    // Events\n    event UserAdded(address indexed userAddress, string name, Role role);\n    event UserUpdated(address indexed userAddress, string name, Role role);\n    event UserDeleted(address indexed userAddress);\n    event AccessGranted(address indexed patient, address indexed doctor);\n    event AccessRevoked(address indexed patient, address indexed doctor);\n    \n    // Modifiers\n    modifier onlyAdmin() {\n        require(users[msg.sender].role == Role.Admin, \"Only admin can perform this action\");\n        require(users[msg.sender].isActive, \"Admin account is not active\");\n        _;\n    }\n    \n    modifier onlyDoctor() {\n        require(users[msg.sender].role == Role.Doctor, \"Only doctor can perform this action\");\n        require(users[msg.sender].isActive, \"Doctor account is not active\");\n        _;\n    }\n    \n    modifier onlyPatient() {\n        require(users[msg.sender].role == Role.Patient, \"Only patient can perform this action\");\n        require(users[msg.sender].isActive, \"Patient account is not active\");\n        _;\n    }\n    \n    // Constructor\n    constructor() {\n        owner = msg.sender;\n        // Add contract deployer as admin if it's the default admin address\n        if (msg.sender == DEFAULT_ADMIN) {\n            users[msg.sender] = User(\"Default Admin\", msg.sender, Role.Admin, true, \"\");\n            emit UserAdded(msg.sender, \"Default Admin\", Role.Admin);\n        }\n    }\n    \n    // Admin functions\n    function addUser(\n        address _userAddress,\n        string memory _name,\n        Role _role,\n        string memory _ipfsHash\n    ) public onlyAdmin {\n        require(_userAddress != address(0), \"Invalid address\");\n        require(!users[_userAddress].isActive, \"User already exists\");\n        \n        users[_userAddress] = User(_name, _userAddress, _role, true, _ipfsHash);\n        emit UserAdded(_userAddress, _name, _role);\n    }\n    \n    function updateUser(\n        address _userAddress,\n        string memory _name,\n        string memory _ipfsHash\n    ) public onlyAdmin {\n        require(users[_userAddress].isActive, \"User does not exist\");\n        \n        users[_userAddress].name = _name;\n        users[_userAddress].ipfsHash = _ipfsHash;\n        emit UserUpdated(_userAddress, _name, users[_userAddress].role);\n    }\n    \n    function deleteUser(address _userAddress) public onlyAdmin {\n        require(users[_userAddress].isActive, \"User does not exist\");\n        require(_userAddress != DEFAULT_ADMIN, \"Cannot delete default admin\");\n        users[_userAddress].isActive = false;\n        emit UserDeleted(_userAddress);\n    }\n    \n    // Patient functions\n    function grantAccessToDoctor(address _doctorAddress) public onlyPatient {\n        require(users[_doctorAddress].role == Role.Doctor, \"Invalid doctor address\");\n        require(users[_doctorAddress].isActive, \"Doctor is not active\");\n        \n        doctorAccess[msg.sender][_doctorAddress] = true;\n        emit AccessGranted(msg.sender, _doctorAddress);\n    }\n    \n    function revokeAccessFromDoctor(address _doctorAddress) public onlyPatient {\n        doctorAccess[msg.sender][_doctorAddress] = false;\n        emit AccessRevoked(msg.sender, _doctorAddress);\n    }\n    \n    // View functions\n    function getUserRole(address _userAddress) public view returns (Role) {\n        return users[_userAddress].role;\n    }\n    \n    function checkDoctorAccess(address _patientAddress, address _doctorAddress) \n        public \n        view \n        returns (bool) \n    {\n        return doctorAccess[_patientAddress][_doctorAddress];\n    }\n\n    // Emergency admin function\n    function addDefaultAdmin() public {\n        require(msg.sender == DEFAULT_ADMIN, \"Only default admin can call this\");\n        require(!users[DEFAULT_ADMIN].isActive, \"Default admin already exists\");\n        \n        users[DEFAULT_ADMIN] = User(\"Default Admin\", DEFAULT_ADMIN, Role.Admin, true, \"\");\n        emit UserAdded(DEFAULT_ADMIN, \"Default Admin\", Role.Admin);\n    }\n}\n",
  "sourcePath": "c:\\Users\\antho\\CascadeProjects\\windsurf-project\\contracts\\HealthRecord.sol",
  "compiler": {
    "name": "solc",
    "version": "0.8.0+commit.c7dfd78e.Emscripten.clang"
  },
  "schemaVersion": "3.4.16",
  "updatedAt": "2024-11-24T07:21:27.728Z",
  "networkType": "ethereum",
  "devdoc": {
    "kind": "dev",
    "methods": {},
    "version": 1
  },
  "userdoc": {
    "kind": "user",
    "methods": {},
    "version": 1
  }
}