{
  "contractName": "HealthRecord",
  "abi": [
    {
      "inputs": [],
      "stateMutability": "nonpayable",
      "type": "constructor"
    },
    {
      "anonymous": false,
      "inputs": [
        {
          "indexed": true,
          "internalType": "address",
          "name": "patient",
          "type": "address"
        },
        {
          "indexed": true,
          "internalType": "address",
          "name": "doctor",
          "type": "address"
        }
      ],
      "name": "AccessGranted",
      "type": "event"
    },
    {
      "anonymous": false,
      "inputs": [
        {
          "indexed": true,
          "internalType": "address",
          "name": "patient",
          "type": "address"
        },
        {
          "indexed": true,
          "internalType": "address",
          "name": "doctor",
          "type": "address"
        }
      ],
      "name": "AccessRequested",
      "type": "event"
    },
    {
      "anonymous": false,
      "inputs": [
        {
          "indexed": true,
          "internalType": "address",
          "name": "patient",
          "type": "address"
        },
        {
          "indexed": true,
          "internalType": "address",
          "name": "doctor",
          "type": "address"
        }
      ],
      "name": "AccessRevoked",
      "type": "event"
    },
    {
      "anonymous": false,
      "inputs": [
        {
          "indexed": true,
          "internalType": "address",
          "name": "patient",
          "type": "address"
        },
        {
          "indexed": false,
          "internalType": "string",
          "name": "name",
          "type": "string"
        },
        {
          "indexed": false,
          "internalType": "string",
          "name": "ipfsHash",
          "type": "string"
        },
        {
          "indexed": true,
          "internalType": "address",
          "name": "uploadedBy",
          "type": "address"
        }
      ],
      "name": "DocumentAdded",
      "type": "event"
    },
    {
      "anonymous": false,
      "inputs": [
        {
          "indexed": true,
          "internalType": "address",
          "name": "patient",
          "type": "address"
        },
        {
          "indexed": true,
          "internalType": "address",
          "name": "doctor",
          "type": "address"
        }
      ],
      "name": "RequestRejected",
      "type": "event"
    },
    {
      "anonymous": false,
      "inputs": [
        {
          "indexed": true,
          "internalType": "address",
          "name": "userAddress",
          "type": "address"
        },
        {
          "indexed": false,
          "internalType": "string",
          "name": "name",
          "type": "string"
        },
        {
          "indexed": false,
          "internalType": "enum HealthRecord.Role",
          "name": "role",
          "type": "uint8"
        }
      ],
      "name": "UserAdded",
      "type": "event"
    },
    {
      "anonymous": false,
      "inputs": [
        {
          "indexed": true,
          "internalType": "address",
          "name": "userAddress",
          "type": "address"
        }
      ],
      "name": "UserDeleted",
      "type": "event"
    },
    {
      "anonymous": false,
      "inputs": [
        {
          "indexed": true,
          "internalType": "address",
          "name": "userAddress",
          "type": "address"
        },
        {
          "indexed": false,
          "internalType": "string",
          "name": "name",
          "type": "string"
        },
        {
          "indexed": false,
          "internalType": "enum HealthRecord.Role",
          "name": "role",
          "type": "uint8"
        }
      ],
      "name": "UserUpdated",
      "type": "event"
    },
    {
      "inputs": [],
      "name": "DEFAULT_ADMIN",
      "outputs": [
        {
          "internalType": "address",
          "name": "",
          "type": "address"
        }
      ],
      "stateMutability": "view",
      "type": "function"
    },
    {
      "inputs": [
        {
          "internalType": "address",
          "name": "",
          "type": "address"
        },
        {
          "internalType": "address",
          "name": "",
          "type": "address"
        }
      ],
      "name": "accessRequests",
      "outputs": [
        {
          "internalType": "bool",
          "name": "",
          "type": "bool"
        }
      ],
      "stateMutability": "view",
      "type": "function"
    },
    {
      "inputs": [
        {
          "internalType": "address",
          "name": "",
          "type": "address"
        },
        {
          "internalType": "uint256",
          "name": "",
          "type": "uint256"
        }
      ],
      "name": "authorizedDoctorsList",
      "outputs": [
        {
          "internalType": "address",
          "name": "",
          "type": "address"
        }
      ],
      "stateMutability": "view",
      "type": "function"
    },
    {
      "inputs": [
        {
          "internalType": "address",
          "name": "",
          "type": "address"
        },
        {
          "internalType": "address",
          "name": "",
          "type": "address"
        }
      ],
      "name": "doctorAccess",
      "outputs": [
        {
          "internalType": "bool",
          "name": "",
          "type": "bool"
        }
      ],
      "stateMutability": "view",
      "type": "function"
    },
    {
      "inputs": [],
      "name": "owner",
      "outputs": [
        {
          "internalType": "address",
          "name": "",
          "type": "address"
        }
      ],
      "stateMutability": "view",
      "type": "function"
    },
    {
      "inputs": [
        {
          "internalType": "address",
          "name": "",
          "type": "address"
        },
        {
          "internalType": "uint256",
          "name": "",
          "type": "uint256"
        }
      ],
      "name": "patientDocuments",
      "outputs": [
        {
          "internalType": "string",
          "name": "name",
          "type": "string"
        },
        {
          "internalType": "string",
          "name": "ipfsHash",
          "type": "string"
        },
        {
          "internalType": "uint256",
          "name": "timestamp",
          "type": "uint256"
        },
        {
          "internalType": "address",
          "name": "uploadedBy",
          "type": "address"
        }
      ],
      "stateMutability": "view",
      "type": "function"
    },
    {
      "inputs": [
        {
          "internalType": "address",
          "name": "",
          "type": "address"
        },
        {
          "internalType": "uint256",
          "name": "",
          "type": "uint256"
        }
      ],
      "name": "pendingRequests",
      "outputs": [
        {
          "internalType": "address",
          "name": "",
          "type": "address"
        }
      ],
      "stateMutability": "view",
      "type": "function"
    },
    {
      "inputs": [
        {
          "internalType": "address",
          "name": "",
          "type": "address"
        }
      ],
      "name": "users",
      "outputs": [
        {
          "internalType": "string",
          "name": "name",
          "type": "string"
        },
        {
          "internalType": "address",
          "name": "userAddress",
          "type": "address"
        },
        {
          "internalType": "enum HealthRecord.Role",
          "name": "role",
          "type": "uint8"
        },
        {
          "internalType": "bool",
          "name": "isActive",
          "type": "bool"
        },
        {
          "internalType": "string",
          "name": "ipfsHash",
          "type": "string"
        }
      ],
      "stateMutability": "view",
      "type": "function"
    },
    {
      "inputs": [
        {
          "internalType": "address",
          "name": "_userAddress",
          "type": "address"
        },
        {
          "internalType": "string",
          "name": "_name",
          "type": "string"
        },
        {
          "internalType": "enum HealthRecord.Role",
          "name": "_role",
          "type": "uint8"
        },
        {
          "internalType": "string",
          "name": "_ipfsHash",
          "type": "string"
        }
      ],
      "name": "addUser",
      "outputs": [],
      "stateMutability": "nonpayable",
      "type": "function"
    },
    {
      "inputs": [
        {
          "internalType": "address",
          "name": "_userAddress",
          "type": "address"
        },
        {
          "internalType": "string",
          "name": "_name",
          "type": "string"
        },
        {
          "internalType": "string",
          "name": "_ipfsHash",
          "type": "string"
        }
      ],
      "name": "updateUser",
      "outputs": [],
      "stateMutability": "nonpayable",
      "type": "function"
    },
    {
      "inputs": [
        {
          "internalType": "address",
          "name": "_userAddress",
          "type": "address"
        }
      ],
      "name": "deleteUser",
      "outputs": [],
      "stateMutability": "nonpayable",
      "type": "function"
    },
    {
      "inputs": [
        {
          "internalType": "address",
          "name": "_patientAddress",
          "type": "address"
        }
      ],
      "name": "requestAccess",
      "outputs": [],
      "stateMutability": "nonpayable",
      "type": "function"
    },
    {
      "inputs": [
        {
          "internalType": "address",
          "name": "_patientAddress",
          "type": "address"
        }
      ],
      "name": "getPendingRequests",
      "outputs": [
        {
          "internalType": "address[]",
          "name": "",
          "type": "address[]"
        }
      ],
      "stateMutability": "view",
      "type": "function"
    },
    {
      "inputs": [
        {
          "internalType": "address",
          "name": "_doctorAddress",
          "type": "address"
        }
      ],
      "name": "grantAccessToDoctor",
      "outputs": [],
      "stateMutability": "nonpayable",
      "type": "function"
    },
    {
      "inputs": [
        {
          "internalType": "address",
          "name": "_doctorAddress",
          "type": "address"
        }
      ],
      "name": "revokeAccessFromDoctor",
      "outputs": [],
      "stateMutability": "nonpayable",
      "type": "function"
    },
    {
      "inputs": [
        {
          "internalType": "address",
          "name": "_doctorAddress",
          "type": "address"
        }
      ],
      "name": "rejectAccessRequest",
      "outputs": [],
      "stateMutability": "nonpayable",
      "type": "function"
    },
    {
      "inputs": [
        {
          "internalType": "address",
          "name": "_patientAddress",
          "type": "address"
        },
        {
          "internalType": "string",
          "name": "_name",
          "type": "string"
        },
        {
          "internalType": "string",
          "name": "_ipfsHash",
          "type": "string"
        }
      ],
      "name": "addDocument",
      "outputs": [],
      "stateMutability": "nonpayable",
      "type": "function"
    },
    {
      "inputs": [
        {
          "internalType": "address",
          "name": "_patientAddress",
          "type": "address"
        }
      ],
      "name": "getDocuments",
      "outputs": [
        {
          "components": [
            {
              "internalType": "string",
              "name": "name",
              "type": "string"
            },
            {
              "internalType": "string",
              "name": "ipfsHash",
              "type": "string"
            },
            {
              "internalType": "uint256",
              "name": "timestamp",
              "type": "uint256"
            },
            {
              "internalType": "address",
              "name": "uploadedBy",
              "type": "address"
            }
          ],
          "internalType": "struct HealthRecord.Document[]",
          "name": "",
          "type": "tuple[]"
        }
      ],
      "stateMutability": "view",
      "type": "function"
    },
    {
      "inputs": [
        {
          "internalType": "address",
          "name": "_userAddress",
          "type": "address"
        }
      ],
      "name": "getUserRole",
      "outputs": [
        {
          "internalType": "enum HealthRecord.Role",
          "name": "",
          "type": "uint8"
        }
      ],
      "stateMutability": "view",
      "type": "function"
    },
    {
      "inputs": [
        {
          "internalType": "address",
          "name": "_patientAddress",
          "type": "address"
        },
        {
          "internalType": "address",
          "name": "_doctorAddress",
          "type": "address"
        }
      ],
      "name": "checkDoctorAccess",
      "outputs": [
        {
          "internalType": "bool",
          "name": "",
          "type": "bool"
        }
      ],
      "stateMutability": "view",
      "type": "function"
    },
    {
      "inputs": [
        {
          "internalType": "address",
          "name": "_patientAddress",
          "type": "address"
        }
      ],
      "name": "getAuthorizedDoctors",
      "outputs": [
        {
          "internalType": "address[]",
          "name": "",
          "type": "address[]"
        }
      ],
      "stateMutability": "view",
      "type": "function"
    },
    {
      "inputs": [],
      "name": "addDefaultAdmin",
      "outputs": [],
      "stateMutability": "nonpayable",
      "type": "function"
    }
  ],
  "bytecode": "0x60806040523480156200001157600080fd5b50336000806101000a81548173ffffffffffffffffffffffffffffffffffffffff021916908373ffffffffffffffffffffffffffffffffffffffff16021790555073d9073e73717fca172f29b55a0368ae41de35d23773ffffffffffffffffffffffffffffffffffffffff163373ffffffffffffffffffffffffffffffffffffffff161415620002e8576040518060a001604052806040518060400160405280600d81526020017f44656661756c742041646d696e0000000000000000000000000000000000000081525081526020013373ffffffffffffffffffffffffffffffffffffffff16815260200160028081111562000137577f4e487b7100000000000000000000000000000000000000000000000000000000600052602160045260246000fd5b815260200160011515815260200160405180602001604052806000815250815250600160003373ffffffffffffffffffffffffffffffffffffffff1673ffffffffffffffffffffffffffffffffffffffff1681526020019081526020016000206000820151816000019080519060200190620001b5929190620002ee565b5060208201518160010160006101000a81548173ffffffffffffffffffffffffffffffffffffffff021916908373ffffffffffffffffffffffffffffffffffffffff16021790555060408201518160010160146101000a81548160ff021916908360028111156200024f577f4e487b7100000000000000000000000000000000000000000000000000000000600052602160045260246000fd5b021790555060608201518160010160156101000a81548160ff021916908315150217905550608082015181600201908051906020019062000292929190620002ee565b509050503373ffffffffffffffffffffffffffffffffffffffff167f8897d4c16f6b907647cc92f3b2f80418ac81581b8e74f9dda595d3910b44c8626002604051620002df9190620003f1565b60405180910390a25b62000508565b828054620002fc906200045d565b90600052602060002090601f0160209004810192826200032057600085556200036c565b82601f106200033b57805160ff19168380011785556200036c565b828001600101855582156200036c579182015b828111156200036b5782518255916020019190600101906200034e565b5b5090506200037b91906200037f565b5090565b5b808211156200039a57600081600090555060010162000380565b5090565b620003a98162000449565b82525050565b6000620003be600d8362000423565b91507f44656661756c742041646d696e000000000000000000000000000000000000006000830152602082019050919050565b600060408201905081810360008301526200040c81620003af565b90506200041d60208301846200039e565b92915050565b600082825260208201905092915050565b60008190506200044482620004f1565b919050565b6000620004568262000434565b9050919050565b600060028204905060018216806200047657607f821691505b602082108114156200048d576200048c620004c2565b5b50919050565b7f4e487b7100000000000000000000000000000000000000000000000000000000600052602160045260246000fd5b7f4e487b7100000000000000000000000000000000000000000000000000000000600052602260045260246000fd5b6003811062000505576200050462000493565b5b50565b61636880620005186000396000f3fe608060405234801561001057600080fd5b50600436106101425760003560e01c8063a87430ba116100b8578063b687e3c21161007c578063b687e3c2146103b2578063cbf8a64b146103ce578063d55f5247146103fe578063e68ddac81461041a578063f05bfa7b14610424578063fe127fcb1461045457610142565b8063a87430ba146102bb578063ab4f2329146102ef578063b2d566c11461031f578063b42e7b231461034f578063b51c17b91461038257610142565b8063488ff1c81161010a578063488ff1c8146101fb5780635c60f2261461022b578063629e559d1461024757806365a410a3146102635780638da5cb5b1461027f5780639cdeba951461029d57610142565b8063022cb2711461014757806310e8b22d146101635780631c8e251c1461017f578063278208511461019b57806327f50a2d146101cb575b600080fd5b610161600480360381019061015c9190615171565b610484565b005b61017d60048036038101906101789190615269565b610a3d565b005b61019960048036038101906101949190615171565b610dae565b005b6101b560048036038101906101b09190615171565b611862565b6040516101c29190615bd1565b60405180910390f35b6101e560048036038101906101e09190615171565b6118bb565b6040516101f29190615b94565b60405180910390f35b610215600480360381019061021091906152e8565b611ca7565b6040516102229190615b57565b60405180910390f35b61024560048036038101906102409190615171565b611cf5565b005b610261600480360381019061025c9190615171565b6128a1565b005b61027d600480360381019061027891906151d6565b612eb8565b005b610287613970565b6040516102949190615b57565b60405180910390f35b6102a5613994565b6040516102b29190615b57565b60405180910390f35b6102d560048036038101906102d09190615171565b6139ac565b6040516102e6959493929190615bec565b60405180910390f35b6103096004803603810190610304919061519a565b613b2c565b6040516103169190615bb6565b60405180910390f35b6103396004803603810190610334919061519a565b613b5b565b6040516103469190615bb6565b60405180910390f35b610369600480360381019061036491906152e8565b613bef565b6040516103799493929190615cb4565b60405180910390f35b61039c600480360381019061039791906152e8565b613d6c565b6040516103a99190615b57565b60405180910390f35b6103cc60048036038101906103c79190615269565b613dba565b005b6103e860048036038101906103e39190615171565b6142b3565b6040516103f59190615b72565b60405180910390f35b61041860048036038101906104139190615171565b614380565b005b610422614b62565b005b61043e60048036038101906104399190615171565b614f0a565b60405161044b9190615b72565b60405180910390f35b61046e6004803603810190610469919061519a565b614fd7565b60405161047b9190615bb6565b60405180910390f35b600160028111156104be577f4e487b7100000000000000000000000000000000000000000000000000000000600052602160045260246000fd5b600160003373ffffffffffffffffffffffffffffffffffffffff1673ffffffffffffffffffffffffffffffffffffffff16815260200190815260200160002060010160149054906101000a900460ff166002811115610546577f4e487b7100000000000000000000000000000000000000000000000000000000600052602160045260246000fd5b14610586576040517f08c379a000000000000000000000000000000000000000000000000000000000815260040161057d90615f35565b60405180910390fd5b600160003373ffffffffffffffffffffffffffffffffffffffff1673ffffffffffffffffffffffffffffffffffffffff16815260200190815260200160002060010160159054906101000a900460ff16610615576040517f08c379a000000000000000000000000000000000000000000000000000000000815260040161060c90615dc7565b60405180910390fd5b6000600281111561064f577f4e487b7100000000000000000000000000000000000000000000000000000000600052602160045260246000fd5b600160008373ffffffffffffffffffffffffffffffffffffffff1673ffffffffffffffffffffffffffffffffffffffff16815260200190815260200160002060010160149054906101000a900460ff1660028111156106d7577f4e487b7100000000000000000000000000000000000000000000000000000000600052602160045260246000fd5b14610717576040517f08c379a000000000000000000000000000000000000000000000000000000000815260040161070e90615da7565b60405180910390fd5b600260008273ffffffffffffffffffffffffffffffffffffffff1673ffffffffffffffffffffffffffffffffffffffff16815260200190815260200160002060003373ffffffffffffffffffffffffffffffffffffffff1673ffffffffffffffffffffffffffffffffffffffff16815260200190815260200160002060009054906101000a900460ff16156107e1576040517f08c379a00000000000000000000000000000000000000000000000000000000081526004016107d890615d87565b60405180910390fd5b600460008273ffffffffffffffffffffffffffffffffffffffff1673ffffffffffffffffffffffffffffffffffffffff16815260200190815260200160002060003373ffffffffffffffffffffffffffffffffffffffff1673ffffffffffffffffffffffffffffffffffffffff16815260200190815260200160002060009054906101000a900460ff16156108ab576040517f08c379a00000000000000000000000000000000000000000000000000000000081526004016108a290615eb5565b60405180910390fd5b6001600460008373ffffffffffffffffffffffffffffffffffffffff1673ffffffffffffffffffffffffffffffffffffffff16815260200190815260200160002060003373ffffffffffffffffffffffffffffffffffffffff1673ffffffffffffffffffffffffffffffffffffffff16815260200190815260200160002060006101000a81548160ff021916908315150217905550600560008273ffffffffffffffffffffffffffffffffffffffff1673ffffffffffffffffffffffffffffffffffffffff168152602001908152602001600020339080600181540180825580915050600190039060005260206000200160009091909190916101000a81548173ffffffffffffffffffffffffffffffffffffffff021916908373ffffffffffffffffffffffffffffffffffffffff1602179055503373ffffffffffffffffffffffffffffffffffffffff168173ffffffffffffffffffffffffffffffffffffffff167f40c7749b16fdfb0d550f20273a7767875059d647af94f5a9610c63ad73dcc79f60405160405180910390a350565b600280811115610a76577f4e487b7100000000000000000000000000000000000000000000000000000000600052602160045260246000fd5b600160003373ffffffffffffffffffffffffffffffffffffffff1673ffffffffffffffffffffffffffffffffffffffff16815260200190815260200160002060010160149054906101000a900460ff166002811115610afe577f4e487b7100000000000000000000000000000000000000000000000000000000600052602160045260246000fd5b14610b3e576040517f08c379a0000000000000000000000000000000000000000000000000000000008152600401610b3590615ef5565b60405180910390fd5b600160003373ffffffffffffffffffffffffffffffffffffffff1673ffffffffffffffffffffffffffffffffffffffff16815260200190815260200160002060010160159054906101000a900460ff16610bcd576040517f08c379a0000000000000000000000000000000000000000000000000000000008152600401610bc490615ed5565b60405180910390fd5b600160008473ffffffffffffffffffffffffffffffffffffffff1673ffffffffffffffffffffffffffffffffffffffff16815260200190815260200160002060010160159054906101000a900460ff16610c5c576040517f08c379a0000000000000000000000000000000000000000000000000000000008152600401610c5390615f15565b60405180910390fd5b81600160008573ffffffffffffffffffffffffffffffffffffffff1673ffffffffffffffffffffffffffffffffffffffff1681526020019081526020016000206000019080519060200190610cb2929190615006565b5080600160008573ffffffffffffffffffffffffffffffffffffffff1673ffffffffffffffffffffffffffffffffffffffff1681526020019081526020016000206002019080519060200190610d09929190615006565b508273ffffffffffffffffffffffffffffffffffffffff167fefdadc7a28168743850ed04edc06f2f26eca08d86d4e5877b355f1eecb3d2bca83600160008773ffffffffffffffffffffffffffffffffffffffff1673ffffffffffffffffffffffffffffffffffffffff16815260200190815260200160002060010160149054906101000a900460ff16604051610da1929190615c4d565b60405180910390a2505050565b60006002811115610de8577f4e487b7100000000000000000000000000000000000000000000000000000000600052602160045260246000fd5b600160003373ffffffffffffffffffffffffffffffffffffffff1673ffffffffffffffffffffffffffffffffffffffff16815260200190815260200160002060010160149054906101000a900460ff166002811115610e70577f4e487b7100000000000000000000000000000000000000000000000000000000600052602160045260246000fd5b14610eb0576040517f08c379a0000000000000000000000000000000000000000000000000000000008152600401610ea790615e35565b60405180910390fd5b600160003373ffffffffffffffffffffffffffffffffffffffff1673ffffffffffffffffffffffffffffffffffffffff16815260200190815260200160002060010160159054906101000a900460ff16610f3f576040517f08c379a0000000000000000000000000000000000000000000000000000000008152600401610f3690615de7565b60405180910390fd5b60016002811115610f79577f4e487b7100000000000000000000000000000000000000000000000000000000600052602160045260246000fd5b600160008373ffffffffffffffffffffffffffffffffffffffff1673ffffffffffffffffffffffffffffffffffffffff16815260200190815260200160002060010160149054906101000a900460ff166002811115611001577f4e487b7100000000000000000000000000000000000000000000000000000000600052602160045260246000fd5b14611041576040517f08c379a000000000000000000000000000000000000000000000000000000000815260040161103890615d47565b60405180910390fd5b600160008273ffffffffffffffffffffffffffffffffffffffff1673ffffffffffffffffffffffffffffffffffffffff16815260200190815260200160002060010160159054906101000a900460ff166110d0576040517f08c379a00000000000000000000000000000000000000000000000000000000081526004016110c790615f95565b60405180910390fd5b6001600260003373ffffffffffffffffffffffffffffffffffffffff1673ffffffffffffffffffffffffffffffffffffffff16815260200190815260200160002060008373ffffffffffffffffffffffffffffffffffffffff1673ffffffffffffffffffffffffffffffffffffffff16815260200190815260200160002060006101000a81548160ff0219169083151502179055506000805b600360003373ffffffffffffffffffffffffffffffffffffffff1673ffffffffffffffffffffffffffffffffffffffff168152602001908152602001600020805490508110156112a4578273ffffffffffffffffffffffffffffffffffffffff16600360003373ffffffffffffffffffffffffffffffffffffffff1673ffffffffffffffffffffffffffffffffffffffff1681526020019081526020016000208281548110611241577f4e487b7100000000000000000000000000000000000000000000000000000000600052603260045260246000fd5b9060005260206000200160009054906101000a900473ffffffffffffffffffffffffffffffffffffffff1673ffffffffffffffffffffffffffffffffffffffff16141561129157600191506112a4565b808061129c906161ca565b915050611169565b508061134b57600360003373ffffffffffffffffffffffffffffffffffffffff1673ffffffffffffffffffffffffffffffffffffffff168152602001908152602001600020829080600181540180825580915050600190039060005260206000200160009091909190916101000a81548173ffffffffffffffffffffffffffffffffffffffff021916908373ffffffffffffffffffffffffffffffffffffffff1602179055505b600460003373ffffffffffffffffffffffffffffffffffffffff1673ffffffffffffffffffffffffffffffffffffffff16815260200190815260200160002060008373ffffffffffffffffffffffffffffffffffffffff1673ffffffffffffffffffffffffffffffffffffffff16815260200190815260200160002060009054906101000a900460ff1615611804576000600460003373ffffffffffffffffffffffffffffffffffffffff1673ffffffffffffffffffffffffffffffffffffffff16815260200190815260200160002060008473ffffffffffffffffffffffffffffffffffffffff1673ffffffffffffffffffffffffffffffffffffffff16815260200190815260200160002060006101000a81548160ff02191690831515021790555060005b600560003373ffffffffffffffffffffffffffffffffffffffff1673ffffffffffffffffffffffffffffffffffffffff16815260200190815260200160002080549050811015611802578273ffffffffffffffffffffffffffffffffffffffff16600560003373ffffffffffffffffffffffffffffffffffffffff1673ffffffffffffffffffffffffffffffffffffffff168152602001908152602001600020828154811061154a577f4e487b7100000000000000000000000000000000000000000000000000000000600052603260045260246000fd5b9060005260206000200160009054906101000a900473ffffffffffffffffffffffffffffffffffffffff1673ffffffffffffffffffffffffffffffffffffffff1614156117ef57600560003373ffffffffffffffffffffffffffffffffffffffff1673ffffffffffffffffffffffffffffffffffffffff1681526020019081526020016000206001600560003373ffffffffffffffffffffffffffffffffffffffff1673ffffffffffffffffffffffffffffffffffffffff1681526020019081526020016000208054905061161f91906160b5565b81548110611656577f4e487b7100000000000000000000000000000000000000000000000000000000600052603260045260246000fd5b9060005260206000200160009054906101000a900473ffffffffffffffffffffffffffffffffffffffff16600560003373ffffffffffffffffffffffffffffffffffffffff1673ffffffffffffffffffffffffffffffffffffffff16815260200190815260200160002082815481106116f8577f4e487b7100000000000000000000000000000000000000000000000000000000600052603260045260246000fd5b9060005260206000200160006101000a81548173ffffffffffffffffffffffffffffffffffffffff021916908373ffffffffffffffffffffffffffffffffffffffff160217905550600560003373ffffffffffffffffffffffffffffffffffffffff1673ffffffffffffffffffffffffffffffffffffffff1681526020019081526020016000208054806117b5577f4e487b7100000000000000000000000000000000000000000000000000000000600052603160045260246000fd5b6001900381819060005260206000200160006101000a81549073ffffffffffffffffffffffffffffffffffffffff02191690559055611802565b80806117fa906161ca565b915050611472565b505b8173ffffffffffffffffffffffffffffffffffffffff163373ffffffffffffffffffffffffffffffffffffffff167f9f520b3bfc56d06f7065d10b4683b3f57ac8895d5026cd176dee95ce1454cb8d60405160405180910390a35050565b6000600160008373ffffffffffffffffffffffffffffffffffffffff1673ffffffffffffffffffffffffffffffffffffffff16815260200190815260200160002060010160149054906101000a900460ff169050919050565b6060600160028111156118f7577f4e487b7100000000000000000000000000000000000000000000000000000000600052602160045260246000fd5b600160003373ffffffffffffffffffffffffffffffffffffffff1673ffffffffffffffffffffffffffffffffffffffff16815260200190815260200160002060010160149054906101000a900460ff16600281111561197f577f4e487b7100000000000000000000000000000000000000000000000000000000600052602160045260246000fd5b148015611a125750600260008373ffffffffffffffffffffffffffffffffffffffff1673ffffffffffffffffffffffffffffffffffffffff16815260200190815260200160002060003373ffffffffffffffffffffffffffffffffffffffff1673ffffffffffffffffffffffffffffffffffffffff16815260200190815260200160002060009054906101000a900460ff165b80611a4857508173ffffffffffffffffffffffffffffffffffffffff163373ffffffffffffffffffffffffffffffffffffffff16145b611a87576040517f08c379a0000000000000000000000000000000000000000000000000000000008152600401611a7e90615e55565b60405180910390fd5b600660008373ffffffffffffffffffffffffffffffffffffffff1673ffffffffffffffffffffffffffffffffffffffff168152602001908152602001600020805480602002602001604051908101604052809291908181526020016000905b82821015611c9c5783829060005260206000209060040201604051806080016040529081600082018054611b1990616198565b80601f0160208091040260200160405190810160405280929190818152602001828054611b4590616198565b8015611b925780601f10611b6757610100808354040283529160200191611b92565b820191906000526020600020905b815481529060010190602001808311611b7557829003601f168201915b50505050508152602001600182018054611bab90616198565b80601f0160208091040260200160405190810160405280929190818152602001828054611bd790616198565b8015611c245780601f10611bf957610100808354040283529160200191611c24565b820191906000526020600020905b815481529060010190602001808311611c0757829003601f168201915b50505050508152602001600282015481526020016003820160009054906101000a900473ffffffffffffffffffffffffffffffffffffffff1673ffffffffffffffffffffffffffffffffffffffff1673ffffffffffffffffffffffffffffffffffffffff168152505081526020019060010190611ae6565b505050509050919050565b60056020528160005260406000208181548110611cc357600080fd5b906000526020600020016000915091509054906101000a900473ffffffffffffffffffffffffffffffffffffffff1681565b600280811115611d2e577f4e487b7100000000000000000000000000000000000000000000000000000000600052602160045260246000fd5b600160003373ffffffffffffffffffffffffffffffffffffffff1673ffffffffffffffffffffffffffffffffffffffff16815260200190815260200160002060010160149054906101000a900460ff166002811115611db6577f4e487b7100000000000000000000000000000000000000000000000000000000600052602160045260246000fd5b14611df6576040517f08c379a0000000000000000000000000000000000000000000000000000000008152600401611ded90615ef5565b60405180910390fd5b600160003373ffffffffffffffffffffffffffffffffffffffff1673ffffffffffffffffffffffffffffffffffffffff16815260200190815260200160002060010160159054906101000a900460ff16611e85576040517f08c379a0000000000000000000000000000000000000000000000000000000008152600401611e7c90615ed5565b60405180910390fd5b600160008273ffffffffffffffffffffffffffffffffffffffff1673ffffffffffffffffffffffffffffffffffffffff16815260200190815260200160002060010160159054906101000a900460ff16611f14576040517f08c379a0000000000000000000000000000000000000000000000000000000008152600401611f0b90615f15565b60405180910390fd5b73d9073e73717fca172f29b55a0368ae41de35d23773ffffffffffffffffffffffffffffffffffffffff168173ffffffffffffffffffffffffffffffffffffffff161415611f97576040517f08c379a0000000000000000000000000000000000000000000000000000000008152600401611f8e90615e95565b60405180910390fd5b60006002811115611fd1577f4e487b7100000000000000000000000000000000000000000000000000000000600052602160045260246000fd5b600160008373ffffffffffffffffffffffffffffffffffffffff1673ffffffffffffffffffffffffffffffffffffffff16815260200190815260200160002060010160149054906101000a900460ff166002811115612059577f4e487b7100000000000000000000000000000000000000000000000000000000600052602160045260246000fd5b14156124fd576000600360008373ffffffffffffffffffffffffffffffffffffffff1673ffffffffffffffffffffffffffffffffffffffff16815260200190815260200160002080548060200260200160405190810160405280929190818152602001828054801561212057602002820191906000526020600020905b8160009054906101000a900473ffffffffffffffffffffffffffffffffffffffff1673ffffffffffffffffffffffffffffffffffffffff16815260200190600101908083116120d6575b5050505050905060005b815181101561227257600082828151811061216e577f4e487b7100000000000000000000000000000000000000000000000000000000600052603260045260246000fd5b60200260200101519050600260008573ffffffffffffffffffffffffffffffffffffffff1673ffffffffffffffffffffffffffffffffffffffff16815260200190815260200160002060008273ffffffffffffffffffffffffffffffffffffffff1673ffffffffffffffffffffffffffffffffffffffff16815260200190815260200160002060006101000a81549060ff02191690558073ffffffffffffffffffffffffffffffffffffffff168473ffffffffffffffffffffffffffffffffffffffff167f825c8be24eb0df19500f63e86c29e7d0d951e73056b889b891d85e40938d9b6e60405160405180910390a350808061226a906161ca565b91505061212a565b50600360008373ffffffffffffffffffffffffffffffffffffffff1673ffffffffffffffffffffffffffffffffffffffff16815260200190815260200160002060006122be919061508c565b60005b600560008473ffffffffffffffffffffffffffffffffffffffff1673ffffffffffffffffffffffffffffffffffffffff168152602001908152602001600020805490508110156124ab576000600560008573ffffffffffffffffffffffffffffffffffffffff1673ffffffffffffffffffffffffffffffffffffffff1681526020019081526020016000208281548110612384577f4e487b7100000000000000000000000000000000000000000000000000000000600052603260045260246000fd5b9060005260206000200160009054906101000a900473ffffffffffffffffffffffffffffffffffffffff169050600460008573ffffffffffffffffffffffffffffffffffffffff1673ffffffffffffffffffffffffffffffffffffffff16815260200190815260200160002060008273ffffffffffffffffffffffffffffffffffffffff1673ffffffffffffffffffffffffffffffffffffffff16815260200190815260200160002060006101000a81549060ff02191690558073ffffffffffffffffffffffffffffffffffffffff168473ffffffffffffffffffffffffffffffffffffffff167fbc07c2fb61df8e6f70aab44a06f5bfa00c1333a244a7ef055273445db3b26ed160405160405180910390a35080806124a3906161ca565b9150506122c1565b50600560008373ffffffffffffffffffffffffffffffffffffffff1673ffffffffffffffffffffffffffffffffffffffff16815260200190815260200160002060006124f7919061508c565b50612800565b60016002811115612537577f4e487b7100000000000000000000000000000000000000000000000000000000600052602160045260246000fd5b600160008373ffffffffffffffffffffffffffffffffffffffff1673ffffffffffffffffffffffffffffffffffffffff16815260200190815260200160002060010160149054906101000a900460ff1660028111156125bf577f4e487b7100000000000000000000000000000000000000000000000000000000600052602160045260246000fd5b14156127ff5760005b600360003373ffffffffffffffffffffffffffffffffffffffff1673ffffffffffffffffffffffffffffffffffffffff168152602001908152602001600020805490508110156127b2576000600360003373ffffffffffffffffffffffffffffffffffffffff1673ffffffffffffffffffffffffffffffffffffffff168152602001908152602001600020828154811061268b577f4e487b7100000000000000000000000000000000000000000000000000000000600052603260045260246000fd5b9060005260206000200160009054906101000a900473ffffffffffffffffffffffffffffffffffffffff169050600260008273ffffffffffffffffffffffffffffffffffffffff1673ffffffffffffffffffffffffffffffffffffffff16815260200190815260200160002060008473ffffffffffffffffffffffffffffffffffffffff1673ffffffffffffffffffffffffffffffffffffffff16815260200190815260200160002060006101000a81549060ff02191690558273ffffffffffffffffffffffffffffffffffffffff168173ffffffffffffffffffffffffffffffffffffffff167f825c8be24eb0df19500f63e86c29e7d0d951e73056b889b891d85e40938d9b6e60405160405180910390a35080806127aa906161ca565b9150506125c8565b50600360003373ffffffffffffffffffffffffffffffffffffffff1673ffffffffffffffffffffffffffffffffffffffff16815260200190815260200160002060006127fe919061508c565b5b5b6000600160008373ffffffffffffffffffffffffffffffffffffffff1673ffffffffffffffffffffffffffffffffffffffff16815260200190815260200160002060010160156101000a81548160ff0219169083151502179055508073ffffffffffffffffffffffffffffffffffffffff167f4bc56f1321288dfb5b416cb3a7fd188723979f9e866c91d88eccf7fca039d03960405160405180910390a250565b600060028111156128db577f4e487b7100000000000000000000000000000000000000000000000000000000600052602160045260246000fd5b600160003373ffffffffffffffffffffffffffffffffffffffff1673ffffffffffffffffffffffffffffffffffffffff16815260200190815260200160002060010160149054906101000a900460ff166002811115612963577f4e487b7100000000000000000000000000000000000000000000000000000000600052602160045260246000fd5b146129a3576040517f08c379a000000000000000000000000000000000000000000000000000000000815260040161299a90615e35565b60405180910390fd5b600160003373ffffffffffffffffffffffffffffffffffffffff1673ffffffffffffffffffffffffffffffffffffffff16815260200190815260200160002060010160159054906101000a900460ff16612a32576040517f08c379a0000000000000000000000000000000000000000000000000000000008152600401612a2990615de7565b60405180910390fd5b6000600260003373ffffffffffffffffffffffffffffffffffffffff1673ffffffffffffffffffffffffffffffffffffffff16815260200190815260200160002060008373ffffffffffffffffffffffffffffffffffffffff1673ffffffffffffffffffffffffffffffffffffffff16815260200190815260200160002060006101000a81548160ff02191690831515021790555060005b600360003373ffffffffffffffffffffffffffffffffffffffff1673ffffffffffffffffffffffffffffffffffffffff16815260200190815260200160002080549050811015612e5a578173ffffffffffffffffffffffffffffffffffffffff16600360003373ffffffffffffffffffffffffffffffffffffffff1673ffffffffffffffffffffffffffffffffffffffff1681526020019081526020016000208281548110612ba2577f4e487b7100000000000000000000000000000000000000000000000000000000600052603260045260246000fd5b9060005260206000200160009054906101000a900473ffffffffffffffffffffffffffffffffffffffff1673ffffffffffffffffffffffffffffffffffffffff161415612e4757600360003373ffffffffffffffffffffffffffffffffffffffff1673ffffffffffffffffffffffffffffffffffffffff1681526020019081526020016000206001600360003373ffffffffffffffffffffffffffffffffffffffff1673ffffffffffffffffffffffffffffffffffffffff16815260200190815260200160002080549050612c7791906160b5565b81548110612cae577f4e487b7100000000000000000000000000000000000000000000000000000000600052603260045260246000fd5b9060005260206000200160009054906101000a900473ffffffffffffffffffffffffffffffffffffffff16600360003373ffffffffffffffffffffffffffffffffffffffff1673ffffffffffffffffffffffffffffffffffffffff1681526020019081526020016000208281548110612d50577f4e487b7100000000000000000000000000000000000000000000000000000000600052603260045260246000fd5b9060005260206000200160006101000a81548173ffffffffffffffffffffffffffffffffffffffff021916908373ffffffffffffffffffffffffffffffffffffffff160217905550600360003373ffffffffffffffffffffffffffffffffffffffff1673ffffffffffffffffffffffffffffffffffffffff168152602001908152602001600020805480612e0d577f4e487b7100000000000000000000000000000000000000000000000000000000600052603160045260246000fd5b6001900381819060005260206000200160006101000a81549073ffffffffffffffffffffffffffffffffffffffff02191690559055612e5a565b8080612e52906161ca565b915050612aca565b508073ffffffffffffffffffffffffffffffffffffffff163373ffffffffffffffffffffffffffffffffffffffff167f825c8be24eb0df19500f63e86c29e7d0d951e73056b889b891d85e40938d9b6e60405160405180910390a350565b600280811115612ef1577f4e487b7100000000000000000000000000000000000000000000000000000000600052602160045260246000fd5b600160003373ffffffffffffffffffffffffffffffffffffffff1673ffffffffffffffffffffffffffffffffffffffff16815260200190815260200160002060010160149054906101000a900460ff166002811115612f79577f4e487b7100000000000000000000000000000000000000000000000000000000600052602160045260246000fd5b14612fb9576040517f08c379a0000000000000000000000000000000000000000000000000000000008152600401612fb090615ef5565b60405180910390fd5b600160003373ffffffffffffffffffffffffffffffffffffffff1673ffffffffffffffffffffffffffffffffffffffff16815260200190815260200160002060010160159054906101000a900460ff16613048576040517f08c379a000000000000000000000000000000000000000000000000000000000815260040161303f90615ed5565b60405180910390fd5b600073ffffffffffffffffffffffffffffffffffffffff168473ffffffffffffffffffffffffffffffffffffffff1614156130b8576040517f08c379a00000000000000000000000000000000000000000000000000000000081526004016130af90615d07565b60405180910390fd5b600060028111156130f2577f4e487b7100000000000000000000000000000000000000000000000000000000600052602160045260246000fd5b82600281111561312b577f4e487b7100000000000000000000000000000000000000000000000000000000600052602160045260246000fd5b141561350f576000600360008673ffffffffffffffffffffffffffffffffffffffff1673ffffffffffffffffffffffffffffffffffffffff1681526020019081526020016000208054806020026020016040519081016040528092919081815260200182805480156131f257602002820191906000526020600020905b8160009054906101000a900473ffffffffffffffffffffffffffffffffffffffff1673ffffffffffffffffffffffffffffffffffffffff16815260200190600101908083116131a8575b5050505050905060005b81518110156132e457600260008773ffffffffffffffffffffffffffffffffffffffff1673ffffffffffffffffffffffffffffffffffffffff168152602001908152602001600020600083838151811061327f577f4e487b7100000000000000000000000000000000000000000000000000000000600052603260045260246000fd5b602002602001015173ffffffffffffffffffffffffffffffffffffffff1673ffffffffffffffffffffffffffffffffffffffff16815260200190815260200160002060006101000a81549060ff021916905580806132dc906161ca565b9150506131fc565b50600360008673ffffffffffffffffffffffffffffffffffffffff1673ffffffffffffffffffffffffffffffffffffffff1681526020019081526020016000206000613330919061508c565b60005b600560008773ffffffffffffffffffffffffffffffffffffffff1673ffffffffffffffffffffffffffffffffffffffff168152602001908152602001600020805490508110156134bd57600460008773ffffffffffffffffffffffffffffffffffffffff1673ffffffffffffffffffffffffffffffffffffffff1681526020019081526020016000206000600560008973ffffffffffffffffffffffffffffffffffffffff1673ffffffffffffffffffffffffffffffffffffffff1681526020019081526020016000208381548110613435577f4e487b7100000000000000000000000000000000000000000000000000000000600052603260045260246000fd5b9060005260206000200160009054906101000a900473ffffffffffffffffffffffffffffffffffffffff1673ffffffffffffffffffffffffffffffffffffffff1673ffffffffffffffffffffffffffffffffffffffff16815260200190815260200160002060006101000a81549060ff021916905580806134b5906161ca565b915050613333565b50600560008673ffffffffffffffffffffffffffffffffffffffff1673ffffffffffffffffffffffffffffffffffffffff1681526020019081526020016000206000613509919061508c565b50613769565b60016002811115613549577f4e487b7100000000000000000000000000000000000000000000000000000000600052602160045260246000fd5b826002811115613582577f4e487b7100000000000000000000000000000000000000000000000000000000600052602160045260246000fd5b14156137685760005b600360008673ffffffffffffffffffffffffffffffffffffffff1673ffffffffffffffffffffffffffffffffffffffff1681526020019081526020016000208054905081101561371b576000600360008773ffffffffffffffffffffffffffffffffffffffff1673ffffffffffffffffffffffffffffffffffffffff168152602001908152602001600020828154811061364e577f4e487b7100000000000000000000000000000000000000000000000000000000600052603260045260246000fd5b9060005260206000200160009054906101000a900473ffffffffffffffffffffffffffffffffffffffff169050600260008273ffffffffffffffffffffffffffffffffffffffff1673ffffffffffffffffffffffffffffffffffffffff16815260200190815260200160002060008773ffffffffffffffffffffffffffffffffffffffff1673ffffffffffffffffffffffffffffffffffffffff16815260200190815260200160002060006101000a81549060ff0219169055508080613713906161ca565b91505061358b565b50600360008573ffffffffffffffffffffffffffffffffffffffff1673ffffffffffffffffffffffffffffffffffffffff1681526020019081526020016000206000613767919061508c565b5b5b6040518060a001604052808481526020018573ffffffffffffffffffffffffffffffffffffffff1681526020018360028111156137cf577f4e487b7100000000000000000000000000000000000000000000000000000000600052602160045260246000fd5b815260200160011515815260200182815250600160008673ffffffffffffffffffffffffffffffffffffffff1673ffffffffffffffffffffffffffffffffffffffff168152602001908152602001600020600082015181600001908051906020019061383c929190615006565b5060208201518160010160006101000a81548173ffffffffffffffffffffffffffffffffffffffff021916908373ffffffffffffffffffffffffffffffffffffffff16021790555060408201518160010160146101000a81548160ff021916908360028111156138d5577f4e487b7100000000000000000000000000000000000000000000000000000000600052602160045260246000fd5b021790555060608201518160010160156101000a81548160ff0219169083151502179055506080820151816002019080519060200190613916929190615006565b509050508373ffffffffffffffffffffffffffffffffffffffff167f8897d4c16f6b907647cc92f3b2f80418ac81581b8e74f9dda595d3910b44c8628484604051613962929190615c4d565b60405180910390a250505050565b60008054906101000a900473ffffffffffffffffffffffffffffffffffffffff1681565b73d9073e73717fca172f29b55a0368ae41de35d23781565b60016020528060005260406000206000915090508060000180546139cf90616198565b80601f01602080910402602001604051908101604052809291908181526020018280546139fb90616198565b8015613a485780601f10613a1d57610100808354040283529160200191613a48565b820191906000526020600020905b815481529060010190602001808311613a2b57829003601f168201915b5050505050908060010160009054906101000a900473ffffffffffffffffffffffffffffffffffffffff16908060010160149054906101000a900460ff16908060010160159054906101000a900460ff1690806002018054613aa990616198565b80601f0160208091040260200160405190810160405280929190818152602001828054613ad590616198565b8015613b225780601f10613af757610100808354040283529160200191613b22565b820191906000526020600020905b815481529060010190602001808311613b0557829003601f168201915b5050505050905085565b60046020528160005260406000206020528060005260406000206000915091509054906101000a900460ff1681565b6000600260008473ffffffffffffffffffffffffffffffffffffffff1673ffffffffffffffffffffffffffffffffffffffff16815260200190815260200160002060008373ffffffffffffffffffffffffffffffffffffffff1673ffffffffffffffffffffffffffffffffffffffff16815260200190815260200160002060009054906101000a900460ff16905092915050565b60066020528160005260406000208181548110613c0b57600080fd5b906000526020600020906004020160009150915050806000018054613c2f90616198565b80601f0160208091040260200160405190810160405280929190818152602001828054613c5b90616198565b8015613ca85780601f10613c7d57610100808354040283529160200191613ca8565b820191906000526020600020905b815481529060010190602001808311613c8b57829003601f168201915b505050505090806001018054613cbd90616198565b80601f0160208091040260200160405190810160405280929190818152602001828054613ce990616198565b8015613d365780601f10613d0b57610100808354040283529160200191613d36565b820191906000526020600020905b815481529060010190602001808311613d1957829003601f168201915b5050505050908060020154908060030160009054906101000a900473ffffffffffffffffffffffffffffffffffffffff16905084565b60036020528160005260406000208181548110613d8857600080fd5b906000526020600020016000915091509054906101000a900473ffffffffffffffffffffffffffffffffffffffff1681565b60016002811115613df4577f4e487b7100000000000000000000000000000000000000000000000000000000600052602160045260246000fd5b600160003373ffffffffffffffffffffffffffffffffffffffff1673ffffffffffffffffffffffffffffffffffffffff16815260200190815260200160002060010160149054906101000a900460ff166002811115613e7c577f4e487b7100000000000000000000000000000000000000000000000000000000600052602160045260246000fd5b148015613f0f5750600260008473ffffffffffffffffffffffffffffffffffffffff1673ffffffffffffffffffffffffffffffffffffffff16815260200190815260200160002060003373ffffffffffffffffffffffffffffffffffffffff1673ffffffffffffffffffffffffffffffffffffffff16815260200190815260200160002060009054906101000a900460ff165b80613f4557508273ffffffffffffffffffffffffffffffffffffffff163373ffffffffffffffffffffffffffffffffffffffff16145b613f84576040517f08c379a0000000000000000000000000000000000000000000000000000000008152600401613f7b90615e75565b60405180910390fd5b60006002811115613fbe577f4e487b7100000000000000000000000000000000000000000000000000000000600052602160045260246000fd5b600160008573ffffffffffffffffffffffffffffffffffffffff1673ffffffffffffffffffffffffffffffffffffffff16815260200190815260200160002060010160149054906101000a900460ff166002811115614046577f4e487b7100000000000000000000000000000000000000000000000000000000600052602160045260246000fd5b14614086576040517f08c379a000000000000000000000000000000000000000000000000000000000815260040161407d90615da7565b60405180910390fd5b600160008473ffffffffffffffffffffffffffffffffffffffff1673ffffffffffffffffffffffffffffffffffffffff16815260200190815260200160002060010160159054906101000a900460ff16614115576040517f08c379a000000000000000000000000000000000000000000000000000000000815260040161410c90615f75565b60405180910390fd5b600060405180608001604052808481526020018381526020014281526020013373ffffffffffffffffffffffffffffffffffffffff168152509050600660008573ffffffffffffffffffffffffffffffffffffffff1673ffffffffffffffffffffffffffffffffffffffff16815260200190815260200160002081908060018154018082558091505060019003906000526020600020906004020160009091909190915060008201518160000190805190602001906141d5929190615006565b5060208201518160010190805190602001906141f2929190615006565b506040820151816002015560608201518160030160006101000a81548173ffffffffffffffffffffffffffffffffffffffff021916908373ffffffffffffffffffffffffffffffffffffffff16021790555050503373ffffffffffffffffffffffffffffffffffffffff168473ffffffffffffffffffffffffffffffffffffffff167f58240ab501e006cc51446864acaf7f36ab139ca90883c9461b49f5171100046c85856040516142a5929190615c7d565b60405180910390a350505050565b6060600360008373ffffffffffffffffffffffffffffffffffffffff1673ffffffffffffffffffffffffffffffffffffffff16815260200190815260200160002080548060200260200160405190810160405280929190818152602001828054801561437457602002820191906000526020600020905b8160009054906101000a900473ffffffffffffffffffffffffffffffffffffffff1673ffffffffffffffffffffffffffffffffffffffff168152602001906001019080831161432a575b50505050509050919050565b600060028111156143ba577f4e487b7100000000000000000000000000000000000000000000000000000000600052602160045260246000fd5b600160003373ffffffffffffffffffffffffffffffffffffffff1673ffffffffffffffffffffffffffffffffffffffff16815260200190815260200160002060010160149054906101000a900460ff166002811115614442577f4e487b7100000000000000000000000000000000000000000000000000000000600052602160045260246000fd5b14614482576040517f08c379a000000000000000000000000000000000000000000000000000000000815260040161447990615e35565b60405180910390fd5b600160003373ffffffffffffffffffffffffffffffffffffffff1673ffffffffffffffffffffffffffffffffffffffff16815260200190815260200160002060010160159054906101000a900460ff16614511576040517f08c379a000000000000000000000000000000000000000000000000000000000815260040161450890615de7565b60405180910390fd5b6001600281111561454b577f4e487b7100000000000000000000000000000000000000000000000000000000600052602160045260246000fd5b600160008373ffffffffffffffffffffffffffffffffffffffff1673ffffffffffffffffffffffffffffffffffffffff16815260200190815260200160002060010160149054906101000a900460ff1660028111156145d3577f4e487b7100000000000000000000000000000000000000000000000000000000600052602160045260246000fd5b14614613576040517f08c379a000000000000000000000000000000000000000000000000000000000815260040161460a90615d47565b60405180910390fd5b600460003373ffffffffffffffffffffffffffffffffffffffff1673ffffffffffffffffffffffffffffffffffffffff16815260200190815260200160002060008273ffffffffffffffffffffffffffffffffffffffff1673ffffffffffffffffffffffffffffffffffffffff16815260200190815260200160002060009054906101000a900460ff166146dc576040517f08c379a00000000000000000000000000000000000000000000000000000000081526004016146d390615d27565b60405180910390fd5b6000600460003373ffffffffffffffffffffffffffffffffffffffff1673ffffffffffffffffffffffffffffffffffffffff16815260200190815260200160002060008373ffffffffffffffffffffffffffffffffffffffff1673ffffffffffffffffffffffffffffffffffffffff16815260200190815260200160002060006101000a81548160ff02191690831515021790555060005b600560003373ffffffffffffffffffffffffffffffffffffffff1673ffffffffffffffffffffffffffffffffffffffff16815260200190815260200160002080549050811015614b04578173ffffffffffffffffffffffffffffffffffffffff16600560003373ffffffffffffffffffffffffffffffffffffffff1673ffffffffffffffffffffffffffffffffffffffff168152602001908152602001600020828154811061484c577f4e487b7100000000000000000000000000000000000000000000000000000000600052603260045260246000fd5b9060005260206000200160009054906101000a900473ffffffffffffffffffffffffffffffffffffffff1673ffffffffffffffffffffffffffffffffffffffff161415614af157600560003373ffffffffffffffffffffffffffffffffffffffff1673ffffffffffffffffffffffffffffffffffffffff1681526020019081526020016000206001600560003373ffffffffffffffffffffffffffffffffffffffff1673ffffffffffffffffffffffffffffffffffffffff1681526020019081526020016000208054905061492191906160b5565b81548110614958577f4e487b7100000000000000000000000000000000000000000000000000000000600052603260045260246000fd5b9060005260206000200160009054906101000a900473ffffffffffffffffffffffffffffffffffffffff16600560003373ffffffffffffffffffffffffffffffffffffffff1673ffffffffffffffffffffffffffffffffffffffff16815260200190815260200160002082815481106149fa577f4e487b7100000000000000000000000000000000000000000000000000000000600052603260045260246000fd5b9060005260206000200160006101000a81548173ffffffffffffffffffffffffffffffffffffffff021916908373ffffffffffffffffffffffffffffffffffffffff160217905550600560003373ffffffffffffffffffffffffffffffffffffffff1673ffffffffffffffffffffffffffffffffffffffff168152602001908152602001600020805480614ab7577f4e487b7100000000000000000000000000000000000000000000000000000000600052603160045260246000fd5b6001900381819060005260206000200160006101000a81549073ffffffffffffffffffffffffffffffffffffffff02191690559055614b04565b8080614afc906161ca565b915050614774565b508073ffffffffffffffffffffffffffffffffffffffff163373ffffffffffffffffffffffffffffffffffffffff167fbc07c2fb61df8e6f70aab44a06f5bfa00c1333a244a7ef055273445db3b26ed160405160405180910390a350565b73d9073e73717fca172f29b55a0368ae41de35d23773ffffffffffffffffffffffffffffffffffffffff163373ffffffffffffffffffffffffffffffffffffffff1614614be4576040517f08c379a0000000000000000000000000000000000000000000000000000000008152600401614bdb90615f55565b60405180910390fd5b6001600073d9073e73717fca172f29b55a0368ae41de35d23773ffffffffffffffffffffffffffffffffffffffff1673ffffffffffffffffffffffffffffffffffffffff16815260200190815260200160002060010160159054906101000a900460ff1615614c88576040517f08c379a0000000000000000000000000000000000000000000000000000000008152600401614c7f90615d67565b60405180910390fd5b6040518060a001604052806040518060400160405280600d81526020017f44656661756c742041646d696e00000000000000000000000000000000000000815250815260200173d9073e73717fca172f29b55a0368ae41de35d23773ffffffffffffffffffffffffffffffffffffffff168152602001600280811115614d37577f4e487b7100000000000000000000000000000000000000000000000000000000600052602160045260246000fd5b8152602001600115158152602001604051806020016040528060008152508152506001600073d9073e73717fca172f29b55a0368ae41de35d23773ffffffffffffffffffffffffffffffffffffffff1673ffffffffffffffffffffffffffffffffffffffff1681526020019081526020016000206000820151816000019080519060200190614dc7929190615006565b5060208201518160010160006101000a81548173ffffffffffffffffffffffffffffffffffffffff021916908373ffffffffffffffffffffffffffffffffffffffff16021790555060408201518160010160146101000a81548160ff02191690836002811115614e60577f4e487b7100000000000000000000000000000000000000000000000000000000600052602160045260246000fd5b021790555060608201518160010160156101000a81548160ff0219169083151502179055506080820151816002019080519060200190614ea1929190615006565b5090505073d9073e73717fca172f29b55a0368ae41de35d23773ffffffffffffffffffffffffffffffffffffffff167f8897d4c16f6b907647cc92f3b2f80418ac81581b8e74f9dda595d3910b44c8626002604051614f009190615e07565b60405180910390a2565b6060600560008373ffffffffffffffffffffffffffffffffffffffff1673ffffffffffffffffffffffffffffffffffffffff168152602001908152602001600020805480602002602001604051908101604052809291908181526020018280548015614fcb57602002820191906000526020600020905b8160009054906101000a900473ffffffffffffffffffffffffffffffffffffffff1673ffffffffffffffffffffffffffffffffffffffff1681526020019060010190808311614f81575b50505050509050919050565b60026020528160005260406000206020528060005260406000206000915091509054906101000a900460ff1681565b82805461501290616198565b90600052602060002090601f016020900481019282615034576000855561507b565b82601f1061504d57805160ff191683800117855561507b565b8280016001018555821561507b579182015b8281111561507a57825182559160200191906001019061505f565b5b50905061508891906150ad565b5090565b50805460008255906000526020600020908101906150aa91906150ad565b50565b5b808211156150c65760008160009055506001016150ae565b5090565b60006150dd6150d884615fe6565b615fb5565b9050828152602081018484840111156150f557600080fd5b615100848285616156565b509392505050565b600081359050615117816162f4565b92915050565b60008135905061512c8161630b565b92915050565b600082601f83011261514357600080fd5b81356151538482602086016150ca565b91505092915050565b60008135905061516b8161631b565b92915050565b60006020828403121561518357600080fd5b600061519184828501615108565b91505092915050565b600080604083850312156151ad57600080fd5b60006151bb85828601615108565b92505060206151cc85828601615108565b9150509250929050565b600080600080608085870312156151ec57600080fd5b60006151fa87828801615108565b945050602085013567ffffffffffffffff81111561521757600080fd5b61522387828801615132565b93505060406152348782880161511d565b925050606085013567ffffffffffffffff81111561525157600080fd5b61525d87828801615132565b91505092959194509250565b60008060006060848603121561527e57600080fd5b600061528c86828701615108565b935050602084013567ffffffffffffffff8111156152a957600080fd5b6152b586828701615132565b925050604084013567ffffffffffffffff8111156152d257600080fd5b6152de86828701615132565b9150509250925092565b600080604083850312156152fb57600080fd5b600061530985828601615108565b925050602061531a8582860161515c565b9150509250929050565b60006153308383615350565b60208301905092915050565b60006153488383615acf565b905092915050565b615359816160e9565b82525050565b615368816160e9565b82525050565b600061537982616036565b6153838185616071565b935061538e83616016565b8060005b838110156153bf5781516153a68882615324565b97506153b183616057565b925050600181019050615392565b5085935050505092915050565b60006153d782616041565b6153e18185616082565b9350836020820285016153f385616026565b8060005b8581101561542f5784840389528151615410858261533c565b945061541b83616064565b925060208a019950506001810190506153f7565b50829750879550505050505092915050565b61544a816160fb565b82525050565b61545981616144565b82525050565b600061546a8261604c565b6154748185616093565b9350615484818560208601616165565b61548d816162cf565b840191505092915050565b60006154a38261604c565b6154ad81856160a4565b93506154bd818560208601616165565b6154c6816162cf565b840191505092915050565b60006154de600f836160a4565b91507f496e76616c6964206164647265737300000000000000000000000000000000006000830152602082019050919050565b600061551e6023836160a4565b91507f4e6f2070656e64696e6720726571756573742066726f6d207468697320646f6360008301527f746f7200000000000000000000000000000000000000000000000000000000006020830152604082019050919050565b60006155846016836160a4565b91507f496e76616c696420646f63746f722061646472657373000000000000000000006000830152602082019050919050565b60006155c4601c836160a4565b91507f44656661756c742061646d696e20616c726561647920657869737473000000006000830152602082019050919050565b60006156046016836160a4565b91507f41636365737320616c7265616479206772616e746564000000000000000000006000830152602082019050919050565b60006156446017836160a4565b91507f496e76616c69642070617469656e7420616464726573730000000000000000006000830152602082019050919050565b6000615684601c836160a4565b91507f446f63746f72206163636f756e74206973206e6f7420616374697665000000006000830152602082019050919050565b60006156c4601d836160a4565b91507f50617469656e74206163636f756e74206973206e6f74206163746976650000006000830152602082019050919050565b6000615704600d836160a4565b91507f44656661756c742041646d696e000000000000000000000000000000000000006000830152602082019050919050565b60006157446024836160a4565b91507f4f6e6c792070617469656e742063616e20706572666f726d207468697320616360008301527f74696f6e000000000000000000000000000000000000000000000000000000006020830152604082019050919050565b60006157aa6039836160a4565b91507f4f6e6c7920617574686f72697a656420646f63746f7273206f7220746865207060008301527f617469656e742063616e207669657720646f63756d656e7473000000000000006020830152604082019050919050565b60006158106038836160a4565b91507f4f6e6c7920617574686f72697a656420646f63746f7273206f7220746865207060008301527f617469656e742063616e2061646420646f63756d656e747300000000000000006020830152604082019050919050565b6000615876601b836160a4565b91507f43616e6e6f742064656c6574652064656661756c742061646d696e00000000006000830152602082019050919050565b60006158b66017836160a4565b91507f5265717565737420616c72656164792070656e64696e670000000000000000006000830152602082019050919050565b60006158f6601b836160a4565b91507f41646d696e206163636f756e74206973206e6f742061637469766500000000006000830152602082019050919050565b60006159366022836160a4565b91507f4f6e6c792061646d696e2063616e20706572666f726d2074686973206163746960008301527f6f6e0000000000000000000000000000000000000000000000000000000000006020830152604082019050919050565b600061599c6013836160a4565b91507f5573657220646f6573206e6f74206578697374000000000000000000000000006000830152602082019050919050565b60006159dc601f836160a4565b91507f4f6e6c7920646f63746f72732063616e207265717565737420616363657373006000830152602082019050919050565b6000615a1c6020836160a4565b91507f4f6e6c792064656661756c742061646d696e2063616e2063616c6c20746869736000830152602082019050919050565b6000615a5c6015836160a4565b91507f50617469656e74206973206e6f742061637469766500000000000000000000006000830152602082019050919050565b6000615a9c6014836160a4565b91507f446f63746f72206973206e6f74206163746976650000000000000000000000006000830152602082019050919050565b60006080830160008301518482036000860152615aec828261545f565b91505060208301518482036020860152615b06828261545f565b9150506040830151615b1b6040860182615b39565b506060830151615b2e6060860182615350565b508091505092915050565b615b428161613a565b82525050565b615b518161613a565b82525050565b6000602082019050615b6c600083018461535f565b92915050565b60006020820190508181036000830152615b8c818461536e565b905092915050565b60006020820190508181036000830152615bae81846153cc565b905092915050565b6000602082019050615bcb6000830184615441565b92915050565b6000602082019050615be66000830184615450565b92915050565b600060a0820190508181036000830152615c068188615498565b9050615c15602083018761535f565b615c226040830186615450565b615c2f6060830185615441565b8181036080830152615c418184615498565b90509695505050505050565b60006040820190508181036000830152615c678185615498565b9050615c766020830184615450565b9392505050565b60006040820190508181036000830152615c978185615498565b90508181036020830152615cab8184615498565b90509392505050565b60006080820190508181036000830152615cce8187615498565b90508181036020830152615ce28186615498565b9050615cf16040830185615b48565b615cfe606083018461535f565b95945050505050565b60006020820190508181036000830152615d20816154d1565b9050919050565b60006020820190508181036000830152615d4081615511565b9050919050565b60006020820190508181036000830152615d6081615577565b9050919050565b60006020820190508181036000830152615d80816155b7565b9050919050565b60006020820190508181036000830152615da0816155f7565b9050919050565b60006020820190508181036000830152615dc081615637565b9050919050565b60006020820190508181036000830152615de081615677565b9050919050565b60006020820190508181036000830152615e00816156b7565b9050919050565b60006040820190508181036000830152615e20816156f7565b9050615e2f6020830184615450565b92915050565b60006020820190508181036000830152615e4e81615737565b9050919050565b60006020820190508181036000830152615e6e8161579d565b9050919050565b60006020820190508181036000830152615e8e81615803565b9050919050565b60006020820190508181036000830152615eae81615869565b9050919050565b60006020820190508181036000830152615ece816158a9565b9050919050565b60006020820190508181036000830152615eee816158e9565b9050919050565b60006020820190508181036000830152615f0e81615929565b9050919050565b60006020820190508181036000830152615f2e8161598f565b9050919050565b60006020820190508181036000830152615f4e816159cf565b9050919050565b60006020820190508181036000830152615f6e81615a0f565b9050919050565b60006020820190508181036000830152615f8e81615a4f565b9050919050565b60006020820190508181036000830152615fae81615a8f565b9050919050565b6000604051905081810181811067ffffffffffffffff82111715615fdc57615fdb6162a0565b5b8060405250919050565b600067ffffffffffffffff821115616001576160006162a0565b5b601f19601f8301169050602081019050919050565b6000819050602082019050919050565b6000819050602082019050919050565b600081519050919050565b600081519050919050565b600081519050919050565b6000602082019050919050565b6000602082019050919050565b600082825260208201905092915050565b600082825260208201905092915050565b600082825260208201905092915050565b600082825260208201905092915050565b60006160c08261613a565b91506160cb8361613a565b9250828210156160de576160dd616213565b5b828203905092915050565b60006160f48261611a565b9050919050565b60008115159050919050565b6000819050616115826162e0565b919050565b600073ffffffffffffffffffffffffffffffffffffffff82169050919050565b6000819050919050565b600061614f82616107565b9050919050565b82818337600083830152505050565b60005b83811015616183578082015181840152602081019050616168565b83811115616192576000848401525b50505050565b600060028204905060018216806161b057607f821691505b602082108114156161c4576161c3616271565b5b50919050565b60006161d58261613a565b91507fffffffffffffffffffffffffffffffffffffffffffffffffffffffffffffffff82141561620857616207616213565b5b600182019050919050565b7f4e487b7100000000000000000000000000000000000000000000000000000000600052601160045260246000fd5b7f4e487b7100000000000000000000000000000000000000000000000000000000600052602160045260246000fd5b7f4e487b7100000000000000000000000000000000000000000000000000000000600052602260045260246000fd5b7f4e487b7100000000000000000000000000000000000000000000000000000000600052604160045260246000fd5b6000601f19601f8301169050919050565b600381106162f1576162f0616242565b5b50565b6162fd816160e9565b811461630857600080fd5b50565b6003811061631857600080fd5b50565b6163248161613a565b811461632f57600080fd5b5056fea2646970667358221220031c591a9aa8f1de087293697b37ce3c24f138d90796298557bc10bd1a63c7b364736f6c63430008000033",
  "immutableReferences": {},
  "source": "// SPDX-License-Identifier: MIT\npragma solidity ^0.8.0;\n\ncontract HealthRecord {\n    // Enum for user roles\n    enum Role { Patient, Doctor, Admin }\n    \n    // Struct for user details\n    struct User {\n        string name;\n        address userAddress;\n        Role role;\n        bool isActive;\n        string ipfsHash;\n    }\n\n    // Struct for document details\n    struct Document {\n        string name;\n        string ipfsHash;\n        uint256 timestamp;\n        address uploadedBy;\n    }\n    \n    // State variables\n    address public owner;\n    address public constant DEFAULT_ADMIN = 0xD9073E73717FCA172f29B55A0368ae41De35D237;\n    mapping(address => User) public users;\n    mapping(address => mapping(address => bool)) public doctorAccess;\n    mapping(address => address[]) public authorizedDoctorsList;\n    mapping(address => mapping(address => bool)) public accessRequests;\n    mapping(address => address[]) public pendingRequests;\n    \n    // Document management\n    mapping(address => Document[]) public patientDocuments;\n    \n    // Events\n    event UserAdded(address indexed userAddress, string name, Role role);\n    event UserUpdated(address indexed userAddress, string name, Role role);\n    event UserDeleted(address indexed userAddress);\n    event AccessGranted(address indexed patient, address indexed doctor);\n    event AccessRevoked(address indexed patient, address indexed doctor);\n    event AccessRequested(address indexed patient, address indexed doctor);\n    event RequestRejected(address indexed patient, address indexed doctor);\n    event DocumentAdded(address indexed patient, string name, string ipfsHash, address indexed uploadedBy);\n    \n    // Modifiers\n    modifier onlyAdmin() {\n        require(users[msg.sender].role == Role.Admin, \"Only admin can perform this action\");\n        require(users[msg.sender].isActive, \"Admin account is not active\");\n        _;\n    }\n    \n    modifier onlyDoctor() {\n        require(users[msg.sender].role == Role.Doctor, \"Only doctor can perform this action\");\n        require(users[msg.sender].isActive, \"Doctor account is not active\");\n        _;\n    }\n    \n    modifier onlyPatient() {\n        require(users[msg.sender].role == Role.Patient, \"Only patient can perform this action\");\n        require(users[msg.sender].isActive, \"Patient account is not active\");\n        _;\n    }\n    \n    // Constructor\n    constructor() {\n        owner = msg.sender;\n        // Add contract deployer as admin if it's the default admin address\n        if (msg.sender == DEFAULT_ADMIN) {\n            users[msg.sender] = User(\"Default Admin\", msg.sender, Role.Admin, true, \"\");\n            emit UserAdded(msg.sender, \"Default Admin\", Role.Admin);\n        }\n    }\n    \n    // Admin functions\n    function addUser(\n        address _userAddress,\n        string memory _name,\n        Role _role,\n        string memory _ipfsHash\n    ) public onlyAdmin {\n        require(_userAddress != address(0), \"Invalid address\");\n        \n        // Always clean up existing data, whether the user exists or not\n        if (_role == Role.Patient) {\n            // Get all authorized doctors (if any)\n            address[] memory doctors = authorizedDoctorsList[_userAddress];\n            \n            // Clear all doctor access mappings\n            for (uint i = 0; i < doctors.length; i++) {\n                delete doctorAccess[_userAddress][doctors[i]];\n            }\n            \n            // Clear authorized doctors list\n            delete authorizedDoctorsList[_userAddress];\n            \n            // Clear pending requests\n            for (uint i = 0; i < pendingRequests[_userAddress].length; i++) {\n                delete accessRequests[_userAddress][pendingRequests[_userAddress][i]];\n            }\n            delete pendingRequests[_userAddress];\n        } else if (_role == Role.Doctor) {\n            // Clean up any existing doctor access data\n            for (uint i = 0; i < authorizedDoctorsList[_userAddress].length; i++) {\n                address patient = authorizedDoctorsList[_userAddress][i];\n                delete doctorAccess[patient][_userAddress];\n            }\n            delete authorizedDoctorsList[_userAddress];\n        }\n        \n        // Create or update user\n        users[_userAddress] = User(_name, _userAddress, _role, true, _ipfsHash);\n        emit UserAdded(_userAddress, _name, _role);\n    }\n    \n    function updateUser(\n        address _userAddress,\n        string memory _name,\n        string memory _ipfsHash\n    ) public onlyAdmin {\n        require(users[_userAddress].isActive, \"User does not exist\");\n        \n        users[_userAddress].name = _name;\n        users[_userAddress].ipfsHash = _ipfsHash;\n        emit UserUpdated(_userAddress, _name, users[_userAddress].role);\n    }\n    \n    function deleteUser(address _userAddress) public onlyAdmin {\n        require(users[_userAddress].isActive, \"User does not exist\");\n        require(_userAddress != DEFAULT_ADMIN, \"Cannot delete default admin\");\n        \n        // Clean up associated data based on role\n        if (users[_userAddress].role == Role.Patient) {\n            // Get list of authorized doctors\n            address[] memory authorizedDoctors = authorizedDoctorsList[_userAddress];\n            \n            // Clear all doctor access mappings explicitly\n            for (uint i = 0; i < authorizedDoctors.length; i++) {\n                address doctor = authorizedDoctors[i];\n                delete doctorAccess[_userAddress][doctor];\n                emit AccessRevoked(_userAddress, doctor);\n            }\n            \n            // Clear authorized doctors list\n            delete authorizedDoctorsList[_userAddress];\n            \n            // Clear pending requests and access requests\n            for (uint i = 0; i < pendingRequests[_userAddress].length; i++) {\n                address doctor = pendingRequests[_userAddress][i];\n                delete accessRequests[_userAddress][doctor];\n                emit RequestRejected(_userAddress, doctor);\n            }\n            delete pendingRequests[_userAddress];\n        } else if (users[_userAddress].role == Role.Doctor) {\n            // If deleting a doctor, remove their access to all patients\n            // Get all patients this doctor has access to\n            for (uint i = 0; i < authorizedDoctorsList[msg.sender].length; i++) {\n                address patient = authorizedDoctorsList[msg.sender][i];\n                delete doctorAccess[patient][_userAddress];\n                emit AccessRevoked(patient, _userAddress);\n            }\n            delete authorizedDoctorsList[msg.sender];\n        }\n        \n        // Mark user as inactive\n        users[_userAddress].isActive = false;\n        emit UserDeleted(_userAddress);\n    }\n    \n\n    function requestAccess(address _patientAddress) public {\n        require(users[msg.sender].role == Role.Doctor, \"Only doctors can request access\");\n        require(users[msg.sender].isActive, \"Doctor account is not active\");\n        require(users[_patientAddress].role == Role.Patient, \"Invalid patient address\");\n        require(!doctorAccess[_patientAddress][msg.sender], \"Access already granted\");\n        require(!accessRequests[_patientAddress][msg.sender], \"Request already pending\");\n        \n        accessRequests[_patientAddress][msg.sender] = true;\n        pendingRequests[_patientAddress].push(msg.sender);\n        emit AccessRequested(_patientAddress, msg.sender);\n    }\n\n    function getPendingRequests(address _patientAddress) public view returns (address[] memory) {\n        return pendingRequests[_patientAddress];\n    }\n    \n    // Patient functions\n    function grantAccessToDoctor(address _doctorAddress) public onlyPatient {\n        require(users[_doctorAddress].role == Role.Doctor, \"Invalid doctor address\");\n        require(users[_doctorAddress].isActive, \"Doctor is not active\");\n        \n        doctorAccess[msg.sender][_doctorAddress] = true;\n        // Add doctor to authorized list if not already present\n        bool doctorExists = false;\n        for(uint i = 0; i < authorizedDoctorsList[msg.sender].length; i++) {\n            if(authorizedDoctorsList[msg.sender][i] == _doctorAddress) {\n                doctorExists = true;\n                break;\n            }\n        }\n        if(!doctorExists) {\n            authorizedDoctorsList[msg.sender].push(_doctorAddress);\n        }\n        \n        // Remove from pending requests if exists\n        if (accessRequests[msg.sender][_doctorAddress]) {\n            accessRequests[msg.sender][_doctorAddress] = false;\n            for(uint i = 0; i < pendingRequests[msg.sender].length; i++) {\n                if(pendingRequests[msg.sender][i] == _doctorAddress) {\n                    pendingRequests[msg.sender][i] = pendingRequests[msg.sender][pendingRequests[msg.sender].length - 1];\n                    pendingRequests[msg.sender].pop();\n                    break;\n                }\n            }\n        }\n        \n        emit AccessGranted(msg.sender, _doctorAddress);\n    }\n    \n    function revokeAccessFromDoctor(address _doctorAddress) public onlyPatient {\n        doctorAccess[msg.sender][_doctorAddress] = false;\n        // Remove doctor from authorized list\n        for(uint i = 0; i < authorizedDoctorsList[msg.sender].length; i++) {\n            if(authorizedDoctorsList[msg.sender][i] == _doctorAddress) {\n                // Move the last element to this position and pop the last element\n                authorizedDoctorsList[msg.sender][i] = authorizedDoctorsList[msg.sender][authorizedDoctorsList[msg.sender].length - 1];\n                authorizedDoctorsList[msg.sender].pop();\n                break;\n            }\n        }\n        emit AccessRevoked(msg.sender, _doctorAddress);\n    }\n\n    function rejectAccessRequest(address _doctorAddress) public onlyPatient {\n        require(users[_doctorAddress].role == Role.Doctor, \"Invalid doctor address\");\n        require(accessRequests[msg.sender][_doctorAddress], \"No pending request from this doctor\");\n\n        // Clear the access request\n        accessRequests[msg.sender][_doctorAddress] = false;\n\n        // Remove from pending requests\n        for(uint i = 0; i < pendingRequests[msg.sender].length; i++) {\n            if(pendingRequests[msg.sender][i] == _doctorAddress) {\n                pendingRequests[msg.sender][i] = pendingRequests[msg.sender][pendingRequests[msg.sender].length - 1];\n                pendingRequests[msg.sender].pop();\n                break;\n            }\n        }\n\n        emit RequestRejected(msg.sender, _doctorAddress);\n    }\n\n    // Document management functions\n    function addDocument(\n        address _patientAddress,\n        string memory _name,\n        string memory _ipfsHash\n    ) public {\n        require(\n            users[msg.sender].role == Role.Doctor && doctorAccess[_patientAddress][msg.sender] ||\n            msg.sender == _patientAddress,\n            \"Only authorized doctors or the patient can add documents\"\n        );\n        require(users[_patientAddress].role == Role.Patient, \"Invalid patient address\");\n        require(users[_patientAddress].isActive, \"Patient is not active\");\n\n        Document memory newDoc = Document({\n            name: _name,\n            ipfsHash: _ipfsHash,\n            timestamp: block.timestamp,\n            uploadedBy: msg.sender\n        });\n\n        patientDocuments[_patientAddress].push(newDoc);\n        emit DocumentAdded(_patientAddress, _name, _ipfsHash, msg.sender);\n    }\n\n    function getDocuments(address _patientAddress) public view returns (Document[] memory) {\n        require(\n            users[msg.sender].role == Role.Doctor && doctorAccess[_patientAddress][msg.sender] ||\n            msg.sender == _patientAddress,\n            \"Only authorized doctors or the patient can view documents\"\n        );\n        return patientDocuments[_patientAddress];\n    }\n\n    // View functions\n    function getUserRole(address _userAddress) public view returns (Role) {\n        return users[_userAddress].role;\n    }\n    \n    function checkDoctorAccess(address _patientAddress, address _doctorAddress) \n        public \n        view \n        returns (bool) \n    {\n        return doctorAccess[_patientAddress][_doctorAddress];\n    }\n    \n    function getAuthorizedDoctors(address _patientAddress) public view returns (address[] memory) {\n        return authorizedDoctorsList[_patientAddress];\n    }\n\n    // Emergency admin function\n    function addDefaultAdmin() public {\n        require(msg.sender == DEFAULT_ADMIN, \"Only default admin can call this\");\n        require(!users[DEFAULT_ADMIN].isActive, \"Default admin already exists\");\n        \n        users[DEFAULT_ADMIN] = User(\"Default Admin\", DEFAULT_ADMIN, Role.Admin, true, \"\");\n        emit UserAdded(DEFAULT_ADMIN, \"Default Admin\", Role.Admin);\n    }\n}\n",
  "sourcePath": "c:\\Users\\antho\\CascadeProjects\\windsurf-project\\contracts\\HealthRecord.sol",
  "compiler": {
    "name": "solc",
    "version": "0.8.0+commit.c7dfd78e.Emscripten.clang"
  },
  "schemaVersion": "3.4.16",
  "updatedAt": "2024-12-01T04:32:53.787Z",
  "devdoc": {
    "kind": "dev",
    "methods": {},
    "version": 1
  },
  "userdoc": {
    "kind": "user",
    "methods": {},
    "version": 1
  }
}