{
  "contractName": "HealthRecord",
  "abi": [
    {
      "inputs": [],
      "stateMutability": "nonpayable",
      "type": "constructor"
    },
    {
      "anonymous": false,
      "inputs": [
        {
          "indexed": true,
          "internalType": "address",
          "name": "patient",
          "type": "address"
        },
        {
          "indexed": true,
          "internalType": "address",
          "name": "doctor",
          "type": "address"
        }
      ],
      "name": "AccessGranted",
      "type": "event"
    },
    {
      "anonymous": false,
      "inputs": [
        {
          "indexed": true,
          "internalType": "address",
          "name": "patient",
          "type": "address"
        },
        {
          "indexed": true,
          "internalType": "address",
          "name": "doctor",
          "type": "address"
        }
      ],
      "name": "AccessRequested",
      "type": "event"
    },
    {
      "anonymous": false,
      "inputs": [
        {
          "indexed": true,
          "internalType": "address",
          "name": "patient",
          "type": "address"
        },
        {
          "indexed": true,
          "internalType": "address",
          "name": "doctor",
          "type": "address"
        }
      ],
      "name": "AccessRevoked",
      "type": "event"
    },
    {
      "anonymous": false,
      "inputs": [
        {
          "indexed": true,
          "internalType": "address",
          "name": "patient",
          "type": "address"
        },
        {
          "indexed": true,
          "internalType": "address",
          "name": "doctor",
          "type": "address"
        }
      ],
      "name": "RequestRejected",
      "type": "event"
    },
    {
      "anonymous": false,
      "inputs": [
        {
          "indexed": true,
          "internalType": "address",
          "name": "userAddress",
          "type": "address"
        },
        {
          "indexed": false,
          "internalType": "string",
          "name": "name",
          "type": "string"
        },
        {
          "indexed": false,
          "internalType": "enum HealthRecord.Role",
          "name": "role",
          "type": "uint8"
        }
      ],
      "name": "UserAdded",
      "type": "event"
    },
    {
      "anonymous": false,
      "inputs": [
        {
          "indexed": true,
          "internalType": "address",
          "name": "userAddress",
          "type": "address"
        }
      ],
      "name": "UserDeleted",
      "type": "event"
    },
    {
      "anonymous": false,
      "inputs": [
        {
          "indexed": true,
          "internalType": "address",
          "name": "userAddress",
          "type": "address"
        },
        {
          "indexed": false,
          "internalType": "string",
          "name": "name",
          "type": "string"
        },
        {
          "indexed": false,
          "internalType": "enum HealthRecord.Role",
          "name": "role",
          "type": "uint8"
        }
      ],
      "name": "UserUpdated",
      "type": "event"
    },
    {
      "inputs": [],
      "name": "DEFAULT_ADMIN",
      "outputs": [
        {
          "internalType": "address",
          "name": "",
          "type": "address"
        }
      ],
      "stateMutability": "view",
      "type": "function",
      "constant": true
    },
    {
      "inputs": [
        {
          "internalType": "address",
          "name": "",
          "type": "address"
        },
        {
          "internalType": "address",
          "name": "",
          "type": "address"
        }
      ],
      "name": "accessRequests",
      "outputs": [
        {
          "internalType": "bool",
          "name": "",
          "type": "bool"
        }
      ],
      "stateMutability": "view",
      "type": "function",
      "constant": true
    },
    {
      "inputs": [
        {
          "internalType": "address",
          "name": "",
          "type": "address"
        },
        {
          "internalType": "uint256",
          "name": "",
          "type": "uint256"
        }
      ],
      "name": "authorizedDoctorsList",
      "outputs": [
        {
          "internalType": "address",
          "name": "",
          "type": "address"
        }
      ],
      "stateMutability": "view",
      "type": "function",
      "constant": true
    },
    {
      "inputs": [
        {
          "internalType": "address",
          "name": "",
          "type": "address"
        },
        {
          "internalType": "address",
          "name": "",
          "type": "address"
        }
      ],
      "name": "doctorAccess",
      "outputs": [
        {
          "internalType": "bool",
          "name": "",
          "type": "bool"
        }
      ],
      "stateMutability": "view",
      "type": "function",
      "constant": true
    },
    {
      "inputs": [],
      "name": "owner",
      "outputs": [
        {
          "internalType": "address",
          "name": "",
          "type": "address"
        }
      ],
      "stateMutability": "view",
      "type": "function",
      "constant": true
    },
    {
      "inputs": [
        {
          "internalType": "address",
          "name": "",
          "type": "address"
        },
        {
          "internalType": "uint256",
          "name": "",
          "type": "uint256"
        }
      ],
      "name": "pendingRequests",
      "outputs": [
        {
          "internalType": "address",
          "name": "",
          "type": "address"
        }
      ],
      "stateMutability": "view",
      "type": "function",
      "constant": true
    },
    {
      "inputs": [
        {
          "internalType": "address",
          "name": "",
          "type": "address"
        }
      ],
      "name": "users",
      "outputs": [
        {
          "internalType": "string",
          "name": "name",
          "type": "string"
        },
        {
          "internalType": "address",
          "name": "userAddress",
          "type": "address"
        },
        {
          "internalType": "enum HealthRecord.Role",
          "name": "role",
          "type": "uint8"
        },
        {
          "internalType": "bool",
          "name": "isActive",
          "type": "bool"
        },
        {
          "internalType": "string",
          "name": "ipfsHash",
          "type": "string"
        }
      ],
      "stateMutability": "view",
      "type": "function",
      "constant": true
    },
    {
      "inputs": [
        {
          "internalType": "address",
          "name": "_userAddress",
          "type": "address"
        },
        {
          "internalType": "string",
          "name": "_name",
          "type": "string"
        },
        {
          "internalType": "enum HealthRecord.Role",
          "name": "_role",
          "type": "uint8"
        },
        {
          "internalType": "string",
          "name": "_ipfsHash",
          "type": "string"
        }
      ],
      "name": "addUser",
      "outputs": [],
      "stateMutability": "nonpayable",
      "type": "function"
    },
    {
      "inputs": [
        {
          "internalType": "address",
          "name": "_userAddress",
          "type": "address"
        },
        {
          "internalType": "string",
          "name": "_name",
          "type": "string"
        },
        {
          "internalType": "string",
          "name": "_ipfsHash",
          "type": "string"
        }
      ],
      "name": "updateUser",
      "outputs": [],
      "stateMutability": "nonpayable",
      "type": "function"
    },
    {
      "inputs": [
        {
          "internalType": "address",
          "name": "_userAddress",
          "type": "address"
        }
      ],
      "name": "deleteUser",
      "outputs": [],
      "stateMutability": "nonpayable",
      "type": "function"
    },
    {
      "inputs": [
        {
          "internalType": "address",
          "name": "_patientAddress",
          "type": "address"
        }
      ],
      "name": "requestAccess",
      "outputs": [],
      "stateMutability": "nonpayable",
      "type": "function"
    },
    {
      "inputs": [
        {
          "internalType": "address",
          "name": "_patientAddress",
          "type": "address"
        }
      ],
      "name": "getPendingRequests",
      "outputs": [
        {
          "internalType": "address[]",
          "name": "",
          "type": "address[]"
        }
      ],
      "stateMutability": "view",
      "type": "function",
      "constant": true
    },
    {
      "inputs": [
        {
          "internalType": "address",
          "name": "_doctorAddress",
          "type": "address"
        }
      ],
      "name": "grantAccessToDoctor",
      "outputs": [],
      "stateMutability": "nonpayable",
      "type": "function"
    },
    {
      "inputs": [
        {
          "internalType": "address",
          "name": "_doctorAddress",
          "type": "address"
        }
      ],
      "name": "revokeAccessFromDoctor",
      "outputs": [],
      "stateMutability": "nonpayable",
      "type": "function"
    },
    {
      "inputs": [
        {
          "internalType": "address",
          "name": "_doctorAddress",
          "type": "address"
        }
      ],
      "name": "rejectAccessRequest",
      "outputs": [],
      "stateMutability": "nonpayable",
      "type": "function"
    },
    {
      "inputs": [
        {
          "internalType": "address",
          "name": "_userAddress",
          "type": "address"
        }
      ],
      "name": "getUserRole",
      "outputs": [
        {
          "internalType": "enum HealthRecord.Role",
          "name": "",
          "type": "uint8"
        }
      ],
      "stateMutability": "view",
      "type": "function",
      "constant": true
    },
    {
      "inputs": [
        {
          "internalType": "address",
          "name": "_patientAddress",
          "type": "address"
        },
        {
          "internalType": "address",
          "name": "_doctorAddress",
          "type": "address"
        }
      ],
      "name": "checkDoctorAccess",
      "outputs": [
        {
          "internalType": "bool",
          "name": "",
          "type": "bool"
        }
      ],
      "stateMutability": "view",
      "type": "function",
      "constant": true
    },
    {
      "inputs": [
        {
          "internalType": "address",
          "name": "_patientAddress",
          "type": "address"
        }
      ],
      "name": "getAuthorizedDoctors",
      "outputs": [
        {
          "internalType": "address[]",
          "name": "",
          "type": "address[]"
        }
      ],
      "stateMutability": "view",
      "type": "function",
      "constant": true
    },
    {
      "inputs": [],
      "name": "addDefaultAdmin",
      "outputs": [],
      "stateMutability": "nonpayable",
      "type": "function"
    }
  ],
  "bytecode": "0x60806040523480156200001157600080fd5b50336000806101000a81548173ffffffffffffffffffffffffffffffffffffffff021916908373ffffffffffffffffffffffffffffffffffffffff16021790555073d9073e73717fca172f29b55a0368ae41de35d23773ffffffffffffffffffffffffffffffffffffffff163373ffffffffffffffffffffffffffffffffffffffff161415620002e8576040518060a001604052806040518060400160405280600d81526020017f44656661756c742041646d696e0000000000000000000000000000000000000081525081526020013373ffffffffffffffffffffffffffffffffffffffff16815260200160028081111562000137577f4e487b7100000000000000000000000000000000000000000000000000000000600052602160045260246000fd5b815260200160011515815260200160405180602001604052806000815250815250600160003373ffffffffffffffffffffffffffffffffffffffff1673ffffffffffffffffffffffffffffffffffffffff1681526020019081526020016000206000820151816000019080519060200190620001b5929190620002ee565b5060208201518160010160006101000a81548173ffffffffffffffffffffffffffffffffffffffff021916908373ffffffffffffffffffffffffffffffffffffffff16021790555060408201518160010160146101000a81548160ff021916908360028111156200024f577f4e487b7100000000000000000000000000000000000000000000000000000000600052602160045260246000fd5b021790555060608201518160010160156101000a81548160ff021916908315150217905550608082015181600201908051906020019062000292929190620002ee565b509050503373ffffffffffffffffffffffffffffffffffffffff167f8897d4c16f6b907647cc92f3b2f80418ac81581b8e74f9dda595d3910b44c8626002604051620002df9190620003f1565b60405180910390a25b62000508565b828054620002fc906200045d565b90600052602060002090601f0160209004810192826200032057600085556200036c565b82601f106200033b57805160ff19168380011785556200036c565b828001600101855582156200036c579182015b828111156200036b5782518255916020019190600101906200034e565b5b5090506200037b91906200037f565b5090565b5b808211156200039a57600081600090555060010162000380565b5090565b620003a98162000449565b82525050565b6000620003be600d8362000423565b91507f44656661756c742041646d696e000000000000000000000000000000000000006000830152602082019050919050565b600060408201905081810360008301526200040c81620003af565b90506200041d60208301846200039e565b92915050565b600082825260208201905092915050565b60008190506200044482620004f1565b919050565b6000620004568262000434565b9050919050565b600060028204905060018216806200047657607f821691505b602082108114156200048d576200048c620004c2565b5b50919050565b7f4e487b7100000000000000000000000000000000000000000000000000000000600052602160045260246000fd5b7f4e487b7100000000000000000000000000000000000000000000000000000000600052602260045260246000fd5b6003811062000505576200050462000493565b5b50565b6154ba80620005186000396000f3fe608060405234801561001057600080fd5b50600436106101215760003560e01c80639cdeba95116100ad578063cbf8a64b11610071578063cbf8a64b1461032e578063d55f52471461035e578063e68ddac81461037a578063f05bfa7b14610384578063fe127fcb146103b457610121565b80639cdeba951461024c578063a87430ba1461026a578063ab4f23291461029e578063b2d566c1146102ce578063b51c17b9146102fe57610121565b8063488ff1c8116100f4578063488ff1c8146101aa5780635c60f226146101da578063629e559d146101f657806365a410a3146102125780638da5cb5b1461022e57610121565b8063022cb2711461012657806310e8b22d146101425780631c8e251c1461015e578063278208511461017a575b600080fd5b610140600480360381019061013b919061466f565b6103e4565b005b61015c60048036038101906101579190614767565b61099d565b005b6101786004803603810190610173919061466f565b610d0e565b005b610194600480360381019061018f919061466f565b6117c2565b6040516101a19190614e57565b60405180910390f35b6101c460048036038101906101bf91906147e6565b61181b565b6040516101d19190614dff565b60405180910390f35b6101f460048036038101906101ef919061466f565b611869565b005b610210600480360381019061020b919061466f565b612415565b005b61022c600480360381019061022791906146d4565b612a2c565b005b6102366134e4565b6040516102439190614dff565b60405180910390f35b610254613508565b6040516102619190614dff565b60405180910390f35b610284600480360381019061027f919061466f565b613520565b604051610295959493929190614e72565b60405180910390f35b6102b860048036038101906102b39190614698565b6136a0565b6040516102c59190614e3c565b60405180910390f35b6102e860048036038101906102e39190614698565b6136cf565b6040516102f59190614e3c565b60405180910390f35b610318600480360381019061031391906147e6565b613763565b6040516103259190614dff565b60405180910390f35b6103486004803603810190610343919061466f565b6137b1565b6040516103559190614e1a565b60405180910390f35b6103786004803603810190610373919061466f565b61387e565b005b610382614060565b005b61039e6004803603810190610399919061466f565b614408565b6040516103ab9190614e1a565b60405180910390f35b6103ce60048036038101906103c99190614698565b6144d5565b6040516103db9190614e3c565b60405180910390f35b6001600281111561041e577f4e487b7100000000000000000000000000000000000000000000000000000000600052602160045260246000fd5b600160003373ffffffffffffffffffffffffffffffffffffffff1673ffffffffffffffffffffffffffffffffffffffff16815260200190815260200160002060010160149054906101000a900460ff1660028111156104a6577f4e487b7100000000000000000000000000000000000000000000000000000000600052602160045260246000fd5b146104e6576040517f08c379a00000000000000000000000000000000000000000000000000000000081526004016104dd906150f1565b60405180910390fd5b600160003373ffffffffffffffffffffffffffffffffffffffff1673ffffffffffffffffffffffffffffffffffffffff16815260200190815260200160002060010160159054906101000a900460ff16610575576040517f08c379a000000000000000000000000000000000000000000000000000000000815260040161056c90614fc3565b60405180910390fd5b600060028111156105af577f4e487b7100000000000000000000000000000000000000000000000000000000600052602160045260246000fd5b600160008373ffffffffffffffffffffffffffffffffffffffff1673ffffffffffffffffffffffffffffffffffffffff16815260200190815260200160002060010160149054906101000a900460ff166002811115610637577f4e487b7100000000000000000000000000000000000000000000000000000000600052602160045260246000fd5b14610677576040517f08c379a000000000000000000000000000000000000000000000000000000000815260040161066e90614fa3565b60405180910390fd5b600260008273ffffffffffffffffffffffffffffffffffffffff1673ffffffffffffffffffffffffffffffffffffffff16815260200190815260200160002060003373ffffffffffffffffffffffffffffffffffffffff1673ffffffffffffffffffffffffffffffffffffffff16815260200190815260200160002060009054906101000a900460ff1615610741576040517f08c379a000000000000000000000000000000000000000000000000000000000815260040161073890614f83565b60405180910390fd5b600460008273ffffffffffffffffffffffffffffffffffffffff1673ffffffffffffffffffffffffffffffffffffffff16815260200190815260200160002060003373ffffffffffffffffffffffffffffffffffffffff1673ffffffffffffffffffffffffffffffffffffffff16815260200190815260200160002060009054906101000a900460ff161561080b576040517f08c379a000000000000000000000000000000000000000000000000000000000815260040161080290615071565b60405180910390fd5b6001600460008373ffffffffffffffffffffffffffffffffffffffff1673ffffffffffffffffffffffffffffffffffffffff16815260200190815260200160002060003373ffffffffffffffffffffffffffffffffffffffff1673ffffffffffffffffffffffffffffffffffffffff16815260200190815260200160002060006101000a81548160ff021916908315150217905550600560008273ffffffffffffffffffffffffffffffffffffffff1673ffffffffffffffffffffffffffffffffffffffff168152602001908152602001600020339080600181540180825580915050600190039060005260206000200160009091909190916101000a81548173ffffffffffffffffffffffffffffffffffffffff021916908373ffffffffffffffffffffffffffffffffffffffff1602179055503373ffffffffffffffffffffffffffffffffffffffff168173ffffffffffffffffffffffffffffffffffffffff167f40c7749b16fdfb0d550f20273a7767875059d647af94f5a9610c63ad73dcc79f60405160405180910390a350565b6002808111156109d6577f4e487b7100000000000000000000000000000000000000000000000000000000600052602160045260246000fd5b600160003373ffffffffffffffffffffffffffffffffffffffff1673ffffffffffffffffffffffffffffffffffffffff16815260200190815260200160002060010160149054906101000a900460ff166002811115610a5e577f4e487b7100000000000000000000000000000000000000000000000000000000600052602160045260246000fd5b14610a9e576040517f08c379a0000000000000000000000000000000000000000000000000000000008152600401610a95906150b1565b60405180910390fd5b600160003373ffffffffffffffffffffffffffffffffffffffff1673ffffffffffffffffffffffffffffffffffffffff16815260200190815260200160002060010160159054906101000a900460ff16610b2d576040517f08c379a0000000000000000000000000000000000000000000000000000000008152600401610b2490615091565b60405180910390fd5b600160008473ffffffffffffffffffffffffffffffffffffffff1673ffffffffffffffffffffffffffffffffffffffff16815260200190815260200160002060010160159054906101000a900460ff16610bbc576040517f08c379a0000000000000000000000000000000000000000000000000000000008152600401610bb3906150d1565b60405180910390fd5b81600160008573ffffffffffffffffffffffffffffffffffffffff1673ffffffffffffffffffffffffffffffffffffffff1681526020019081526020016000206000019080519060200190610c12929190614504565b5080600160008573ffffffffffffffffffffffffffffffffffffffff1673ffffffffffffffffffffffffffffffffffffffff1681526020019081526020016000206002019080519060200190610c69929190614504565b508273ffffffffffffffffffffffffffffffffffffffff167fefdadc7a28168743850ed04edc06f2f26eca08d86d4e5877b355f1eecb3d2bca83600160008773ffffffffffffffffffffffffffffffffffffffff1673ffffffffffffffffffffffffffffffffffffffff16815260200190815260200160002060010160149054906101000a900460ff16604051610d01929190614ed3565b60405180910390a2505050565b60006002811115610d48577f4e487b7100000000000000000000000000000000000000000000000000000000600052602160045260246000fd5b600160003373ffffffffffffffffffffffffffffffffffffffff1673ffffffffffffffffffffffffffffffffffffffff16815260200190815260200160002060010160149054906101000a900460ff166002811115610dd0577f4e487b7100000000000000000000000000000000000000000000000000000000600052602160045260246000fd5b14610e10576040517f08c379a0000000000000000000000000000000000000000000000000000000008152600401610e0790615031565b60405180910390fd5b600160003373ffffffffffffffffffffffffffffffffffffffff1673ffffffffffffffffffffffffffffffffffffffff16815260200190815260200160002060010160159054906101000a900460ff16610e9f576040517f08c379a0000000000000000000000000000000000000000000000000000000008152600401610e9690614fe3565b60405180910390fd5b60016002811115610ed9577f4e487b7100000000000000000000000000000000000000000000000000000000600052602160045260246000fd5b600160008373ffffffffffffffffffffffffffffffffffffffff1673ffffffffffffffffffffffffffffffffffffffff16815260200190815260200160002060010160149054906101000a900460ff166002811115610f61577f4e487b7100000000000000000000000000000000000000000000000000000000600052602160045260246000fd5b14610fa1576040517f08c379a0000000000000000000000000000000000000000000000000000000008152600401610f9890614f43565b60405180910390fd5b600160008273ffffffffffffffffffffffffffffffffffffffff1673ffffffffffffffffffffffffffffffffffffffff16815260200190815260200160002060010160159054906101000a900460ff16611030576040517f08c379a000000000000000000000000000000000000000000000000000000000815260040161102790615131565b60405180910390fd5b6001600260003373ffffffffffffffffffffffffffffffffffffffff1673ffffffffffffffffffffffffffffffffffffffff16815260200190815260200160002060008373ffffffffffffffffffffffffffffffffffffffff1673ffffffffffffffffffffffffffffffffffffffff16815260200190815260200160002060006101000a81548160ff0219169083151502179055506000805b600360003373ffffffffffffffffffffffffffffffffffffffff1673ffffffffffffffffffffffffffffffffffffffff16815260200190815260200160002080549050811015611204578273ffffffffffffffffffffffffffffffffffffffff16600360003373ffffffffffffffffffffffffffffffffffffffff1673ffffffffffffffffffffffffffffffffffffffff16815260200190815260200160002082815481106111a1577f4e487b7100000000000000000000000000000000000000000000000000000000600052603260045260246000fd5b9060005260206000200160009054906101000a900473ffffffffffffffffffffffffffffffffffffffff1673ffffffffffffffffffffffffffffffffffffffff1614156111f15760019150611204565b80806111fc9061531c565b9150506110c9565b50806112ab57600360003373ffffffffffffffffffffffffffffffffffffffff1673ffffffffffffffffffffffffffffffffffffffff168152602001908152602001600020829080600181540180825580915050600190039060005260206000200160009091909190916101000a81548173ffffffffffffffffffffffffffffffffffffffff021916908373ffffffffffffffffffffffffffffffffffffffff1602179055505b600460003373ffffffffffffffffffffffffffffffffffffffff1673ffffffffffffffffffffffffffffffffffffffff16815260200190815260200160002060008373ffffffffffffffffffffffffffffffffffffffff1673ffffffffffffffffffffffffffffffffffffffff16815260200190815260200160002060009054906101000a900460ff1615611764576000600460003373ffffffffffffffffffffffffffffffffffffffff1673ffffffffffffffffffffffffffffffffffffffff16815260200190815260200160002060008473ffffffffffffffffffffffffffffffffffffffff1673ffffffffffffffffffffffffffffffffffffffff16815260200190815260200160002060006101000a81548160ff02191690831515021790555060005b600560003373ffffffffffffffffffffffffffffffffffffffff1673ffffffffffffffffffffffffffffffffffffffff16815260200190815260200160002080549050811015611762578273ffffffffffffffffffffffffffffffffffffffff16600560003373ffffffffffffffffffffffffffffffffffffffff1673ffffffffffffffffffffffffffffffffffffffff16815260200190815260200160002082815481106114aa577f4e487b7100000000000000000000000000000000000000000000000000000000600052603260045260246000fd5b9060005260206000200160009054906101000a900473ffffffffffffffffffffffffffffffffffffffff1673ffffffffffffffffffffffffffffffffffffffff16141561174f57600560003373ffffffffffffffffffffffffffffffffffffffff1673ffffffffffffffffffffffffffffffffffffffff1681526020019081526020016000206001600560003373ffffffffffffffffffffffffffffffffffffffff1673ffffffffffffffffffffffffffffffffffffffff1681526020019081526020016000208054905061157f9190615207565b815481106115b6577f4e487b7100000000000000000000000000000000000000000000000000000000600052603260045260246000fd5b9060005260206000200160009054906101000a900473ffffffffffffffffffffffffffffffffffffffff16600560003373ffffffffffffffffffffffffffffffffffffffff1673ffffffffffffffffffffffffffffffffffffffff1681526020019081526020016000208281548110611658577f4e487b7100000000000000000000000000000000000000000000000000000000600052603260045260246000fd5b9060005260206000200160006101000a81548173ffffffffffffffffffffffffffffffffffffffff021916908373ffffffffffffffffffffffffffffffffffffffff160217905550600560003373ffffffffffffffffffffffffffffffffffffffff1673ffffffffffffffffffffffffffffffffffffffff168152602001908152602001600020805480611715577f4e487b7100000000000000000000000000000000000000000000000000000000600052603160045260246000fd5b6001900381819060005260206000200160006101000a81549073ffffffffffffffffffffffffffffffffffffffff02191690559055611762565b808061175a9061531c565b9150506113d2565b505b8173ffffffffffffffffffffffffffffffffffffffff163373ffffffffffffffffffffffffffffffffffffffff167f9f520b3bfc56d06f7065d10b4683b3f57ac8895d5026cd176dee95ce1454cb8d60405160405180910390a35050565b6000600160008373ffffffffffffffffffffffffffffffffffffffff1673ffffffffffffffffffffffffffffffffffffffff16815260200190815260200160002060010160149054906101000a900460ff169050919050565b6005602052816000526040600020818154811061183757600080fd5b906000526020600020016000915091509054906101000a900473ffffffffffffffffffffffffffffffffffffffff1681565b6002808111156118a2577f4e487b7100000000000000000000000000000000000000000000000000000000600052602160045260246000fd5b600160003373ffffffffffffffffffffffffffffffffffffffff1673ffffffffffffffffffffffffffffffffffffffff16815260200190815260200160002060010160149054906101000a900460ff16600281111561192a577f4e487b7100000000000000000000000000000000000000000000000000000000600052602160045260246000fd5b1461196a576040517f08c379a0000000000000000000000000000000000000000000000000000000008152600401611961906150b1565b60405180910390fd5b600160003373ffffffffffffffffffffffffffffffffffffffff1673ffffffffffffffffffffffffffffffffffffffff16815260200190815260200160002060010160159054906101000a900460ff166119f9576040517f08c379a00000000000000000000000000000000000000000000000000000000081526004016119f090615091565b60405180910390fd5b600160008273ffffffffffffffffffffffffffffffffffffffff1673ffffffffffffffffffffffffffffffffffffffff16815260200190815260200160002060010160159054906101000a900460ff16611a88576040517f08c379a0000000000000000000000000000000000000000000000000000000008152600401611a7f906150d1565b60405180910390fd5b73d9073e73717fca172f29b55a0368ae41de35d23773ffffffffffffffffffffffffffffffffffffffff168173ffffffffffffffffffffffffffffffffffffffff161415611b0b576040517f08c379a0000000000000000000000000000000000000000000000000000000008152600401611b0290615051565b60405180910390fd5b60006002811115611b45577f4e487b7100000000000000000000000000000000000000000000000000000000600052602160045260246000fd5b600160008373ffffffffffffffffffffffffffffffffffffffff1673ffffffffffffffffffffffffffffffffffffffff16815260200190815260200160002060010160149054906101000a900460ff166002811115611bcd577f4e487b7100000000000000000000000000000000000000000000000000000000600052602160045260246000fd5b1415612071576000600360008373ffffffffffffffffffffffffffffffffffffffff1673ffffffffffffffffffffffffffffffffffffffff168152602001908152602001600020805480602002602001604051908101604052809291908181526020018280548015611c9457602002820191906000526020600020905b8160009054906101000a900473ffffffffffffffffffffffffffffffffffffffff1673ffffffffffffffffffffffffffffffffffffffff1681526020019060010190808311611c4a575b5050505050905060005b8151811015611de6576000828281518110611ce2577f4e487b7100000000000000000000000000000000000000000000000000000000600052603260045260246000fd5b60200260200101519050600260008573ffffffffffffffffffffffffffffffffffffffff1673ffffffffffffffffffffffffffffffffffffffff16815260200190815260200160002060008273ffffffffffffffffffffffffffffffffffffffff1673ffffffffffffffffffffffffffffffffffffffff16815260200190815260200160002060006101000a81549060ff02191690558073ffffffffffffffffffffffffffffffffffffffff168473ffffffffffffffffffffffffffffffffffffffff167f825c8be24eb0df19500f63e86c29e7d0d951e73056b889b891d85e40938d9b6e60405160405180910390a3508080611dde9061531c565b915050611c9e565b50600360008373ffffffffffffffffffffffffffffffffffffffff1673ffffffffffffffffffffffffffffffffffffffff1681526020019081526020016000206000611e32919061458a565b60005b600560008473ffffffffffffffffffffffffffffffffffffffff1673ffffffffffffffffffffffffffffffffffffffff1681526020019081526020016000208054905081101561201f576000600560008573ffffffffffffffffffffffffffffffffffffffff1673ffffffffffffffffffffffffffffffffffffffff1681526020019081526020016000208281548110611ef8577f4e487b7100000000000000000000000000000000000000000000000000000000600052603260045260246000fd5b9060005260206000200160009054906101000a900473ffffffffffffffffffffffffffffffffffffffff169050600460008573ffffffffffffffffffffffffffffffffffffffff1673ffffffffffffffffffffffffffffffffffffffff16815260200190815260200160002060008273ffffffffffffffffffffffffffffffffffffffff1673ffffffffffffffffffffffffffffffffffffffff16815260200190815260200160002060006101000a81549060ff02191690558073ffffffffffffffffffffffffffffffffffffffff168473ffffffffffffffffffffffffffffffffffffffff167fbc07c2fb61df8e6f70aab44a06f5bfa00c1333a244a7ef055273445db3b26ed160405160405180910390a35080806120179061531c565b915050611e35565b50600560008373ffffffffffffffffffffffffffffffffffffffff1673ffffffffffffffffffffffffffffffffffffffff168152602001908152602001600020600061206b919061458a565b50612374565b600160028111156120ab577f4e487b7100000000000000000000000000000000000000000000000000000000600052602160045260246000fd5b600160008373ffffffffffffffffffffffffffffffffffffffff1673ffffffffffffffffffffffffffffffffffffffff16815260200190815260200160002060010160149054906101000a900460ff166002811115612133577f4e487b7100000000000000000000000000000000000000000000000000000000600052602160045260246000fd5b14156123735760005b600360003373ffffffffffffffffffffffffffffffffffffffff1673ffffffffffffffffffffffffffffffffffffffff16815260200190815260200160002080549050811015612326576000600360003373ffffffffffffffffffffffffffffffffffffffff1673ffffffffffffffffffffffffffffffffffffffff16815260200190815260200160002082815481106121ff577f4e487b7100000000000000000000000000000000000000000000000000000000600052603260045260246000fd5b9060005260206000200160009054906101000a900473ffffffffffffffffffffffffffffffffffffffff169050600260008273ffffffffffffffffffffffffffffffffffffffff1673ffffffffffffffffffffffffffffffffffffffff16815260200190815260200160002060008473ffffffffffffffffffffffffffffffffffffffff1673ffffffffffffffffffffffffffffffffffffffff16815260200190815260200160002060006101000a81549060ff02191690558273ffffffffffffffffffffffffffffffffffffffff168173ffffffffffffffffffffffffffffffffffffffff167f825c8be24eb0df19500f63e86c29e7d0d951e73056b889b891d85e40938d9b6e60405160405180910390a350808061231e9061531c565b91505061213c565b50600360003373ffffffffffffffffffffffffffffffffffffffff1673ffffffffffffffffffffffffffffffffffffffff1681526020019081526020016000206000612372919061458a565b5b5b6000600160008373ffffffffffffffffffffffffffffffffffffffff1673ffffffffffffffffffffffffffffffffffffffff16815260200190815260200160002060010160156101000a81548160ff0219169083151502179055508073ffffffffffffffffffffffffffffffffffffffff167f4bc56f1321288dfb5b416cb3a7fd188723979f9e866c91d88eccf7fca039d03960405160405180910390a250565b6000600281111561244f577f4e487b7100000000000000000000000000000000000000000000000000000000600052602160045260246000fd5b600160003373ffffffffffffffffffffffffffffffffffffffff1673ffffffffffffffffffffffffffffffffffffffff16815260200190815260200160002060010160149054906101000a900460ff1660028111156124d7577f4e487b7100000000000000000000000000000000000000000000000000000000600052602160045260246000fd5b14612517576040517f08c379a000000000000000000000000000000000000000000000000000000000815260040161250e90615031565b60405180910390fd5b600160003373ffffffffffffffffffffffffffffffffffffffff1673ffffffffffffffffffffffffffffffffffffffff16815260200190815260200160002060010160159054906101000a900460ff166125a6576040517f08c379a000000000000000000000000000000000000000000000000000000000815260040161259d90614fe3565b60405180910390fd5b6000600260003373ffffffffffffffffffffffffffffffffffffffff1673ffffffffffffffffffffffffffffffffffffffff16815260200190815260200160002060008373ffffffffffffffffffffffffffffffffffffffff1673ffffffffffffffffffffffffffffffffffffffff16815260200190815260200160002060006101000a81548160ff02191690831515021790555060005b600360003373ffffffffffffffffffffffffffffffffffffffff1673ffffffffffffffffffffffffffffffffffffffff168152602001908152602001600020805490508110156129ce578173ffffffffffffffffffffffffffffffffffffffff16600360003373ffffffffffffffffffffffffffffffffffffffff1673ffffffffffffffffffffffffffffffffffffffff1681526020019081526020016000208281548110612716577f4e487b7100000000000000000000000000000000000000000000000000000000600052603260045260246000fd5b9060005260206000200160009054906101000a900473ffffffffffffffffffffffffffffffffffffffff1673ffffffffffffffffffffffffffffffffffffffff1614156129bb57600360003373ffffffffffffffffffffffffffffffffffffffff1673ffffffffffffffffffffffffffffffffffffffff1681526020019081526020016000206001600360003373ffffffffffffffffffffffffffffffffffffffff1673ffffffffffffffffffffffffffffffffffffffff168152602001908152602001600020805490506127eb9190615207565b81548110612822577f4e487b7100000000000000000000000000000000000000000000000000000000600052603260045260246000fd5b9060005260206000200160009054906101000a900473ffffffffffffffffffffffffffffffffffffffff16600360003373ffffffffffffffffffffffffffffffffffffffff1673ffffffffffffffffffffffffffffffffffffffff16815260200190815260200160002082815481106128c4577f4e487b7100000000000000000000000000000000000000000000000000000000600052603260045260246000fd5b9060005260206000200160006101000a81548173ffffffffffffffffffffffffffffffffffffffff021916908373ffffffffffffffffffffffffffffffffffffffff160217905550600360003373ffffffffffffffffffffffffffffffffffffffff1673ffffffffffffffffffffffffffffffffffffffff168152602001908152602001600020805480612981577f4e487b7100000000000000000000000000000000000000000000000000000000600052603160045260246000fd5b6001900381819060005260206000200160006101000a81549073ffffffffffffffffffffffffffffffffffffffff021916905590556129ce565b80806129c69061531c565b91505061263e565b508073ffffffffffffffffffffffffffffffffffffffff163373ffffffffffffffffffffffffffffffffffffffff167f825c8be24eb0df19500f63e86c29e7d0d951e73056b889b891d85e40938d9b6e60405160405180910390a350565b600280811115612a65577f4e487b7100000000000000000000000000000000000000000000000000000000600052602160045260246000fd5b600160003373ffffffffffffffffffffffffffffffffffffffff1673ffffffffffffffffffffffffffffffffffffffff16815260200190815260200160002060010160149054906101000a900460ff166002811115612aed577f4e487b7100000000000000000000000000000000000000000000000000000000600052602160045260246000fd5b14612b2d576040517f08c379a0000000000000000000000000000000000000000000000000000000008152600401612b24906150b1565b60405180910390fd5b600160003373ffffffffffffffffffffffffffffffffffffffff1673ffffffffffffffffffffffffffffffffffffffff16815260200190815260200160002060010160159054906101000a900460ff16612bbc576040517f08c379a0000000000000000000000000000000000000000000000000000000008152600401612bb390615091565b60405180910390fd5b600073ffffffffffffffffffffffffffffffffffffffff168473ffffffffffffffffffffffffffffffffffffffff161415612c2c576040517f08c379a0000000000000000000000000000000000000000000000000000000008152600401612c2390614f03565b60405180910390fd5b60006002811115612c66577f4e487b7100000000000000000000000000000000000000000000000000000000600052602160045260246000fd5b826002811115612c9f577f4e487b7100000000000000000000000000000000000000000000000000000000600052602160045260246000fd5b1415613083576000600360008673ffffffffffffffffffffffffffffffffffffffff1673ffffffffffffffffffffffffffffffffffffffff168152602001908152602001600020805480602002602001604051908101604052809291908181526020018280548015612d6657602002820191906000526020600020905b8160009054906101000a900473ffffffffffffffffffffffffffffffffffffffff1673ffffffffffffffffffffffffffffffffffffffff1681526020019060010190808311612d1c575b5050505050905060005b8151811015612e5857600260008773ffffffffffffffffffffffffffffffffffffffff1673ffffffffffffffffffffffffffffffffffffffff1681526020019081526020016000206000838381518110612df3577f4e487b7100000000000000000000000000000000000000000000000000000000600052603260045260246000fd5b602002602001015173ffffffffffffffffffffffffffffffffffffffff1673ffffffffffffffffffffffffffffffffffffffff16815260200190815260200160002060006101000a81549060ff02191690558080612e509061531c565b915050612d70565b50600360008673ffffffffffffffffffffffffffffffffffffffff1673ffffffffffffffffffffffffffffffffffffffff1681526020019081526020016000206000612ea4919061458a565b60005b600560008773ffffffffffffffffffffffffffffffffffffffff1673ffffffffffffffffffffffffffffffffffffffff1681526020019081526020016000208054905081101561303157600460008773ffffffffffffffffffffffffffffffffffffffff1673ffffffffffffffffffffffffffffffffffffffff1681526020019081526020016000206000600560008973ffffffffffffffffffffffffffffffffffffffff1673ffffffffffffffffffffffffffffffffffffffff1681526020019081526020016000208381548110612fa9577f4e487b7100000000000000000000000000000000000000000000000000000000600052603260045260246000fd5b9060005260206000200160009054906101000a900473ffffffffffffffffffffffffffffffffffffffff1673ffffffffffffffffffffffffffffffffffffffff1673ffffffffffffffffffffffffffffffffffffffff16815260200190815260200160002060006101000a81549060ff021916905580806130299061531c565b915050612ea7565b50600560008673ffffffffffffffffffffffffffffffffffffffff1673ffffffffffffffffffffffffffffffffffffffff168152602001908152602001600020600061307d919061458a565b506132dd565b600160028111156130bd577f4e487b7100000000000000000000000000000000000000000000000000000000600052602160045260246000fd5b8260028111156130f6577f4e487b7100000000000000000000000000000000000000000000000000000000600052602160045260246000fd5b14156132dc5760005b600360008673ffffffffffffffffffffffffffffffffffffffff1673ffffffffffffffffffffffffffffffffffffffff1681526020019081526020016000208054905081101561328f576000600360008773ffffffffffffffffffffffffffffffffffffffff1673ffffffffffffffffffffffffffffffffffffffff16815260200190815260200160002082815481106131c2577f4e487b7100000000000000000000000000000000000000000000000000000000600052603260045260246000fd5b9060005260206000200160009054906101000a900473ffffffffffffffffffffffffffffffffffffffff169050600260008273ffffffffffffffffffffffffffffffffffffffff1673ffffffffffffffffffffffffffffffffffffffff16815260200190815260200160002060008773ffffffffffffffffffffffffffffffffffffffff1673ffffffffffffffffffffffffffffffffffffffff16815260200190815260200160002060006101000a81549060ff02191690555080806132879061531c565b9150506130ff565b50600360008573ffffffffffffffffffffffffffffffffffffffff1673ffffffffffffffffffffffffffffffffffffffff16815260200190815260200160002060006132db919061458a565b5b5b6040518060a001604052808481526020018573ffffffffffffffffffffffffffffffffffffffff168152602001836002811115613343577f4e487b7100000000000000000000000000000000000000000000000000000000600052602160045260246000fd5b815260200160011515815260200182815250600160008673ffffffffffffffffffffffffffffffffffffffff1673ffffffffffffffffffffffffffffffffffffffff16815260200190815260200160002060008201518160000190805190602001906133b0929190614504565b5060208201518160010160006101000a81548173ffffffffffffffffffffffffffffffffffffffff021916908373ffffffffffffffffffffffffffffffffffffffff16021790555060408201518160010160146101000a81548160ff02191690836002811115613449577f4e487b7100000000000000000000000000000000000000000000000000000000600052602160045260246000fd5b021790555060608201518160010160156101000a81548160ff021916908315150217905550608082015181600201908051906020019061348a929190614504565b509050508373ffffffffffffffffffffffffffffffffffffffff167f8897d4c16f6b907647cc92f3b2f80418ac81581b8e74f9dda595d3910b44c86284846040516134d6929190614ed3565b60405180910390a250505050565b60008054906101000a900473ffffffffffffffffffffffffffffffffffffffff1681565b73d9073e73717fca172f29b55a0368ae41de35d23781565b6001602052806000526040600020600091509050806000018054613543906152ea565b80601f016020809104026020016040519081016040528092919081815260200182805461356f906152ea565b80156135bc5780601f10613591576101008083540402835291602001916135bc565b820191906000526020600020905b81548152906001019060200180831161359f57829003601f168201915b5050505050908060010160009054906101000a900473ffffffffffffffffffffffffffffffffffffffff16908060010160149054906101000a900460ff16908060010160159054906101000a900460ff169080600201805461361d906152ea565b80601f0160208091040260200160405190810160405280929190818152602001828054613649906152ea565b80156136965780601f1061366b57610100808354040283529160200191613696565b820191906000526020600020905b81548152906001019060200180831161367957829003601f168201915b5050505050905085565b60046020528160005260406000206020528060005260406000206000915091509054906101000a900460ff1681565b6000600260008473ffffffffffffffffffffffffffffffffffffffff1673ffffffffffffffffffffffffffffffffffffffff16815260200190815260200160002060008373ffffffffffffffffffffffffffffffffffffffff1673ffffffffffffffffffffffffffffffffffffffff16815260200190815260200160002060009054906101000a900460ff16905092915050565b6003602052816000526040600020818154811061377f57600080fd5b906000526020600020016000915091509054906101000a900473ffffffffffffffffffffffffffffffffffffffff1681565b6060600360008373ffffffffffffffffffffffffffffffffffffffff1673ffffffffffffffffffffffffffffffffffffffff16815260200190815260200160002080548060200260200160405190810160405280929190818152602001828054801561387257602002820191906000526020600020905b8160009054906101000a900473ffffffffffffffffffffffffffffffffffffffff1673ffffffffffffffffffffffffffffffffffffffff1681526020019060010190808311613828575b50505050509050919050565b600060028111156138b8577f4e487b7100000000000000000000000000000000000000000000000000000000600052602160045260246000fd5b600160003373ffffffffffffffffffffffffffffffffffffffff1673ffffffffffffffffffffffffffffffffffffffff16815260200190815260200160002060010160149054906101000a900460ff166002811115613940577f4e487b7100000000000000000000000000000000000000000000000000000000600052602160045260246000fd5b14613980576040517f08c379a000000000000000000000000000000000000000000000000000000000815260040161397790615031565b60405180910390fd5b600160003373ffffffffffffffffffffffffffffffffffffffff1673ffffffffffffffffffffffffffffffffffffffff16815260200190815260200160002060010160159054906101000a900460ff16613a0f576040517f08c379a0000000000000000000000000000000000000000000000000000000008152600401613a0690614fe3565b60405180910390fd5b60016002811115613a49577f4e487b7100000000000000000000000000000000000000000000000000000000600052602160045260246000fd5b600160008373ffffffffffffffffffffffffffffffffffffffff1673ffffffffffffffffffffffffffffffffffffffff16815260200190815260200160002060010160149054906101000a900460ff166002811115613ad1577f4e487b7100000000000000000000000000000000000000000000000000000000600052602160045260246000fd5b14613b11576040517f08c379a0000000000000000000000000000000000000000000000000000000008152600401613b0890614f43565b60405180910390fd5b600460003373ffffffffffffffffffffffffffffffffffffffff1673ffffffffffffffffffffffffffffffffffffffff16815260200190815260200160002060008273ffffffffffffffffffffffffffffffffffffffff1673ffffffffffffffffffffffffffffffffffffffff16815260200190815260200160002060009054906101000a900460ff16613bda576040517f08c379a0000000000000000000000000000000000000000000000000000000008152600401613bd190614f23565b60405180910390fd5b6000600460003373ffffffffffffffffffffffffffffffffffffffff1673ffffffffffffffffffffffffffffffffffffffff16815260200190815260200160002060008373ffffffffffffffffffffffffffffffffffffffff1673ffffffffffffffffffffffffffffffffffffffff16815260200190815260200160002060006101000a81548160ff02191690831515021790555060005b600560003373ffffffffffffffffffffffffffffffffffffffff1673ffffffffffffffffffffffffffffffffffffffff16815260200190815260200160002080549050811015614002578173ffffffffffffffffffffffffffffffffffffffff16600560003373ffffffffffffffffffffffffffffffffffffffff1673ffffffffffffffffffffffffffffffffffffffff1681526020019081526020016000208281548110613d4a577f4e487b7100000000000000000000000000000000000000000000000000000000600052603260045260246000fd5b9060005260206000200160009054906101000a900473ffffffffffffffffffffffffffffffffffffffff1673ffffffffffffffffffffffffffffffffffffffff161415613fef57600560003373ffffffffffffffffffffffffffffffffffffffff1673ffffffffffffffffffffffffffffffffffffffff1681526020019081526020016000206001600560003373ffffffffffffffffffffffffffffffffffffffff1673ffffffffffffffffffffffffffffffffffffffff16815260200190815260200160002080549050613e1f9190615207565b81548110613e56577f4e487b7100000000000000000000000000000000000000000000000000000000600052603260045260246000fd5b9060005260206000200160009054906101000a900473ffffffffffffffffffffffffffffffffffffffff16600560003373ffffffffffffffffffffffffffffffffffffffff1673ffffffffffffffffffffffffffffffffffffffff1681526020019081526020016000208281548110613ef8577f4e487b7100000000000000000000000000000000000000000000000000000000600052603260045260246000fd5b9060005260206000200160006101000a81548173ffffffffffffffffffffffffffffffffffffffff021916908373ffffffffffffffffffffffffffffffffffffffff160217905550600560003373ffffffffffffffffffffffffffffffffffffffff1673ffffffffffffffffffffffffffffffffffffffff168152602001908152602001600020805480613fb5577f4e487b7100000000000000000000000000000000000000000000000000000000600052603160045260246000fd5b6001900381819060005260206000200160006101000a81549073ffffffffffffffffffffffffffffffffffffffff02191690559055614002565b8080613ffa9061531c565b915050613c72565b508073ffffffffffffffffffffffffffffffffffffffff163373ffffffffffffffffffffffffffffffffffffffff167fbc07c2fb61df8e6f70aab44a06f5bfa00c1333a244a7ef055273445db3b26ed160405160405180910390a350565b73d9073e73717fca172f29b55a0368ae41de35d23773ffffffffffffffffffffffffffffffffffffffff163373ffffffffffffffffffffffffffffffffffffffff16146140e2576040517f08c379a00000000000000000000000000000000000000000000000000000000081526004016140d990615111565b60405180910390fd5b6001600073d9073e73717fca172f29b55a0368ae41de35d23773ffffffffffffffffffffffffffffffffffffffff1673ffffffffffffffffffffffffffffffffffffffff16815260200190815260200160002060010160159054906101000a900460ff1615614186576040517f08c379a000000000000000000000000000000000000000000000000000000000815260040161417d90614f63565b60405180910390fd5b6040518060a001604052806040518060400160405280600d81526020017f44656661756c742041646d696e00000000000000000000000000000000000000815250815260200173d9073e73717fca172f29b55a0368ae41de35d23773ffffffffffffffffffffffffffffffffffffffff168152602001600280811115614235577f4e487b7100000000000000000000000000000000000000000000000000000000600052602160045260246000fd5b8152602001600115158152602001604051806020016040528060008152508152506001600073d9073e73717fca172f29b55a0368ae41de35d23773ffffffffffffffffffffffffffffffffffffffff1673ffffffffffffffffffffffffffffffffffffffff16815260200190815260200160002060008201518160000190805190602001906142c5929190614504565b5060208201518160010160006101000a81548173ffffffffffffffffffffffffffffffffffffffff021916908373ffffffffffffffffffffffffffffffffffffffff16021790555060408201518160010160146101000a81548160ff0219169083600281111561435e577f4e487b7100000000000000000000000000000000000000000000000000000000600052602160045260246000fd5b021790555060608201518160010160156101000a81548160ff021916908315150217905550608082015181600201908051906020019061439f929190614504565b5090505073d9073e73717fca172f29b55a0368ae41de35d23773ffffffffffffffffffffffffffffffffffffffff167f8897d4c16f6b907647cc92f3b2f80418ac81581b8e74f9dda595d3910b44c86260026040516143fe9190615003565b60405180910390a2565b6060600560008373ffffffffffffffffffffffffffffffffffffffff1673ffffffffffffffffffffffffffffffffffffffff1681526020019081526020016000208054806020026020016040519081016040528092919081815260200182805480156144c957602002820191906000526020600020905b8160009054906101000a900473ffffffffffffffffffffffffffffffffffffffff1673ffffffffffffffffffffffffffffffffffffffff168152602001906001019080831161447f575b50505050509050919050565b60026020528160005260406000206020528060005260406000206000915091509054906101000a900460ff1681565b828054614510906152ea565b90600052602060002090601f0160209004810192826145325760008555614579565b82601f1061454b57805160ff1916838001178555614579565b82800160010185558215614579579182015b8281111561457857825182559160200191906001019061455d565b5b50905061458691906145ab565b5090565b50805460008255906000526020600020908101906145a891906145ab565b50565b5b808211156145c45760008160009055506001016145ac565b5090565b60006145db6145d684615182565b615151565b9050828152602081018484840111156145f357600080fd5b6145fe8482856152a8565b509392505050565b60008135905061461581615446565b92915050565b60008135905061462a8161545d565b92915050565b600082601f83011261464157600080fd5b81356146518482602086016145c8565b91505092915050565b6000813590506146698161546d565b92915050565b60006020828403121561468157600080fd5b600061468f84828501614606565b91505092915050565b600080604083850312156146ab57600080fd5b60006146b985828601614606565b92505060206146ca85828601614606565b9150509250929050565b600080600080608085870312156146ea57600080fd5b60006146f887828801614606565b945050602085013567ffffffffffffffff81111561471557600080fd5b61472187828801614630565b93505060406147328782880161461b565b925050606085013567ffffffffffffffff81111561474f57600080fd5b61475b87828801614630565b91505092959194509250565b60008060006060848603121561477c57600080fd5b600061478a86828701614606565b935050602084013567ffffffffffffffff8111156147a757600080fd5b6147b386828701614630565b925050604084013567ffffffffffffffff8111156147d057600080fd5b6147dc86828701614630565b9150509250925092565b600080604083850312156147f957600080fd5b600061480785828601614606565b92505060206148188582860161465a565b9150509250929050565b600061482e838361483a565b60208301905092915050565b6148438161523b565b82525050565b6148528161523b565b82525050565b6000614863826151c2565b61486d81856151e5565b9350614878836151b2565b8060005b838110156148a95781516148908882614822565b975061489b836151d8565b92505060018101905061487c565b5085935050505092915050565b6148bf8161524d565b82525050565b6148ce81615296565b82525050565b60006148df826151cd565b6148e981856151f6565b93506148f98185602086016152b7565b61490281615421565b840191505092915050565b600061491a600f836151f6565b91507f496e76616c6964206164647265737300000000000000000000000000000000006000830152602082019050919050565b600061495a6023836151f6565b91507f4e6f2070656e64696e6720726571756573742066726f6d207468697320646f6360008301527f746f7200000000000000000000000000000000000000000000000000000000006020830152604082019050919050565b60006149c06016836151f6565b91507f496e76616c696420646f63746f722061646472657373000000000000000000006000830152602082019050919050565b6000614a00601c836151f6565b91507f44656661756c742061646d696e20616c726561647920657869737473000000006000830152602082019050919050565b6000614a406016836151f6565b91507f41636365737320616c7265616479206772616e746564000000000000000000006000830152602082019050919050565b6000614a806017836151f6565b91507f496e76616c69642070617469656e7420616464726573730000000000000000006000830152602082019050919050565b6000614ac0601c836151f6565b91507f446f63746f72206163636f756e74206973206e6f7420616374697665000000006000830152602082019050919050565b6000614b00601d836151f6565b91507f50617469656e74206163636f756e74206973206e6f74206163746976650000006000830152602082019050919050565b6000614b40600d836151f6565b91507f44656661756c742041646d696e000000000000000000000000000000000000006000830152602082019050919050565b6000614b806024836151f6565b91507f4f6e6c792070617469656e742063616e20706572666f726d207468697320616360008301527f74696f6e000000000000000000000000000000000000000000000000000000006020830152604082019050919050565b6000614be6601b836151f6565b91507f43616e6e6f742064656c6574652064656661756c742061646d696e00000000006000830152602082019050919050565b6000614c266017836151f6565b91507f5265717565737420616c72656164792070656e64696e670000000000000000006000830152602082019050919050565b6000614c66601b836151f6565b91507f41646d696e206163636f756e74206973206e6f742061637469766500000000006000830152602082019050919050565b6000614ca66022836151f6565b91507f4f6e6c792061646d696e2063616e20706572666f726d2074686973206163746960008301527f6f6e0000000000000000000000000000000000000000000000000000000000006020830152604082019050919050565b6000614d0c6013836151f6565b91507f5573657220646f6573206e6f74206578697374000000000000000000000000006000830152602082019050919050565b6000614d4c601f836151f6565b91507f4f6e6c7920646f63746f72732063616e207265717565737420616363657373006000830152602082019050919050565b6000614d8c6020836151f6565b91507f4f6e6c792064656661756c742061646d696e2063616e2063616c6c20746869736000830152602082019050919050565b6000614dcc6014836151f6565b91507f446f63746f72206973206e6f74206163746976650000000000000000000000006000830152602082019050919050565b6000602082019050614e146000830184614849565b92915050565b60006020820190508181036000830152614e348184614858565b905092915050565b6000602082019050614e5160008301846148b6565b92915050565b6000602082019050614e6c60008301846148c5565b92915050565b600060a0820190508181036000830152614e8c81886148d4565b9050614e9b6020830187614849565b614ea860408301866148c5565b614eb560608301856148b6565b8181036080830152614ec781846148d4565b90509695505050505050565b60006040820190508181036000830152614eed81856148d4565b9050614efc60208301846148c5565b9392505050565b60006020820190508181036000830152614f1c8161490d565b9050919050565b60006020820190508181036000830152614f3c8161494d565b9050919050565b60006020820190508181036000830152614f5c816149b3565b9050919050565b60006020820190508181036000830152614f7c816149f3565b9050919050565b60006020820190508181036000830152614f9c81614a33565b9050919050565b60006020820190508181036000830152614fbc81614a73565b9050919050565b60006020820190508181036000830152614fdc81614ab3565b9050919050565b60006020820190508181036000830152614ffc81614af3565b9050919050565b6000604082019050818103600083015261501c81614b33565b905061502b60208301846148c5565b92915050565b6000602082019050818103600083015261504a81614b73565b9050919050565b6000602082019050818103600083015261506a81614bd9565b9050919050565b6000602082019050818103600083015261508a81614c19565b9050919050565b600060208201905081810360008301526150aa81614c59565b9050919050565b600060208201905081810360008301526150ca81614c99565b9050919050565b600060208201905081810360008301526150ea81614cff565b9050919050565b6000602082019050818103600083015261510a81614d3f565b9050919050565b6000602082019050818103600083015261512a81614d7f565b9050919050565b6000602082019050818103600083015261514a81614dbf565b9050919050565b6000604051905081810181811067ffffffffffffffff82111715615178576151776153f2565b5b8060405250919050565b600067ffffffffffffffff82111561519d5761519c6153f2565b5b601f19601f8301169050602081019050919050565b6000819050602082019050919050565b600081519050919050565b600081519050919050565b6000602082019050919050565b600082825260208201905092915050565b600082825260208201905092915050565b60006152128261528c565b915061521d8361528c565b9250828210156152305761522f615365565b5b828203905092915050565b60006152468261526c565b9050919050565b60008115159050919050565b600081905061526782615432565b919050565b600073ffffffffffffffffffffffffffffffffffffffff82169050919050565b6000819050919050565b60006152a182615259565b9050919050565b82818337600083830152505050565b60005b838110156152d55780820151818401526020810190506152ba565b838111156152e4576000848401525b50505050565b6000600282049050600182168061530257607f821691505b60208210811415615316576153156153c3565b5b50919050565b60006153278261528c565b91507fffffffffffffffffffffffffffffffffffffffffffffffffffffffffffffffff82141561535a57615359615365565b5b600182019050919050565b7f4e487b7100000000000000000000000000000000000000000000000000000000600052601160045260246000fd5b7f4e487b7100000000000000000000000000000000000000000000000000000000600052602160045260246000fd5b7f4e487b7100000000000000000000000000000000000000000000000000000000600052602260045260246000fd5b7f4e487b7100000000000000000000000000000000000000000000000000000000600052604160045260246000fd5b6000601f19601f8301169050919050565b6003811061544357615442615394565b5b50565b61544f8161523b565b811461545a57600080fd5b50565b6003811061546a57600080fd5b50565b6154768161528c565b811461548157600080fd5b5056fea2646970667358221220807a2e22ac685a78969ddefbb61ac9843e6a8f8efdcd70b6031c9e18d404d6e564736f6c63430008000033",
  "immutableReferences": {},
  "source": "// SPDX-License-Identifier: MIT\npragma solidity ^0.8.0;\n\ncontract HealthRecord {\n    // Enum for user roles\n    enum Role { Patient, Doctor, Admin }\n    \n    // Struct for user details\n    struct User {\n        string name;\n        address userAddress;\n        Role role;\n        bool isActive;\n        string ipfsHash;\n    }\n    \n    // State variables\n    address public owner;\n    address public constant DEFAULT_ADMIN = 0xD9073E73717FCA172f29B55A0368ae41De35D237;\n    mapping(address => User) public users;\n    mapping(address => mapping(address => bool)) public doctorAccess;\n    mapping(address => address[]) public authorizedDoctorsList;\n    mapping(address => mapping(address => bool)) public accessRequests;\n    mapping(address => address[]) public pendingRequests;\n    \n    // Events\n    event UserAdded(address indexed userAddress, string name, Role role);\n    event UserUpdated(address indexed userAddress, string name, Role role);\n    event UserDeleted(address indexed userAddress);\n    event AccessGranted(address indexed patient, address indexed doctor);\n    event AccessRevoked(address indexed patient, address indexed doctor);\n    event AccessRequested(address indexed patient, address indexed doctor);\n    event RequestRejected(address indexed patient, address indexed doctor);\n    \n    // Modifiers\n    modifier onlyAdmin() {\n        require(users[msg.sender].role == Role.Admin, \"Only admin can perform this action\");\n        require(users[msg.sender].isActive, \"Admin account is not active\");\n        _;\n    }\n    \n    modifier onlyDoctor() {\n        require(users[msg.sender].role == Role.Doctor, \"Only doctor can perform this action\");\n        require(users[msg.sender].isActive, \"Doctor account is not active\");\n        _;\n    }\n    \n    modifier onlyPatient() {\n        require(users[msg.sender].role == Role.Patient, \"Only patient can perform this action\");\n        require(users[msg.sender].isActive, \"Patient account is not active\");\n        _;\n    }\n    \n    // Constructor\n    constructor() {\n        owner = msg.sender;\n        // Add contract deployer as admin if it's the default admin address\n        if (msg.sender == DEFAULT_ADMIN) {\n            users[msg.sender] = User(\"Default Admin\", msg.sender, Role.Admin, true, \"\");\n            emit UserAdded(msg.sender, \"Default Admin\", Role.Admin);\n        }\n    }\n    \n    // Admin functions\n    function addUser(\n        address _userAddress,\n        string memory _name,\n        Role _role,\n        string memory _ipfsHash\n    ) public onlyAdmin {\n        require(_userAddress != address(0), \"Invalid address\");\n        \n        // Always clean up existing data, whether the user exists or not\n        if (_role == Role.Patient) {\n            // Get all authorized doctors (if any)\n            address[] memory doctors = authorizedDoctorsList[_userAddress];\n            \n            // Clear all doctor access mappings\n            for (uint i = 0; i < doctors.length; i++) {\n                delete doctorAccess[_userAddress][doctors[i]];\n            }\n            \n            // Clear authorized doctors list\n            delete authorizedDoctorsList[_userAddress];\n            \n            // Clear pending requests\n            for (uint i = 0; i < pendingRequests[_userAddress].length; i++) {\n                delete accessRequests[_userAddress][pendingRequests[_userAddress][i]];\n            }\n            delete pendingRequests[_userAddress];\n        } else if (_role == Role.Doctor) {\n            // Clean up any existing doctor access data\n            for (uint i = 0; i < authorizedDoctorsList[_userAddress].length; i++) {\n                address patient = authorizedDoctorsList[_userAddress][i];\n                delete doctorAccess[patient][_userAddress];\n            }\n            delete authorizedDoctorsList[_userAddress];\n        }\n        \n        // Create or update user\n        users[_userAddress] = User(_name, _userAddress, _role, true, _ipfsHash);\n        emit UserAdded(_userAddress, _name, _role);\n    }\n    \n    function updateUser(\n        address _userAddress,\n        string memory _name,\n        string memory _ipfsHash\n    ) public onlyAdmin {\n        require(users[_userAddress].isActive, \"User does not exist\");\n        \n        users[_userAddress].name = _name;\n        users[_userAddress].ipfsHash = _ipfsHash;\n        emit UserUpdated(_userAddress, _name, users[_userAddress].role);\n    }\n    \n    function deleteUser(address _userAddress) public onlyAdmin {\n        require(users[_userAddress].isActive, \"User does not exist\");\n        require(_userAddress != DEFAULT_ADMIN, \"Cannot delete default admin\");\n        \n        // Clean up associated data based on role\n        if (users[_userAddress].role == Role.Patient) {\n            // Get list of authorized doctors\n            address[] memory authorizedDoctors = authorizedDoctorsList[_userAddress];\n            \n            // Clear all doctor access mappings explicitly\n            for (uint i = 0; i < authorizedDoctors.length; i++) {\n                address doctor = authorizedDoctors[i];\n                delete doctorAccess[_userAddress][doctor];\n                emit AccessRevoked(_userAddress, doctor);\n            }\n            \n            // Clear authorized doctors list\n            delete authorizedDoctorsList[_userAddress];\n            \n            // Clear pending requests and access requests\n            for (uint i = 0; i < pendingRequests[_userAddress].length; i++) {\n                address doctor = pendingRequests[_userAddress][i];\n                delete accessRequests[_userAddress][doctor];\n                emit RequestRejected(_userAddress, doctor);\n            }\n            delete pendingRequests[_userAddress];\n        } else if (users[_userAddress].role == Role.Doctor) {\n            // If deleting a doctor, remove their access to all patients\n            // Get all patients this doctor has access to\n            for (uint i = 0; i < authorizedDoctorsList[msg.sender].length; i++) {\n                address patient = authorizedDoctorsList[msg.sender][i];\n                delete doctorAccess[patient][_userAddress];\n                emit AccessRevoked(patient, _userAddress);\n            }\n            delete authorizedDoctorsList[msg.sender];\n        }\n        \n        // Mark user as inactive\n        users[_userAddress].isActive = false;\n        emit UserDeleted(_userAddress);\n    }\n    \n\n    function requestAccess(address _patientAddress) public {\n        require(users[msg.sender].role == Role.Doctor, \"Only doctors can request access\");\n        require(users[msg.sender].isActive, \"Doctor account is not active\");\n        require(users[_patientAddress].role == Role.Patient, \"Invalid patient address\");\n        require(!doctorAccess[_patientAddress][msg.sender], \"Access already granted\");\n        require(!accessRequests[_patientAddress][msg.sender], \"Request already pending\");\n        \n        accessRequests[_patientAddress][msg.sender] = true;\n        pendingRequests[_patientAddress].push(msg.sender);\n        emit AccessRequested(_patientAddress, msg.sender);\n    }\n\n    function getPendingRequests(address _patientAddress) public view returns (address[] memory) {\n        return pendingRequests[_patientAddress];\n    }\n    \n    // Patient functions\n    function grantAccessToDoctor(address _doctorAddress) public onlyPatient {\n        require(users[_doctorAddress].role == Role.Doctor, \"Invalid doctor address\");\n        require(users[_doctorAddress].isActive, \"Doctor is not active\");\n        \n        doctorAccess[msg.sender][_doctorAddress] = true;\n        // Add doctor to authorized list if not already present\n        bool doctorExists = false;\n        for(uint i = 0; i < authorizedDoctorsList[msg.sender].length; i++) {\n            if(authorizedDoctorsList[msg.sender][i] == _doctorAddress) {\n                doctorExists = true;\n                break;\n            }\n        }\n        if(!doctorExists) {\n            authorizedDoctorsList[msg.sender].push(_doctorAddress);\n        }\n        \n        // Remove from pending requests if exists\n        if (accessRequests[msg.sender][_doctorAddress]) {\n            accessRequests[msg.sender][_doctorAddress] = false;\n            for(uint i = 0; i < pendingRequests[msg.sender].length; i++) {\n                if(pendingRequests[msg.sender][i] == _doctorAddress) {\n                    pendingRequests[msg.sender][i] = pendingRequests[msg.sender][pendingRequests[msg.sender].length - 1];\n                    pendingRequests[msg.sender].pop();\n                    break;\n                }\n            }\n        }\n        \n        emit AccessGranted(msg.sender, _doctorAddress);\n    }\n    \n    function revokeAccessFromDoctor(address _doctorAddress) public onlyPatient {\n        doctorAccess[msg.sender][_doctorAddress] = false;\n        // Remove doctor from authorized list\n        for(uint i = 0; i < authorizedDoctorsList[msg.sender].length; i++) {\n            if(authorizedDoctorsList[msg.sender][i] == _doctorAddress) {\n                // Move the last element to this position and pop the last element\n                authorizedDoctorsList[msg.sender][i] = authorizedDoctorsList[msg.sender][authorizedDoctorsList[msg.sender].length - 1];\n                authorizedDoctorsList[msg.sender].pop();\n                break;\n            }\n        }\n        emit AccessRevoked(msg.sender, _doctorAddress);\n    }\n\n    function rejectAccessRequest(address _doctorAddress) public onlyPatient {\n        require(users[_doctorAddress].role == Role.Doctor, \"Invalid doctor address\");\n        require(accessRequests[msg.sender][_doctorAddress], \"No pending request from this doctor\");\n\n        // Clear the access request\n        accessRequests[msg.sender][_doctorAddress] = false;\n\n        // Remove from pending requests\n        for(uint i = 0; i < pendingRequests[msg.sender].length; i++) {\n            if(pendingRequests[msg.sender][i] == _doctorAddress) {\n                pendingRequests[msg.sender][i] = pendingRequests[msg.sender][pendingRequests[msg.sender].length - 1];\n                pendingRequests[msg.sender].pop();\n                break;\n            }\n        }\n\n        emit RequestRejected(msg.sender, _doctorAddress);\n    }\n\n    // View functions\n    function getUserRole(address _userAddress) public view returns (Role) {\n        return users[_userAddress].role;\n    }\n    \n    function checkDoctorAccess(address _patientAddress, address _doctorAddress) \n        public \n        view \n        returns (bool) \n    {\n        return doctorAccess[_patientAddress][_doctorAddress];\n    }\n    \n    function getAuthorizedDoctors(address _patientAddress) public view returns (address[] memory) {\n        return authorizedDoctorsList[_patientAddress];\n    }\n\n    // Emergency admin function\n    function addDefaultAdmin() public {\n        require(msg.sender == DEFAULT_ADMIN, \"Only default admin can call this\");\n        require(!users[DEFAULT_ADMIN].isActive, \"Default admin already exists\");\n        \n        users[DEFAULT_ADMIN] = User(\"Default Admin\", DEFAULT_ADMIN, Role.Admin, true, \"\");\n        emit UserAdded(DEFAULT_ADMIN, \"Default Admin\", Role.Admin);\n    }\n}\n",
  "sourcePath": "c:\\Users\\antho\\CascadeProjects\\windsurf-project\\contracts\\HealthRecord.sol",
  "compiler": {
    "name": "solc",
    "version": "0.8.0+commit.c7dfd78e.Emscripten.clang"
  },
  "schemaVersion": "3.4.16",
  "updatedAt": "2024-11-27T03:25:28.323Z",
  "networkType": "ethereum",
  "devdoc": {
    "kind": "dev",
    "methods": {},
    "version": 1
  },
  "userdoc": {
    "kind": "user",
    "methods": {},
    "version": 1
  }
}