{
  "contractName": "HealthRecord",
  "abi": [
    {
      "inputs": [],
      "stateMutability": "nonpayable",
      "type": "constructor"
    },
    {
      "anonymous": false,
      "inputs": [
        {
          "indexed": true,
          "internalType": "address",
          "name": "patient",
          "type": "address"
        },
        {
          "indexed": true,
          "internalType": "address",
          "name": "doctor",
          "type": "address"
        }
      ],
      "name": "AccessGranted",
      "type": "event"
    },
    {
      "anonymous": false,
      "inputs": [
        {
          "indexed": true,
          "internalType": "address",
          "name": "patient",
          "type": "address"
        },
        {
          "indexed": true,
          "internalType": "address",
          "name": "doctor",
          "type": "address"
        }
      ],
      "name": "AccessRequested",
      "type": "event"
    },
    {
      "anonymous": false,
      "inputs": [
        {
          "indexed": true,
          "internalType": "address",
          "name": "patient",
          "type": "address"
        },
        {
          "indexed": true,
          "internalType": "address",
          "name": "doctor",
          "type": "address"
        }
      ],
      "name": "AccessRevoked",
      "type": "event"
    },
    {
      "anonymous": false,
      "inputs": [
        {
          "indexed": true,
          "internalType": "address",
          "name": "patient",
          "type": "address"
        },
        {
          "indexed": false,
          "internalType": "string",
          "name": "name",
          "type": "string"
        },
        {
          "indexed": false,
          "internalType": "string",
          "name": "ipfsHash",
          "type": "string"
        },
        {
          "indexed": true,
          "internalType": "address",
          "name": "uploadedBy",
          "type": "address"
        }
      ],
      "name": "DocumentAdded",
      "type": "event"
    },
    {
      "anonymous": false,
      "inputs": [
        {
          "indexed": true,
          "internalType": "address",
          "name": "userAddress",
          "type": "address"
        },
        {
          "indexed": false,
          "internalType": "string",
          "name": "name",
          "type": "string"
        }
      ],
      "name": "PatientRegistered",
      "type": "event"
    },
    {
      "anonymous": false,
      "inputs": [
        {
          "indexed": true,
          "internalType": "address",
          "name": "patient",
          "type": "address"
        },
        {
          "indexed": true,
          "internalType": "address",
          "name": "doctor",
          "type": "address"
        }
      ],
      "name": "RequestRejected",
      "type": "event"
    },
    {
      "anonymous": false,
      "inputs": [
        {
          "indexed": true,
          "internalType": "address",
          "name": "userAddress",
          "type": "address"
        },
        {
          "indexed": false,
          "internalType": "string",
          "name": "name",
          "type": "string"
        },
        {
          "indexed": false,
          "internalType": "enum HealthRecord.Role",
          "name": "role",
          "type": "uint8"
        }
      ],
      "name": "UserAdded",
      "type": "event"
    },
    {
      "anonymous": false,
      "inputs": [
        {
          "indexed": true,
          "internalType": "address",
          "name": "userAddress",
          "type": "address"
        }
      ],
      "name": "UserDeleted",
      "type": "event"
    },
    {
      "anonymous": false,
      "inputs": [
        {
          "indexed": true,
          "internalType": "address",
          "name": "userAddress",
          "type": "address"
        },
        {
          "indexed": false,
          "internalType": "string",
          "name": "name",
          "type": "string"
        },
        {
          "indexed": false,
          "internalType": "enum HealthRecord.Role",
          "name": "role",
          "type": "uint8"
        }
      ],
      "name": "UserUpdated",
      "type": "event"
    },
    {
      "inputs": [],
      "name": "DEFAULT_ADMIN",
      "outputs": [
        {
          "internalType": "address",
          "name": "",
          "type": "address"
        }
      ],
      "stateMutability": "view",
      "type": "function",
      "constant": true
    },
    {
      "inputs": [
        {
          "internalType": "address",
          "name": "",
          "type": "address"
        },
        {
          "internalType": "address",
          "name": "",
          "type": "address"
        }
      ],
      "name": "accessRequests",
      "outputs": [
        {
          "internalType": "bool",
          "name": "",
          "type": "bool"
        }
      ],
      "stateMutability": "view",
      "type": "function",
      "constant": true
    },
    {
      "inputs": [
        {
          "internalType": "address",
          "name": "",
          "type": "address"
        },
        {
          "internalType": "uint256",
          "name": "",
          "type": "uint256"
        }
      ],
      "name": "authorizedDoctorsList",
      "outputs": [
        {
          "internalType": "address",
          "name": "",
          "type": "address"
        }
      ],
      "stateMutability": "view",
      "type": "function",
      "constant": true
    },
    {
      "inputs": [
        {
          "internalType": "address",
          "name": "",
          "type": "address"
        },
        {
          "internalType": "address",
          "name": "",
          "type": "address"
        }
      ],
      "name": "doctorAccess",
      "outputs": [
        {
          "internalType": "bool",
          "name": "",
          "type": "bool"
        }
      ],
      "stateMutability": "view",
      "type": "function",
      "constant": true
    },
    {
      "inputs": [],
      "name": "owner",
      "outputs": [
        {
          "internalType": "address",
          "name": "",
          "type": "address"
        }
      ],
      "stateMutability": "view",
      "type": "function",
      "constant": true
    },
    {
      "inputs": [
        {
          "internalType": "address",
          "name": "",
          "type": "address"
        },
        {
          "internalType": "uint256",
          "name": "",
          "type": "uint256"
        }
      ],
      "name": "patientDocuments",
      "outputs": [
        {
          "internalType": "string",
          "name": "name",
          "type": "string"
        },
        {
          "internalType": "string",
          "name": "ipfsHash",
          "type": "string"
        },
        {
          "internalType": "uint256",
          "name": "timestamp",
          "type": "uint256"
        },
        {
          "internalType": "address",
          "name": "uploadedBy",
          "type": "address"
        }
      ],
      "stateMutability": "view",
      "type": "function",
      "constant": true
    },
    {
      "inputs": [
        {
          "internalType": "address",
          "name": "",
          "type": "address"
        },
        {
          "internalType": "uint256",
          "name": "",
          "type": "uint256"
        }
      ],
      "name": "pendingRequests",
      "outputs": [
        {
          "internalType": "address",
          "name": "",
          "type": "address"
        }
      ],
      "stateMutability": "view",
      "type": "function",
      "constant": true
    },
    {
      "inputs": [
        {
          "internalType": "address",
          "name": "",
          "type": "address"
        }
      ],
      "name": "users",
      "outputs": [
        {
          "internalType": "string",
          "name": "name",
          "type": "string"
        },
        {
          "internalType": "address",
          "name": "userAddress",
          "type": "address"
        },
        {
          "internalType": "enum HealthRecord.Role",
          "name": "role",
          "type": "uint8"
        },
        {
          "internalType": "bool",
          "name": "isActive",
          "type": "bool"
        },
        {
          "internalType": "string",
          "name": "ipfsHash",
          "type": "string"
        }
      ],
      "stateMutability": "view",
      "type": "function",
      "constant": true
    },
    {
      "inputs": [
        {
          "internalType": "address",
          "name": "_userAddress",
          "type": "address"
        },
        {
          "internalType": "string",
          "name": "_name",
          "type": "string"
        },
        {
          "internalType": "enum HealthRecord.Role",
          "name": "_role",
          "type": "uint8"
        },
        {
          "internalType": "string",
          "name": "_ipfsHash",
          "type": "string"
        }
      ],
      "name": "addUser",
      "outputs": [],
      "stateMutability": "nonpayable",
      "type": "function"
    },
    {
      "inputs": [
        {
          "internalType": "address",
          "name": "_userAddress",
          "type": "address"
        },
        {
          "internalType": "string",
          "name": "_name",
          "type": "string"
        },
        {
          "internalType": "string",
          "name": "_ipfsHash",
          "type": "string"
        }
      ],
      "name": "updateUser",
      "outputs": [],
      "stateMutability": "nonpayable",
      "type": "function"
    },
    {
      "inputs": [
        {
          "internalType": "address",
          "name": "_userAddress",
          "type": "address"
        }
      ],
      "name": "deleteUser",
      "outputs": [],
      "stateMutability": "nonpayable",
      "type": "function"
    },
    {
      "inputs": [
        {
          "internalType": "address",
          "name": "_patientAddress",
          "type": "address"
        }
      ],
      "name": "requestAccess",
      "outputs": [],
      "stateMutability": "nonpayable",
      "type": "function"
    },
    {
      "inputs": [
        {
          "internalType": "address",
          "name": "_patientAddress",
          "type": "address"
        }
      ],
      "name": "getPendingRequests",
      "outputs": [
        {
          "internalType": "address[]",
          "name": "",
          "type": "address[]"
        }
      ],
      "stateMutability": "view",
      "type": "function",
      "constant": true
    },
    {
      "inputs": [
        {
          "internalType": "address",
          "name": "_doctorAddress",
          "type": "address"
        }
      ],
      "name": "grantAccessToDoctor",
      "outputs": [],
      "stateMutability": "nonpayable",
      "type": "function"
    },
    {
      "inputs": [
        {
          "internalType": "address",
          "name": "_doctorAddress",
          "type": "address"
        }
      ],
      "name": "revokeAccessFromDoctor",
      "outputs": [],
      "stateMutability": "nonpayable",
      "type": "function"
    },
    {
      "inputs": [
        {
          "internalType": "address",
          "name": "_doctorAddress",
          "type": "address"
        }
      ],
      "name": "rejectAccessRequest",
      "outputs": [],
      "stateMutability": "nonpayable",
      "type": "function"
    },
    {
      "inputs": [
        {
          "internalType": "address",
          "name": "_patientAddress",
          "type": "address"
        },
        {
          "internalType": "string",
          "name": "_name",
          "type": "string"
        },
        {
          "internalType": "string",
          "name": "_ipfsHash",
          "type": "string"
        }
      ],
      "name": "addDocument",
      "outputs": [],
      "stateMutability": "nonpayable",
      "type": "function"
    },
    {
      "inputs": [
        {
          "internalType": "address",
          "name": "_patientAddress",
          "type": "address"
        }
      ],
      "name": "getDocuments",
      "outputs": [
        {
          "components": [
            {
              "internalType": "string",
              "name": "name",
              "type": "string"
            },
            {
              "internalType": "string",
              "name": "ipfsHash",
              "type": "string"
            },
            {
              "internalType": "uint256",
              "name": "timestamp",
              "type": "uint256"
            },
            {
              "internalType": "address",
              "name": "uploadedBy",
              "type": "address"
            }
          ],
          "internalType": "struct HealthRecord.Document[]",
          "name": "",
          "type": "tuple[]"
        }
      ],
      "stateMutability": "view",
      "type": "function",
      "constant": true
    },
    {
      "inputs": [
        {
          "internalType": "address",
          "name": "_userAddress",
          "type": "address"
        }
      ],
      "name": "getUserRole",
      "outputs": [
        {
          "internalType": "enum HealthRecord.Role",
          "name": "",
          "type": "uint8"
        }
      ],
      "stateMutability": "view",
      "type": "function",
      "constant": true
    },
    {
      "inputs": [
        {
          "internalType": "address",
          "name": "_patientAddress",
          "type": "address"
        },
        {
          "internalType": "address",
          "name": "_doctorAddress",
          "type": "address"
        }
      ],
      "name": "checkDoctorAccess",
      "outputs": [
        {
          "internalType": "bool",
          "name": "",
          "type": "bool"
        }
      ],
      "stateMutability": "view",
      "type": "function",
      "constant": true
    },
    {
      "inputs": [
        {
          "internalType": "address",
          "name": "_patientAddress",
          "type": "address"
        }
      ],
      "name": "getAuthorizedDoctors",
      "outputs": [
        {
          "internalType": "address[]",
          "name": "",
          "type": "address[]"
        }
      ],
      "stateMutability": "view",
      "type": "function",
      "constant": true
    },
    {
      "inputs": [],
      "name": "addDefaultAdmin",
      "outputs": [],
      "stateMutability": "nonpayable",
      "type": "function"
    },
    {
      "inputs": [
        {
          "internalType": "string",
          "name": "_name",
          "type": "string"
        },
        {
          "internalType": "string",
          "name": "_ipfsHash",
          "type": "string"
        }
      ],
      "name": "registerAsPatient",
      "outputs": [],
      "stateMutability": "nonpayable",
      "type": "function"
    }
  ],
  "bytecode": "0x60806040523480156200001157600080fd5b50600080546001600160a01b0319163390811790915573d9073e73717fca172f29b55a0368ae41de35d237141562000198576040805160e081018252600d60a082019081526c2232b330bab63a1020b236b4b760991b60c0830152815233602082015290810160028152600160208083018290526040805180830182526000808252948201523384529181529120825180519192620000b6928492909101906200019e565b5060208201516001820180546001600160a01b0319166001600160a01b03909216919091178082556040840151919060ff60a01b1916600160a01b8360028111156200011257634e487b7160e01b600052602160045260246000fd5b02179055506060820151600182018054911515600160a81b0260ff60a81b1990921691909117905560808201518051620001579160028401916020909101906200019e565b50506040513391507f8897d4c16f6b907647cc92f3b2f80418ac81581b8e74f9dda595d3910b44c862906200018f9060029062000244565b60405180910390a25b620002d1565b828054620001ac9062000294565b90600052602060002090601f016020900481019282620001d057600085556200021b565b82601f10620001eb57805160ff19168380011785556200021b565b828001600101855582156200021b579182015b828111156200021b578251825591602001919060010190620001fe565b50620002299291506200022d565b5090565b5b808211156200022957600081556001016200022e565b6040808252600d908201526c2232b330bab63a1020b236b4b760991b606082015260808101600383106200028857634e487b7160e01b600052602160045260246000fd5b82602083015292915050565b600281046001821680620002a957607f821691505b60208210811415620002cb57634e487b7160e01b600052602260045260246000fd5b50919050565b61345480620002e16000396000f3fe608060405234801561001057600080fd5b506004361061014d5760003560e01c80639cdeba95116100c3578063b687e3c21161007c578063b687e3c2146102df578063cbf8a64b146102f2578063d55f524714610312578063e68ddac814610325578063f05bfa7b1461032d578063fe127fcb146103405761014d565b80639cdeba951461024a578063a87430ba14610252578063ab4f232914610276578063b2d566c114610296578063b42e7b23146102a9578063b51c17b9146102cc5761014d565b8063488ff1c811610115578063488ff1c8146101d65780635c60f226146101f6578063629e559d1461020957806365a410a31461021c5780637c2e811a1461022f5780638da5cb5b146102425761014d565b8063022cb2711461015257806310e8b22d146101675780631c8e251c1461017a578063278208511461018d57806327f50a2d146101b6575b600080fd5b6101656101603660046129d6565b610353565b005b610165610175366004612ab2565b610562565b6101656101883660046129d6565b6106fa565b6101a061019b3660046129d6565b610b3e565b6040516101ad9190612d27565b60405180910390f35b6101c96101c43660046129d6565b610b6b565b6040516101ad9190612c7b565b6101e96101e4366004612b23565b610dc2565b6040516101ad9190612c1a565b6101656102043660046129d6565b610dfa565b6101656102173660046129d6565b61130b565b61016561022a366004612a29565b611582565b61016561023d366004612b4c565b611aa3565b6101e9611c90565b6101e9611c9f565b6102656102603660046129d6565b611cb7565b6040516101ad959493929190612d48565b6102896102843660046129f7565b611e0d565b6040516101ad9190612d1c565b6102896102a43660046129f7565b611e2d565b6102bc6102b7366004612b23565b611e5d565b6040516101ad9493929190612ded565b6101e96102da366004612b23565b611fc4565b6101656102ed366004612ab2565b611fe0565b6103056103003660046129d6565b612216565b6040516101ad9190612c2e565b6101656103203660046129d6565b61228c565b6101656125ab565b61030561033b3660046129d6565b6127f0565b61028961034e3660046129f7565b612864565b60013360009081526001602081905260409091200154600160a01b900460ff16600281111561039257634e487b7160e01b600052602160045260246000fd5b146103b85760405162461bcd60e51b81526004016103af906132bc565b60405180910390fd5b3360009081526001602081905260409091200154600160a81b900460ff166103f25760405162461bcd60e51b81526004016103af90612f9c565b6001600160a01b038116600090815260016020819052604082200154600160a01b900460ff16600281111561043757634e487b7160e01b600052602160045260246000fd5b146104545760405162461bcd60e51b81526004016103af90612f65565b6001600160a01b038116600090815260026020908152604080832033845290915290205460ff16156104985760405162461bcd60e51b81526004016103af90612f35565b6001600160a01b038116600090815260046020908152604080832033845290915290205460ff16156104dc5760405162461bcd60e51b81526004016103af906131df565b6001600160a01b038116600081815260046020908152604080832033808552908352818420805460ff191660019081179091558585526005845282852080549182018155855292842090920180546001600160a01b03191683179055519092917f40c7749b16fdfb0d550f20273a7767875059d647af94f5a9610c63ad73dcc79f91a350565b60023360009081526001602081905260409091200154600160a01b900460ff1660028111156105a157634e487b7160e01b600052602160045260246000fd5b146105be5760405162461bcd60e51b81526004016103af9061324d565b3360009081526001602081905260409091200154600160a81b900460ff166105f85760405162461bcd60e51b81526004016103af90613216565b6001600160a01b03831660009081526001602081905260409091200154600160a81b900460ff1661063b5760405162461bcd60e51b81526004016103af9061328f565b6001600160a01b0383166000908152600160209081526040909120835161066492850190612884565b506001600160a01b0383166000908152600160209081526040909120825161069492600290920191840190612884565b506001600160a01b038316600081815260016020819052604091829020015490517fefdadc7a28168743850ed04edc06f2f26eca08d86d4e5877b355f1eecb3d2bca916106ed918691600160a01b900460ff1690612d9d565b60405180910390a2505050565b33600090815260016020819052604082200154600160a01b900460ff16600281111561073657634e487b7160e01b600052602160045260246000fd5b146107535760405162461bcd60e51b81526004016103af9061303c565b3360009081526001602081905260409091200154600160a81b900460ff1661078d5760405162461bcd60e51b81526004016103af90612fd3565b60016001600160a01b03821660009081526001602081905260409091200154600160a01b900460ff1660028111156107d557634e487b7160e01b600052602160045260246000fd5b146107f25760405162461bcd60e51b81526004016103af90612ece565b6001600160a01b03811660009081526001602081905260409091200154600160a81b900460ff166108355760405162461bcd60e51b81526004016103af90613357565b3360009081526002602090815260408083206001600160a01b03851684529091528120805460ff19166001179055805b336000908152600360205260409020548110156108ed5733600090815260036020526040902080546001600160a01b0385169190839081106108b757634e487b7160e01b600052603260045260246000fd5b6000918252602090912001546001600160a01b031614156108db57600191506108ed565b806108e5816133d7565b915050610865565b508061092c573360009081526003602090815260408220805460018101825590835291200180546001600160a01b0319166001600160a01b0384161790555b3360009081526004602090815260408083206001600160a01b038616845290915290205460ff1615610b04573360009081526004602090815260408083206001600160a01b03861684529091528120805460ff191690555b33600090815260056020526040902054811015610b025733600090815260056020526040902080546001600160a01b0385169190839081106109d657634e487b7160e01b600052603260045260246000fd5b6000918252602090912001546001600160a01b03161415610af0573360009081526005602052604090208054610a0e90600190613385565b81548110610a2c57634e487b7160e01b600052603260045260246000fd5b60009182526020808320909101543383526005909152604090912080546001600160a01b039092169183908110610a7357634e487b7160e01b600052603260045260246000fd5b600091825260208083209190910180546001600160a01b0319166001600160a01b039490941693909317909255338152600590915260409020805480610ac957634e487b7160e01b600052603160045260246000fd5b600082815260209020810160001990810180546001600160a01b0319169055019055610b02565b80610afa816133d7565b915050610984565b505b6040516001600160a01b0383169033907f9f520b3bfc56d06f7065d10b4683b3f57ac8895d5026cd176dee95ce1454cb8d90600090a35050565b6001600160a01b03811660009081526001602081905260409091200154600160a01b900460ff165b919050565b606060013360009081526001602081905260409091200154600160a01b900460ff166002811115610bac57634e487b7160e01b600052602160045260246000fd5b148015610bdc57506001600160a01b038216600090815260026020908152604080832033845290915290205460ff165b80610bef5750336001600160a01b038316145b610c0b5760405162461bcd60e51b81526004016103af906130b7565b6001600160a01b038216600090815260066020908152604080832080548251818502810185019093528083529193909284015b82821015610db75783829060005260206000209060040201604051806080016040529081600082018054610c719061339c565b80601f0160208091040260200160405190810160405280929190818152602001828054610c9d9061339c565b8015610cea5780601f10610cbf57610100808354040283529160200191610cea565b820191906000526020600020905b815481529060010190602001808311610ccd57829003601f168201915b50505050508152602001600182018054610d039061339c565b80601f0160208091040260200160405190810160405280929190818152602001828054610d2f9061339c565b8015610d7c5780601f10610d5157610100808354040283529160200191610d7c565b820191906000526020600020905b815481529060010190602001808311610d5f57829003601f168201915b505050918352505060028201546020808301919091526003909201546001600160a01b03166040909101529082526001929092019101610c3e565b505050509050919050565b60056020528160005260406000208181548110610dde57600080fd5b6000918252602090912001546001600160a01b03169150829050565b60023360009081526001602081905260409091200154600160a01b900460ff166002811115610e3957634e487b7160e01b600052602160045260246000fd5b14610e565760405162461bcd60e51b81526004016103af9061324d565b3360009081526001602081905260409091200154600160a81b900460ff16610e905760405162461bcd60e51b81526004016103af90613216565b6001600160a01b03811660009081526001602081905260409091200154600160a81b900460ff16610ed35760405162461bcd60e51b81526004016103af9061328f565b6001600160a01b03811673d9073e73717fca172f29b55a0368ae41de35d2371415610f105760405162461bcd60e51b81526004016103af90613171565b6001600160a01b038116600090815260016020819052604082200154600160a01b900460ff166002811115610f5557634e487b7160e01b600052602160045260246000fd5b1415611191576001600160a01b038116600090815260036020908152604080832080548251818502810185019093528083529192909190830182828015610fc557602002820191906000526020600020905b81546001600160a01b03168152600190910190602001808311610fa7575b5050505050905060005b8151811015611074576000828281518110610ffa57634e487b7160e01b600052603260045260246000fd5b6020908102919091018101516001600160a01b03808716600081815260028552604080822093851680835293909552848120805460ff191690559351929450909290917f825c8be24eb0df19500f63e86c29e7d0d951e73056b889b891d85e40938d9b6e9190a3508061106c816133d7565b915050610fcf565b506001600160a01b038216600090815260036020526040812061109691612908565b60005b6001600160a01b038316600090815260056020526040902054811015611169576001600160a01b03831660009081526005602052604081208054839081106110f157634e487b7160e01b600052603260045260246000fd5b60009182526020808320909101546001600160a01b038781168085526004845260408086209290931680865291909352818420805460ff19169055905190935083927fbc07c2fb61df8e6f70aab44a06f5bfa00c1333a244a7ef055273445db3b26ed191a35080611161816133d7565b915050611099565b506001600160a01b038216600090815260056020526040812061118b91612908565b506112ba565b60016001600160a01b03821660009081526001602081905260409091200154600160a01b900460ff1660028111156111d957634e487b7160e01b600052602160045260246000fd5b14156112ba5760005b336000908152600360205260409020548110156112a15733600090815260036020526040812080548390811061122857634e487b7160e01b600052603260045260246000fd5b60009182526020808320909101546001600160a01b0390811680845260028352604080852092881680865292909352828420805460ff1916905591519193509183917f825c8be24eb0df19500f63e86c29e7d0d951e73056b889b891d85e40938d9b6e9190a35080611299816133d7565b9150506111e2565b503360009081526003602052604081206112ba91612908565b6001600160a01b0381166000818152600160208190526040808320909101805460ff60a81b19169055517f4bc56f1321288dfb5b416cb3a7fd188723979f9e866c91d88eccf7fca039d0399190a250565b33600090815260016020819052604082200154600160a01b900460ff16600281111561134757634e487b7160e01b600052602160045260246000fd5b146113645760405162461bcd60e51b81526004016103af9061303c565b3360009081526001602081905260409091200154600160a81b900460ff1661139e5760405162461bcd60e51b81526004016103af90612fd3565b3360009081526002602090815260408083206001600160a01b03851684529091528120805460ff191690555b336000908152600360205260409020548110156115485733600090815260036020526040902080546001600160a01b03841691908390811061141c57634e487b7160e01b600052603260045260246000fd5b6000918252602090912001546001600160a01b0316141561153657336000908152600360205260409020805461145490600190613385565b8154811061147257634e487b7160e01b600052603260045260246000fd5b60009182526020808320909101543383526003909152604090912080546001600160a01b0390921691839081106114b957634e487b7160e01b600052603260045260246000fd5b600091825260208083209190910180546001600160a01b0319166001600160a01b03949094169390931790925533815260039091526040902080548061150f57634e487b7160e01b600052603160045260246000fd5b600082815260209020810160001990810180546001600160a01b0319169055019055611548565b80611540816133d7565b9150506113ca565b506040516001600160a01b0382169033907f825c8be24eb0df19500f63e86c29e7d0d951e73056b889b891d85e40938d9b6e90600090a350565b60023360009081526001602081905260409091200154600160a01b900460ff1660028111156115c157634e487b7160e01b600052602160045260246000fd5b146115de5760405162461bcd60e51b81526004016103af9061324d565b3360009081526001602081905260409091200154600160a81b900460ff166116185760405162461bcd60e51b81526004016103af90613216565b6001600160a01b03841661163e5760405162461bcd60e51b81526004016103af90612e34565b600082600281111561166057634e487b7160e01b600052602160045260246000fd5b141561184d576001600160a01b0384166000908152600360209081526040808320805482518185028101850190935280835291929091908301828280156116d057602002820191906000526020600020905b81546001600160a01b031681526001909101906020018083116116b2575b5050505050905060005b815181101561175d576001600160a01b0386166000908152600260205260408120835190919084908490811061172057634e487b7160e01b600052603260045260246000fd5b6020908102919091018101516001600160a01b03168252810191909152604001600020805460ff1916905580611755816133d7565b9150506116da565b506001600160a01b038516600090815260036020526040812061177f91612908565b60005b6001600160a01b038616600090815260056020526040902054811015611825576001600160a01b0386166000908152600460209081526040808320600590925282208054919291849081106117e757634e487b7160e01b600052603260045260246000fd5b60009182526020808320909101546001600160a01b031683528201929092526040019020805460ff191690558061181d816133d7565b915050611782565b506001600160a01b038516600090815260056020526040812061184791612908565b5061193a565b600182600281111561186f57634e487b7160e01b600052602160045260246000fd5b141561193a5760005b6001600160a01b038516600090815260036020526040902054811015611918576001600160a01b03851660009081526003602052604081208054839081106118d057634e487b7160e01b600052603260045260246000fd5b60009182526020808320909101546001600160a01b039081168352600282526040808420918a16845291529020805460ff191690555080611910816133d7565b915050611878565b506001600160a01b038416600090815260036020526040812061193a91612908565b6040518060a00160405280848152602001856001600160a01b0316815260200183600281111561197a57634e487b7160e01b600052602160045260246000fd5b81526001602080830182905260409283018590526001600160a01b03881660009081529181529190208251805191926119b892849290910190612884565b5060208201516001820180546001600160a01b0319166001600160a01b03909216919091178082556040840151919060ff60a01b1916600160a01b836002811115611a1357634e487b7160e01b600052602160045260246000fd5b02179055506060820151600182018054911515600160a81b0260ff60a81b1990921691909117905560808201518051611a56916002840191602090910190612884565b50905050836001600160a01b03167f8897d4c16f6b907647cc92f3b2f80418ac81581b8e74f9dda595d3910b44c8628484604051611a95929190612d9d565b60405180910390a250505050565b3360009081526001602081905260409091200154600160a81b900460ff1615611ade5760405162461bcd60e51b81526004016103af906131a8565b6000825111611aff5760405162461bcd60e51b81526004016103af90612e5d565b6000815111611b205760405162461bcd60e51b81526004016103af90613080565b6040805160a08101825283815233602082015290810160008152600160208083018290526040928301859052336000908152918152919020825180519192611b6d92849290910190612884565b5060208201516001820180546001600160a01b0319166001600160a01b03909216919091178082556040840151919060ff60a01b1916600160a01b836002811115611bc857634e487b7160e01b600052602160045260246000fd5b02179055506060820151600182018054911515600160a81b0260ff60a81b1990921691909117905560808201518051611c0b916002840191602090910190612884565b50506040513391507fc85b128388b9c331a2a5485dce4cd0f3db9f7c279d327ce95d6d39d6c94644c790611c40908590612d35565b60405180910390a2336001600160a01b03167f8897d4c16f6b907647cc92f3b2f80418ac81581b8e74f9dda595d3910b44c862836000604051611c84929190612d9d565b60405180910390a25050565b6000546001600160a01b031681565b73d9073e73717fca172f29b55a0368ae41de35d23781565b600160205260009081526040902080548190611cd29061339c565b80601f0160208091040260200160405190810160405280929190818152602001828054611cfe9061339c565b8015611d4b5780601f10611d2057610100808354040283529160200191611d4b565b820191906000526020600020905b815481529060010190602001808311611d2e57829003601f168201915b505050600184015460028501805494956001600160a01b0383169560ff600160a01b850481169650600160a81b909404909316935091611d8a9061339c565b80601f0160208091040260200160405190810160405280929190818152602001828054611db69061339c565b8015611e035780601f10611dd857610100808354040283529160200191611e03565b820191906000526020600020905b815481529060010190602001808311611de657829003601f168201915b5050505050905085565b600460209081526000928352604080842090915290825290205460ff1681565b6001600160a01b0380831660009081526002602090815260408083209385168352929052205460ff165b92915050565b60066020528160005260406000208181548110611e7957600080fd5b906000526020600020906004020160009150915050806000018054611e9d9061339c565b80601f0160208091040260200160405190810160405280929190818152602001828054611ec99061339c565b8015611f165780601f10611eeb57610100808354040283529160200191611f16565b820191906000526020600020905b815481529060010190602001808311611ef957829003601f168201915b505050505090806001018054611f2b9061339c565b80601f0160208091040260200160405190810160405280929190818152602001828054611f579061339c565b8015611fa45780601f10611f7957610100808354040283529160200191611fa4565b820191906000526020600020905b815481529060010190602001808311611f8757829003601f168201915b5050505060028301546003909301549192916001600160a01b0316905084565b60036020528160005260406000208181548110610dde57600080fd5b60013360009081526001602081905260409091200154600160a01b900460ff16600281111561201f57634e487b7160e01b600052602160045260246000fd5b14801561204f57506001600160a01b038316600090815260026020908152604080832033845290915290205460ff165b806120625750336001600160a01b038416145b61207e5760405162461bcd60e51b81526004016103af90613114565b6001600160a01b038316600090815260016020819052604082200154600160a01b900460ff1660028111156120c357634e487b7160e01b600052602160045260246000fd5b146120e05760405162461bcd60e51b81526004016103af90612f65565b6001600160a01b03831660009081526001602081905260409091200154600160a81b900460ff166121235760405162461bcd60e51b81526004016103af90613328565b60408051608081018252838152602080820184905242828401523360608301526001600160a01b038616600090815260068252928320805460018101825590845292819020825180519394859460049091029092019261218892849290910190612884565b5060208281015180516121a19260018501920190612884565b506040828101516002830155606090920151600390910180546001600160a01b0319166001600160a01b03928316179055905133918616907f58240ab501e006cc51446864acaf7f36ab139ca90883c9461b49f5171100046c906122089087908790612dbf565b60405180910390a350505050565b6001600160a01b03811660009081526003602090815260409182902080548351818402810184019094528084526060939283018282801561228057602002820191906000526020600020905b81546001600160a01b03168152600190910190602001808311612262575b50505050509050919050565b33600090815260016020819052604082200154600160a01b900460ff1660028111156122c857634e487b7160e01b600052602160045260246000fd5b146122e55760405162461bcd60e51b81526004016103af9061303c565b3360009081526001602081905260409091200154600160a81b900460ff1661231f5760405162461bcd60e51b81526004016103af90612fd3565b60016001600160a01b03821660009081526001602081905260409091200154600160a01b900460ff16600281111561236757634e487b7160e01b600052602160045260246000fd5b146123845760405162461bcd60e51b81526004016103af90612ece565b3360009081526004602090815260408083206001600160a01b038516845290915290205460ff166123c75760405162461bcd60e51b81526004016103af90612e8b565b3360009081526004602090815260408083206001600160a01b03851684529091528120805460ff191690555b336000908152600560205260409020548110156125715733600090815260056020526040902080546001600160a01b03841691908390811061244557634e487b7160e01b600052603260045260246000fd5b6000918252602090912001546001600160a01b0316141561255f57336000908152600560205260409020805461247d90600190613385565b8154811061249b57634e487b7160e01b600052603260045260246000fd5b60009182526020808320909101543383526005909152604090912080546001600160a01b0390921691839081106124e257634e487b7160e01b600052603260045260246000fd5b600091825260208083209190910180546001600160a01b0319166001600160a01b03949094169390931790925533815260059091526040902080548061253857634e487b7160e01b600052603160045260246000fd5b600082815260209020810160001990810180546001600160a01b0319169055019055612571565b80612569816133d7565b9150506123f3565b506040516001600160a01b0382169033907fbc07c2fb61df8e6f70aab44a06f5bfa00c1333a244a7ef055273445db3b26ed190600090a350565b3373d9073e73717fca172f29b55a0368ae41de35d237146125de5760405162461bcd60e51b81526004016103af906132f3565b73d9073e73717fca172f29b55a0368ae41de35d23760005260016020527f554aa36f2909d1c919fe498fd80877dff8128e08893ac60dd22b7cbe1452ae7c54600160a81b900460ff16156126445760405162461bcd60e51b81526004016103af90612efe565b6040805160e081018252600d60a082019081526c2232b330bab63a1020b236b4b760991b60c0830152815273d9073e73717fca172f29b55a0368ae41de35d237602082015290810160028152600160208083018290526040805180830182526000808252919094019390935273d9073e73717fca172f29b55a0368ae41de35d2379092528152815180517f554aa36f2909d1c919fe498fd80877dff8128e08893ac60dd22b7cbe1452ae7b926126fe928492910190612884565b5060208201516001820180546001600160a01b0319166001600160a01b03909216919091178082556040840151919060ff60a01b1916600160a01b83600281111561275957634e487b7160e01b600052602160045260246000fd5b02179055506060820151600182018054911515600160a81b0260ff60a81b199092169190911790556080820151805161279c916002840191602090910190612884565b505060405173d9073e73717fca172f29b55a0368ae41de35d23791507f8897d4c16f6b907647cc92f3b2f80418ac81581b8e74f9dda595d3910b44c862906127e69060029061300a565b60405180910390a2565b6001600160a01b038116600090815260056020908152604091829020805483518184028101840190945280845260609392830182828015612280576020028201919060005260206000209081546001600160a01b031681526001909101906020018083116122625750505050509050919050565b600260209081526000928352604080842090915290825290205460ff1681565b8280546128909061339c565b90600052602060002090601f0160209004810192826128b257600085556128f8565b82601f106128cb57805160ff19168380011785556128f8565b828001600101855582156128f8579182015b828111156128f85782518255916020019190600101906128dd565b50612904929150612929565b5090565b50805460008255906000526020600020908101906129269190612929565b50565b5b80821115612904576000815560010161292a565b80356001600160a01b0381168114610b6657600080fd5b600082601f830112612965578081fd5b813567ffffffffffffffff8082111561298057612980613408565b604051601f8301601f1916810160200182811182821017156129a4576129a4613408565b6040528281528483016020018610156129bb578384fd5b82602086016020830137918201602001929092529392505050565b6000602082840312156129e7578081fd5b6129f08261293e565b9392505050565b60008060408385031215612a09578081fd5b612a128361293e565b9150612a206020840161293e565b90509250929050565b60008060008060808587031215612a3e578182fd5b612a478561293e565b9350602085013567ffffffffffffffff80821115612a63578384fd5b612a6f88838901612955565b94506040870135915060038210612a84578384fd5b90925060608601359080821115612a99578283fd5b50612aa687828801612955565b91505092959194509250565b600080600060608486031215612ac6578283fd5b612acf8461293e565b9250602084013567ffffffffffffffff80821115612aeb578384fd5b612af787838801612955565b93506040860135915080821115612b0c578283fd5b50612b1986828701612955565b9150509250925092565b60008060408385031215612b35578182fd5b612b3e8361293e565b946020939093013593505050565b60008060408385031215612b5e578182fd5b823567ffffffffffffffff80821115612b75578384fd5b612b8186838701612955565b93506020850135915080821115612b96578283fd5b50612ba385828601612955565b9150509250929050565b60038110612bcb57634e487b7160e01b600052602160045260246000fd5b9052565b60008151808452815b81811015612bf457602081850181015186830182015201612bd8565b81811115612c055782602083870101525b50601f01601f19169290920160200192915050565b6001600160a01b0391909116815260200190565b6020808252825182820181905260009190848201906040850190845b81811015612c6f5783516001600160a01b031683529284019291840191600101612c4a565b50909695505050505050565b60208082528251828201819052600091906040908185019080840286018301878501865b83811015612d0e57603f19898403018552815160808151818652612cc582870182612bcf565b915050888201518582038a870152612cdd8282612bcf565b838a0151878b01526060938401516001600160a01b0316939096019290925250509386019390860190600101612c9f565b509098975050505050505050565b901515815260200190565b60208101611e578284612bad565b6000602082526129f06020830184612bcf565b600060a08252612d5b60a0830188612bcf565b6001600160a01b0387166020840152612d776040840187612bad565b84151560608401528281036080840152612d918185612bcf565b98975050505050505050565b600060408252612db06040830185612bcf565b90506129f06020830184612bad565b600060408252612dd26040830185612bcf565b8281036020840152612de48185612bcf565b95945050505050565b600060808252612e006080830187612bcf565b8281036020840152612e128187612bcf565b604084019590955250506001600160a01b039190911660609091015292915050565b6020808252600f908201526e496e76616c6964206164647265737360881b604082015260600190565b6020808252601490820152734e616d652063616e6e6f7420626520656d70747960601b604082015260600190565b60208082526023908201527f4e6f2070656e64696e6720726571756573742066726f6d207468697320646f636040820152623a37b960e91b606082015260800190565b602080825260169082015275496e76616c696420646f63746f72206164647265737360501b604082015260600190565b6020808252601c908201527f44656661756c742061646d696e20616c72656164792065786973747300000000604082015260600190565b6020808252601690820152751058d8d95cdcc8185b1c9958591e4819dc985b9d195960521b604082015260600190565b60208082526017908201527f496e76616c69642070617469656e742061646472657373000000000000000000604082015260600190565b6020808252601c908201527f446f63746f72206163636f756e74206973206e6f742061637469766500000000604082015260600190565b6020808252601d908201527f50617469656e74206163636f756e74206973206e6f7420616374697665000000604082015260600190565b6040808252600d908201526c2232b330bab63a1020b236b4b760991b606082015260808101611e576020830184612bad565b60208082526024908201527f4f6e6c792070617469656e742063616e20706572666f726d20746869732061636040820152633a34b7b760e11b606082015260800190565b60208082526019908201527f4950465320686173682063616e6e6f7420626520656d70747900000000000000604082015260600190565b60208082526039908201527f4f6e6c7920617574686f72697a656420646f63746f7273206f7220746865207060408201527f617469656e742063616e207669657720646f63756d656e747300000000000000606082015260800190565b60208082526038908201527f4f6e6c7920617574686f72697a656420646f63746f7273206f7220746865207060408201527f617469656e742063616e2061646420646f63756d656e74730000000000000000606082015260800190565b6020808252601b908201527f43616e6e6f742064656c6574652064656661756c742061646d696e0000000000604082015260600190565b60208082526017908201527f5573657220616c72656164792072656769737465726564000000000000000000604082015260600190565b60208082526017908201527f5265717565737420616c72656164792070656e64696e67000000000000000000604082015260600190565b6020808252601b908201527f41646d696e206163636f756e74206973206e6f74206163746976650000000000604082015260600190565b60208082526022908201527f4f6e6c792061646d696e2063616e20706572666f726d2074686973206163746960408201526137b760f11b606082015260800190565b602080825260139082015272155cd95c88191bd95cc81b9bdd08195e1a5cdd606a1b604082015260600190565b6020808252601f908201527f4f6e6c7920646f63746f72732063616e20726571756573742061636365737300604082015260600190565b6020808252818101527f4f6e6c792064656661756c742061646d696e2063616e2063616c6c2074686973604082015260600190565b60208082526015908201527450617469656e74206973206e6f742061637469766560581b604082015260600190565b602080825260149082015273446f63746f72206973206e6f742061637469766560601b604082015260600190565b600082821015613397576133976133f2565b500390565b6002810460018216806133b057607f821691505b602082108114156133d157634e487b7160e01b600052602260045260246000fd5b50919050565b60006000198214156133eb576133eb6133f2565b5060010190565b634e487b7160e01b600052601160045260246000fd5b634e487b7160e01b600052604160045260246000fdfea2646970667358221220ec625a29907e2db7cac73c25dce8c1408cfcbdd5ed1a44df7a8f2bc1da885cae64736f6c63430008000033",
  "immutableReferences": {},
  "source": "// SPDX-License-Identifier: MIT\npragma solidity ^0.8.0;\n\ncontract HealthRecord {\n    // Enum for user roles\n    enum Role { Patient, Doctor, Admin }\n    \n    // Struct for user details\n    struct User {\n        string name;\n        address userAddress;\n        Role role;\n        bool isActive;\n        string ipfsHash;\n    }\n\n    // Struct for document details\n    struct Document {\n        string name;\n        string ipfsHash;\n        uint256 timestamp;\n        address uploadedBy;\n    }\n    \n    // State variables\n    address public owner;\n    address public constant DEFAULT_ADMIN = 0xD9073E73717FCA172f29B55A0368ae41De35D237;\n    mapping(address => User) public users;\n    mapping(address => mapping(address => bool)) public doctorAccess;\n    mapping(address => address[]) public authorizedDoctorsList;\n    mapping(address => mapping(address => bool)) public accessRequests;\n    mapping(address => address[]) public pendingRequests;\n    \n    // Document management\n    mapping(address => Document[]) public patientDocuments;\n    \n    // Events\n    event UserAdded(address indexed userAddress, string name, Role role);\n    event UserUpdated(address indexed userAddress, string name, Role role);\n    event UserDeleted(address indexed userAddress);\n    event AccessGranted(address indexed patient, address indexed doctor);\n    event AccessRevoked(address indexed patient, address indexed doctor);\n    event AccessRequested(address indexed patient, address indexed doctor);\n    event RequestRejected(address indexed patient, address indexed doctor);\n    event DocumentAdded(address indexed patient, string name, string ipfsHash, address indexed uploadedBy);\n    \n    // Modifiers\n    modifier onlyAdmin() {\n        require(users[msg.sender].role == Role.Admin, \"Only admin can perform this action\");\n        require(users[msg.sender].isActive, \"Admin account is not active\");\n        _;\n    }\n    \n    modifier onlyDoctor() {\n        require(users[msg.sender].role == Role.Doctor, \"Only doctor can perform this action\");\n        require(users[msg.sender].isActive, \"Doctor account is not active\");\n        _;\n    }\n    \n    modifier onlyPatient() {\n        require(users[msg.sender].role == Role.Patient, \"Only patient can perform this action\");\n        require(users[msg.sender].isActive, \"Patient account is not active\");\n        _;\n    }\n    \n    // Constructor\n    constructor() {\n        owner = msg.sender;\n        // Add contract deployer as admin if it's the default admin address\n        if (msg.sender == DEFAULT_ADMIN) {\n            users[msg.sender] = User(\"Default Admin\", msg.sender, Role.Admin, true, \"\");\n            emit UserAdded(msg.sender, \"Default Admin\", Role.Admin);\n        }\n    }\n    \n    // Admin functions\n    function addUser(\n        address _userAddress,\n        string memory _name,\n        Role _role,\n        string memory _ipfsHash\n    ) public onlyAdmin {\n        require(_userAddress != address(0), \"Invalid address\");\n        \n        // Always clean up existing data, whether the user exists or not\n        if (_role == Role.Patient) {\n            // Get all authorized doctors (if any)\n            address[] memory doctors = authorizedDoctorsList[_userAddress];\n            \n            // Clear all doctor access mappings\n            for (uint i = 0; i < doctors.length; i++) {\n                delete doctorAccess[_userAddress][doctors[i]];\n            }\n            \n            // Clear authorized doctors list\n            delete authorizedDoctorsList[_userAddress];\n            \n            // Clear pending requests\n            for (uint i = 0; i < pendingRequests[_userAddress].length; i++) {\n                delete accessRequests[_userAddress][pendingRequests[_userAddress][i]];\n            }\n            delete pendingRequests[_userAddress];\n        } else if (_role == Role.Doctor) {\n            // Clean up any existing doctor access data\n            for (uint i = 0; i < authorizedDoctorsList[_userAddress].length; i++) {\n                address patient = authorizedDoctorsList[_userAddress][i];\n                delete doctorAccess[patient][_userAddress];\n            }\n            delete authorizedDoctorsList[_userAddress];\n        }\n        \n        // Create or update user\n        users[_userAddress] = User(_name, _userAddress, _role, true, _ipfsHash);\n        emit UserAdded(_userAddress, _name, _role);\n    }\n    \n    function updateUser(\n        address _userAddress,\n        string memory _name,\n        string memory _ipfsHash\n    ) public onlyAdmin {\n        require(users[_userAddress].isActive, \"User does not exist\");\n        \n        users[_userAddress].name = _name;\n        users[_userAddress].ipfsHash = _ipfsHash;\n        emit UserUpdated(_userAddress, _name, users[_userAddress].role);\n    }\n    \n    function deleteUser(address _userAddress) public onlyAdmin {\n        require(users[_userAddress].isActive, \"User does not exist\");\n        require(_userAddress != DEFAULT_ADMIN, \"Cannot delete default admin\");\n        \n        // Clean up associated data based on role\n        if (users[_userAddress].role == Role.Patient) {\n            // Get list of authorized doctors\n            address[] memory authorizedDoctors = authorizedDoctorsList[_userAddress];\n            \n            // Clear all doctor access mappings explicitly\n            for (uint i = 0; i < authorizedDoctors.length; i++) {\n                address doctor = authorizedDoctors[i];\n                delete doctorAccess[_userAddress][doctor];\n                emit AccessRevoked(_userAddress, doctor);\n            }\n            \n            // Clear authorized doctors list\n            delete authorizedDoctorsList[_userAddress];\n            \n            // Clear pending requests and access requests\n            for (uint i = 0; i < pendingRequests[_userAddress].length; i++) {\n                address doctor = pendingRequests[_userAddress][i];\n                delete accessRequests[_userAddress][doctor];\n                emit RequestRejected(_userAddress, doctor);\n            }\n            delete pendingRequests[_userAddress];\n        } else if (users[_userAddress].role == Role.Doctor) {\n            // If deleting a doctor, remove their access to all patients\n            // Get all patients this doctor has access to\n            for (uint i = 0; i < authorizedDoctorsList[msg.sender].length; i++) {\n                address patient = authorizedDoctorsList[msg.sender][i];\n                delete doctorAccess[patient][_userAddress];\n                emit AccessRevoked(patient, _userAddress);\n            }\n            delete authorizedDoctorsList[msg.sender];\n        }\n        \n        // Mark user as inactive\n        users[_userAddress].isActive = false;\n        emit UserDeleted(_userAddress);\n    }\n    \n\n    function requestAccess(address _patientAddress) public {\n        require(users[msg.sender].role == Role.Doctor, \"Only doctors can request access\");\n        require(users[msg.sender].isActive, \"Doctor account is not active\");\n        require(users[_patientAddress].role == Role.Patient, \"Invalid patient address\");\n        require(!doctorAccess[_patientAddress][msg.sender], \"Access already granted\");\n        require(!accessRequests[_patientAddress][msg.sender], \"Request already pending\");\n        \n        accessRequests[_patientAddress][msg.sender] = true;\n        pendingRequests[_patientAddress].push(msg.sender);\n        emit AccessRequested(_patientAddress, msg.sender);\n    }\n\n    function getPendingRequests(address _patientAddress) public view returns (address[] memory) {\n        return pendingRequests[_patientAddress];\n    }\n    \n    // Patient functions\n    function grantAccessToDoctor(address _doctorAddress) public onlyPatient {\n        require(users[_doctorAddress].role == Role.Doctor, \"Invalid doctor address\");\n        require(users[_doctorAddress].isActive, \"Doctor is not active\");\n        \n        doctorAccess[msg.sender][_doctorAddress] = true;\n        // Add doctor to authorized list if not already present\n        bool doctorExists = false;\n        for(uint i = 0; i < authorizedDoctorsList[msg.sender].length; i++) {\n            if(authorizedDoctorsList[msg.sender][i] == _doctorAddress) {\n                doctorExists = true;\n                break;\n            }\n        }\n        if(!doctorExists) {\n            authorizedDoctorsList[msg.sender].push(_doctorAddress);\n        }\n        \n        // Remove from pending requests if exists\n        if (accessRequests[msg.sender][_doctorAddress]) {\n            accessRequests[msg.sender][_doctorAddress] = false;\n            for(uint i = 0; i < pendingRequests[msg.sender].length; i++) {\n                if(pendingRequests[msg.sender][i] == _doctorAddress) {\n                    pendingRequests[msg.sender][i] = pendingRequests[msg.sender][pendingRequests[msg.sender].length - 1];\n                    pendingRequests[msg.sender].pop();\n                    break;\n                }\n            }\n        }\n        \n        emit AccessGranted(msg.sender, _doctorAddress);\n    }\n    \n    function revokeAccessFromDoctor(address _doctorAddress) public onlyPatient {\n        doctorAccess[msg.sender][_doctorAddress] = false;\n        // Remove doctor from authorized list\n        for(uint i = 0; i < authorizedDoctorsList[msg.sender].length; i++) {\n            if(authorizedDoctorsList[msg.sender][i] == _doctorAddress) {\n                // Move the last element to this position and pop the last element\n                authorizedDoctorsList[msg.sender][i] = authorizedDoctorsList[msg.sender][authorizedDoctorsList[msg.sender].length - 1];\n                authorizedDoctorsList[msg.sender].pop();\n                break;\n            }\n        }\n        emit AccessRevoked(msg.sender, _doctorAddress);\n    }\n\n    function rejectAccessRequest(address _doctorAddress) public onlyPatient {\n        require(users[_doctorAddress].role == Role.Doctor, \"Invalid doctor address\");\n        require(accessRequests[msg.sender][_doctorAddress], \"No pending request from this doctor\");\n\n        accessRequests[msg.sender][_doctorAddress] = false;\n\n        for(uint i = 0; i < pendingRequests[msg.sender].length; i++) {\n            if(pendingRequests[msg.sender][i] == _doctorAddress) {\n                pendingRequests[msg.sender][i] = pendingRequests[msg.sender][pendingRequests[msg.sender].length - 1];\n                pendingRequests[msg.sender].pop();\n                break;\n            }\n        }\n\n        emit RequestRejected(msg.sender, _doctorAddress);\n    }\n\n\n    function addDocument(\n        address _patientAddress,\n        string memory _name,\n        string memory _ipfsHash\n    ) public {\n        require(\n            users[msg.sender].role == Role.Doctor && doctorAccess[_patientAddress][msg.sender] ||\n            msg.sender == _patientAddress,\n            \"Only authorized doctors or the patient can add documents\"\n        );\n        require(users[_patientAddress].role == Role.Patient, \"Invalid patient address\");\n        require(users[_patientAddress].isActive, \"Patient is not active\");\n\n        Document memory newDoc = Document({\n            name: _name,\n            ipfsHash: _ipfsHash,\n            timestamp: block.timestamp,\n            uploadedBy: msg.sender\n        });\n\n        patientDocuments[_patientAddress].push(newDoc);\n        emit DocumentAdded(_patientAddress, _name, _ipfsHash, msg.sender);\n    }\n\n    function getDocuments(address _patientAddress) public view returns (Document[] memory) {\n        require(\n            users[msg.sender].role == Role.Doctor && doctorAccess[_patientAddress][msg.sender] ||\n            msg.sender == _patientAddress,\n            \"Only authorized doctors or the patient can view documents\"\n        );\n        return patientDocuments[_patientAddress];\n    }\n\n\n    function getUserRole(address _userAddress) public view returns (Role) {\n        return users[_userAddress].role;\n    }\n    \n    function checkDoctorAccess(address _patientAddress, address _doctorAddress) \n        public \n        view \n        returns (bool) \n    {\n        return doctorAccess[_patientAddress][_doctorAddress];\n    }\n    \n    function getAuthorizedDoctors(address _patientAddress) public view returns (address[] memory) {\n        return authorizedDoctorsList[_patientAddress];\n    }\n\n    function addDefaultAdmin() public {\n        require(msg.sender == DEFAULT_ADMIN, \"Only default admin can call this\");\n        require(!users[DEFAULT_ADMIN].isActive, \"Default admin already exists\");\n        \n        users[DEFAULT_ADMIN] = User(\"Default Admin\", DEFAULT_ADMIN, Role.Admin, true, \"\");\n        emit UserAdded(DEFAULT_ADMIN, \"Default Admin\", Role.Admin);\n    }\n\nevent PatientRegistered(address indexed userAddress, string name);\n\nfunction registerAsPatient(string memory _name, string memory _ipfsHash) public {\n    require(!users[msg.sender].isActive, \"User already registered\");\n    require(bytes(_name).length > 0, \"Name cannot be empty\");\n    require(bytes(_ipfsHash).length > 0, \"IPFS hash cannot be empty\");\n    \n    users[msg.sender] = User({\n        name: _name,\n        userAddress: msg.sender,\n        role: Role.Patient,\n        isActive: true,\n        ipfsHash: _ipfsHash\n    });\n\n    emit PatientRegistered(msg.sender, _name);\n    emit UserAdded(msg.sender, _name, Role.Patient);\n}\n}\n",
  "sourcePath": "C:\\Users\\antho\\CascadeProjects\\windsurf-project\\contracts\\HealthRecord.sol",
  "compiler": {
    "name": "solc",
    "version": "0.8.0+commit.c7dfd78e.Emscripten.clang"
  },
  "schemaVersion": "3.4.16",
  "updatedAt": "2025-01-28T04:48:12.294Z",
  "networkType": "ethereum",
  "devdoc": {
    "kind": "dev",
    "methods": {},
    "version": 1
  },
  "userdoc": {
    "kind": "user",
    "methods": {},
    "version": 1
  }
}